{
  "contractName": "BuyTickets",
  "abi": [
    {
      "inputs": [
        {
          "name": "_ticketsContract",
          "type": "address"
        },
        {
          "name": "reseller",
          "type": "address"
        },
        {
          "name": "_ntickets",
          "type": "uint256"
        },
        {
          "name": "_percTopOwner",
          "type": "uint256"
        },
        {
          "name": "_idEvent",
          "type": "bytes32"
        }
      ],
      "payable": false,
      "stateMutability": "nonpayable",
      "type": "constructor"
    },
    {
      "constant": false,
      "inputs": [],
      "name": "withdraw",
      "outputs": [
        {
          "name": "",
          "type": "bool"
        }
      ],
      "payable": false,
      "stateMutability": "nonpayable",
      "type": "function"
    },
    {
      "constant": false,
      "inputs": [],
      "name": "getidEvent",
      "outputs": [
        {
          "name": "",
          "type": "bytes32"
        }
      ],
      "payable": false,
      "stateMutability": "nonpayable",
      "type": "function"
    },
    {
      "constant": false,
      "inputs": [],
      "name": "getntickets",
      "outputs": [
        {
          "name": "",
          "type": "uint256"
        }
      ],
      "payable": false,
      "stateMutability": "nonpayable",
      "type": "function"
    },
    {
      "constant": false,
      "inputs": [],
      "name": "getENameFromTickets",
      "outputs": [
        {
          "name": "",
          "type": "bytes32"
        }
      ],
      "payable": false,
      "stateMutability": "nonpayable",
      "type": "function"
    },
    {
      "constant": false,
      "inputs": [
        {
          "name": "typeTicket",
          "type": "bytes32"
        },
        {
          "name": "quantity",
          "type": "uint256"
        }
      ],
      "name": "buy",
      "outputs": [
        {
          "name": "",
          "type": "uint256"
        }
      ],
      "payable": true,
      "stateMutability": "payable",
      "type": "function"
    }
  ],
  "bytecode": "0x6060604052341561000f57600080fd5b60405160a08061061783398101604052808051906020019091908051906020019091908051906020019091908051906020019091908051906020019091905050846000806101000a81548173ffffffffffffffffffffffffffffffffffffffff021916908373ffffffffffffffffffffffffffffffffffffffff16021790555083600260006101000a81548173ffffffffffffffffffffffffffffffffffffffff021916908373ffffffffffffffffffffffffffffffffffffffff16021790555033600160006101000a81548173ffffffffffffffffffffffffffffffffffffffff021916908373ffffffffffffffffffffffffffffffffffffffff1602179055508260038190555081600481905550806005816000191690555060006007819055506000809054906101000a900473ffffffffffffffffffffffffffffffffffffffff16600660006101000a81548173ffffffffffffffffffffffffffffffffffffffff021916908373ffffffffffffffffffffffffffffffffffffffff160217905550505050505061046f806101a86000396000f30060606040526004361061006d576000357c0100000000000000000000000000000000000000000000000000000000900463ffffffff1680630ddeb632146100725780631fa98264146100ab57806323fe802a146100dc5780633ccfd60b1461010d578063404081781461013a575b600080fd5b610095600480803560001916906020019091908035906020019091905050610163565b6040518082815260200191505060405180910390f35b34156100b657600080fd5b6100be6102aa565b60405180826000191660001916815260200191505060405180910390f35b34156100e757600080fd5b6100ef61036f565b60405180826000191660001916815260200191505060405180910390f35b341561011857600080fd5b610120610379565b604051808215151515815260200191505060405180910390f35b341561014557600080fd5b61014d610439565b6040518082815260200191505060405180910390f35b60008060646004546064340281151561017857fe5b0481151561018257fe5b04905080600760008282540192505081905550600660009054906101000a900473ffffffffffffffffffffffffffffffffffffffff1673ffffffffffffffffffffffffffffffffffffffff1663cc06146e8234036005548787336000604051602001526040518663ffffffff167c010000000000000000000000000000000000000000000000000000000002815260040180856000191660001916815260200184600019166000191681526020018381526020018273ffffffffffffffffffffffffffffffffffffffff1673ffffffffffffffffffffffffffffffffffffffff1681526020019450505050506020604051808303818588803b151561028657600080fd5b6125ee5a03f1151561029757600080fd5b5050505060405180519050505092915050565b6000600660009054906101000a900473ffffffffffffffffffffffffffffffffffffffff1673ffffffffffffffffffffffffffffffffffffffff16636bef23d86005546000604051602001526040518263ffffffff167c0100000000000000000000000000000000000000000000000000000000028152600401808260001916600019168152602001915050602060405180830381600087803b151561034f57600080fd5b6102c65a03f1151561036057600080fd5b50505060405180519050905090565b6000600554905090565b6000806007549050600260009054906101000a900473ffffffffffffffffffffffffffffffffffffffff1673ffffffffffffffffffffffffffffffffffffffff163373ffffffffffffffffffffffffffffffffffffffff161415156103dd57600080fd5b60006007819055503373ffffffffffffffffffffffffffffffffffffffff166108fc829081150290604051600060405180830381858888f193505050501515610430578060078190555060009150610435565b600191505b5090565b60006003549050905600a165627a7a72305820d967f389170b0a2ea81e8925765cccd6c170ef9c59288a78e52366f5bf4a18fb0029",
  "source": "pragma solidity ^0.4.19;\nimport \"./Tickets.sol\";\ncontract BuyTickets{\n  address ticketsContract;\n  address topOwner;\n  address owner;\n  uint ntickets;\n  uint percTopOwner;\n  bytes32 idEvent;\n  Tickets tickets;\n  uint fund;\n  function withdraw() public returns (bool){\n    uint amount=fund;\n    require(msg.sender==owner);\n    fund=0;\n    if (!msg.sender.send(amount)) {\n      fund = amount;\n      return false;\n    }\n    return true;\n  }\n  function BuyTickets(address _ticketsContract, address reseller, uint _ntickets, uint _percTopOwner, bytes32 _idEvent) public{\n    ticketsContract=_ticketsContract;\n    owner=reseller;\n    topOwner=msg.sender;\n    ntickets=_ntickets;\n    percTopOwner=_percTopOwner;\n    idEvent=_idEvent;\n    fund=0;\n    tickets= Tickets(ticketsContract);\n  }\n  function getidEvent() public returns (bytes32){\n    return idEvent;\n  }\n  function getntickets() public returns (uint){\n    return ntickets;\n  }\n  function getENameFromTickets() public returns (bytes32){\n    return tickets.getEventName(idEvent);\n  }\n\n  function buy(bytes32 typeTicket, uint quantity) payable public returns (uint) {\n    uint pay = msg.value*100/percTopOwner/100;\n    fund+=pay;\n    tickets.buy.value(msg.value-pay)(idEvent, typeTicket, quantity, msg.sender );\n  }\n}\n",
  "sourcePath": "/home/pietro/ethchain/ticketing/contracts/contracts/BuyTickets.sol",
  "compiler": {
    "name": "solc",
    "version": "0.4.19+commit.c4cbbb05.Emscripten.clang"
  },
  "schemaVersion": "2.0.0",
  "updatedAt": "2018-06-28T12:48:38.883Z"
}