{
  "contractName": "BuyTickets",
  "abi": [
    {
      "inputs": [
        {
          "name": "_ticketsContract",
          "type": "address"
        },
        {
          "name": "reseller",
          "type": "address"
        },
        {
          "name": "_ntickets",
          "type": "uint256"
        },
        {
          "name": "_percTopOwner",
          "type": "uint256"
        },
        {
          "name": "_idEvent",
          "type": "bytes32"
        }
      ],
      "payable": false,
      "stateMutability": "nonpayable",
      "type": "constructor"
    },
    {
      "constant": false,
      "inputs": [],
      "name": "getidEvent",
      "outputs": [
        {
          "name": "",
          "type": "bytes32"
        }
      ],
      "payable": false,
      "stateMutability": "nonpayable",
      "type": "function"
    },
    {
      "constant": false,
      "inputs": [],
      "name": "getntickets",
      "outputs": [
        {
          "name": "",
          "type": "uint256"
        }
      ],
      "payable": false,
      "stateMutability": "nonpayable",
      "type": "function"
    },
    {
      "constant": false,
      "inputs": [],
      "name": "getENameFromTickets",
      "outputs": [
        {
          "name": "",
          "type": "bytes32"
        }
      ],
      "payable": false,
      "stateMutability": "nonpayable",
      "type": "function"
    },
    {
      "constant": false,
      "inputs": [
        {
          "name": "typeTicket",
          "type": "bytes32"
        },
        {
          "name": "quantity",
          "type": "uint256"
        }
      ],
      "name": "buy",
      "outputs": [
        {
          "name": "",
          "type": "uint256"
        }
      ],
      "payable": true,
      "stateMutability": "payable",
      "type": "function"
    }
  ],
  "bytecode": "0x6060604052341561000f57600080fd5b60405160a0806104e483398101604052808051906020019091908051906020019091908051906020019091908051906020019091908051906020019091905050846000806101000a81548173ffffffffffffffffffffffffffffffffffffffff021916908373ffffffffffffffffffffffffffffffffffffffff16021790555083600260006101000a81548173ffffffffffffffffffffffffffffffffffffffff021916908373ffffffffffffffffffffffffffffffffffffffff16021790555033600160006101000a81548173ffffffffffffffffffffffffffffffffffffffff021916908373ffffffffffffffffffffffffffffffffffffffff160217905550826003819055508160048190555080600581600019169055506000809054906101000a900473ffffffffffffffffffffffffffffffffffffffff16600660006101000a81548173ffffffffffffffffffffffffffffffffffffffff021916908373ffffffffffffffffffffffffffffffffffffffff1602179055505050505050610344806101a06000396000f300606060405260043610610062576000357c0100000000000000000000000000000000000000000000000000000000900463ffffffff1680630ddeb632146100675780631fa98264146100a057806323fe802a146100d15780634040817814610102575b600080fd5b61008a60048080356000191690602001909190803590602001909190505061012b565b6040518082815260200191505060405180910390f35b34156100ab57600080fd5b6100b361023f565b60405180826000191660001916815260200191505060405180910390f35b34156100dc57600080fd5b6100e4610304565b60405180826000191660001916815260200191505060405180910390f35b341561010d57600080fd5b61011561030e565b6040518082815260200191505060405180910390f35b6000600660009054906101000a900473ffffffffffffffffffffffffffffffffffffffff1673ffffffffffffffffffffffffffffffffffffffff1663cc06146e346005548686336000604051602001526040518663ffffffff167c010000000000000000000000000000000000000000000000000000000002815260040180856000191660001916815260200184600019166000191681526020018381526020018273ffffffffffffffffffffffffffffffffffffffff1673ffffffffffffffffffffffffffffffffffffffff1681526020019450505050506020604051808303818588803b151561021c57600080fd5b6125ee5a03f1151561022d57600080fd5b50505050604051805190505092915050565b6000600660009054906101000a900473ffffffffffffffffffffffffffffffffffffffff1673ffffffffffffffffffffffffffffffffffffffff16636bef23d86005546000604051602001526040518263ffffffff167c0100000000000000000000000000000000000000000000000000000000028152600401808260001916600019168152602001915050602060405180830381600087803b15156102e457600080fd5b6102c65a03f115156102f557600080fd5b50505060405180519050905090565b6000600554905090565b60006003549050905600a165627a7a72305820cde6d26d32efc9a04b9571cce919ddd65dd5c43d5acefd40b1b8075165f7e1190029",
  "source": "pragma solidity ^0.4.19;\nimport \"./Tickets.sol\";\ncontract BuyTickets{\n  address ticketsContract;\n  address topOwner;\n  address owner;\n  uint ntickets;\n  uint percTopOwner;\n  bytes32 idEvent;\n  Tickets tickets;\n  function BuyTickets(address _ticketsContract, address reseller, uint _ntickets, uint _percTopOwner, bytes32 _idEvent) public{\n    ticketsContract=_ticketsContract;\n    owner=reseller;\n    topOwner=msg.sender;\n    ntickets=_ntickets;\n    percTopOwner=_percTopOwner;\n    idEvent=_idEvent;\n    tickets= Tickets(ticketsContract);\n  }\n  function getidEvent() public returns (bytes32){\n    return idEvent;\n  }\n  function getntickets() public returns (uint){\n    return ntickets;\n  }\n  function getENameFromTickets() public returns (bytes32){\n    return tickets.getEventName(idEvent);\n  }\n\n  function buy(bytes32 typeTicket, uint quantity) payable public returns (uint) {\n    //uint pay = msg.value*100/percTopOwner/100;\n    tickets.buy.value(msg.value)(idEvent, typeTicket, quantity, msg.sender );\n    //return money if doesn't works\n  }\n}\n",
  "sourcePath": "/home/pietro/ethchain/ticketing/contracts/contracts/BuyTickets.sol",
  "compiler": {
    "name": "solc",
    "version": "0.4.19+commit.c4cbbb05.Emscripten.clang"
  },
  "schemaVersion": "2.0.0",
  "updatedAt": "2018-06-26T13:17:02.070Z"
}