{
  "contractName": "BuyTickets",
  "abi": [
    {
      "inputs": [
        {
          "name": "_ticketsContract",
          "type": "address"
        },
        {
          "name": "_reseller",
          "type": "address"
        },
        {
          "name": "_idEvent",
          "type": "bytes32"
        },
        {
          "name": "_types",
          "type": "bytes32[]"
        },
        {
          "name": "_lowerPrices",
          "type": "uint256[]"
        },
        {
          "name": "_upperPrices",
          "type": "uint256[]"
        },
        {
          "name": "_cost",
          "type": "uint256[]"
        }
      ],
      "payable": false,
      "stateMutability": "nonpayable",
      "type": "constructor"
    },
    {
      "constant": false,
      "inputs": [],
      "name": "withdraw",
      "outputs": [
        {
          "name": "",
          "type": "bool"
        }
      ],
      "payable": false,
      "stateMutability": "nonpayable",
      "type": "function"
    },
    {
      "constant": false,
      "inputs": [
        {
          "name": "_types",
          "type": "bytes32[]"
        },
        {
          "name": "_prices",
          "type": "uint256[]"
        }
      ],
      "name": "setPrices",
      "outputs": [],
      "payable": false,
      "stateMutability": "nonpayable",
      "type": "function"
    },
    {
      "constant": false,
      "inputs": [],
      "name": "getidEvent",
      "outputs": [
        {
          "name": "",
          "type": "bytes32"
        }
      ],
      "payable": false,
      "stateMutability": "nonpayable",
      "type": "function"
    },
    {
      "constant": false,
      "inputs": [],
      "name": "getENameFromTickets",
      "outputs": [
        {
          "name": "",
          "type": "bytes32"
        }
      ],
      "payable": false,
      "stateMutability": "nonpayable",
      "type": "function"
    },
    {
      "constant": false,
      "inputs": [
        {
          "name": "_ticketsType",
          "type": "bytes32"
        },
        {
          "name": "_quantity",
          "type": "uint256"
        },
        {
          "name": "_t",
          "type": "bytes32[]"
        }
      ],
      "name": "buy",
      "outputs": [
        {
          "name": "",
          "type": "uint256"
        }
      ],
      "payable": true,
      "stateMutability": "payable",
      "type": "function"
    }
  ],
  "bytecode": "0x608060405234801561001057600080fd5b50604051610a3b380380610a3b833981018060405281019080805190602001909291908051906020019092919080519060200190929190805182019291906020018051820192919060200180518201929190602001805182019291905050506000876000806101000a81548173ffffffffffffffffffffffffffffffffffffffff021916908373ffffffffffffffffffffffffffffffffffffffff16021790555086600260006101000a81548173ffffffffffffffffffffffffffffffffffffffff021916908373ffffffffffffffffffffffffffffffffffffffff16021790555033600160006101000a81548173ffffffffffffffffffffffffffffffffffffffff021916908373ffffffffffffffffffffffffffffffffffffffff1602179055508560038160001916905550600060058190555087600460006101000a81548173ffffffffffffffffffffffffffffffffffffffff021916908373ffffffffffffffffffffffffffffffffffffffff160217905550600090505b84518110156102925781818151811015156101a357fe5b906020019060200201516006600087848151811015156101bf57fe5b90602001906020020151600019166000191681526020019081526020016000208190555083818151811015156101f157fe5b9060200190602002015160076000878481518110151561020d57fe5b906020019060200201516000191660001916815260200190815260200160002060000181905550828181518110151561024257fe5b9060200190602002015160076000878481518110151561025e57fe5b906020019060200201516000191660001916815260200190815260200160002060010181905550808060010191505061018c565b5050505050505050610792806102a96000396000f30060806040526004361061006d576000357c0100000000000000000000000000000000000000000000000000000000900463ffffffff1680631cfdd523146100725780631fa982641461011b57806323fe802a1461014e5780633ccfd60b14610181578063dee5ab43146101b0575b600080fd5b34801561007e57600080fd5b506101196004803603810190808035906020019082018035906020019080806020026020016040519081016040528093929190818152602001838360200280828437820191505050505050919291929080359060200190820180359060200190808060200260200160405190810160405280939291908181526020018383602002808284378201915050505050509192919290505050610235565b005b34801561012757600080fd5b506101306103b4565b60405180826000191660001916815260200191505060405180910390f35b34801561015a57600080fd5b50610163610491565b60405180826000191660001916815260200191505060405180910390f35b34801561018d57600080fd5b5061019661049b565b604051808215151515815260200191505060405180910390f35b61021f6004803603810190808035600019169060200190929190803590602001909291908035906020019082018035906020019080806020026020016040519081016040528093929190818152602001838360200280828437820191505050505050919291929050505061054f565b6040518082815260200191505060405180910390f35b6000600260009054906101000a900473ffffffffffffffffffffffffffffffffffffffff1673ffffffffffffffffffffffffffffffffffffffff163373ffffffffffffffffffffffffffffffffffffffff1614151561029357600080fd5b600090505b82518110156103af5781818151811015156102af57fe5b906020019060200201516007600085848151811015156102cb57fe5b906020019060200201516000191660001916815260200190815260200160002060000154111580156103495750818181518110151561030657fe5b9060200190602002015160076000858481518110151561032257fe5b90602001906020020151600019166000191681526020019081526020016000206001015410155b151561035457600080fd5b818181518110151561036257fe5b9060200190602002015160086000858481518110151561037e57fe5b9060200190602002015160001916600019168152602001908152602001600020819055508080600101915050610298565b505050565b6000600460009054906101000a900473ffffffffffffffffffffffffffffffffffffffff1673ffffffffffffffffffffffffffffffffffffffff16636bef23d86003546040518263ffffffff167c0100000000000000000000000000000000000000000000000000000000028152600401808260001916600019168152602001915050602060405180830381600087803b15801561045157600080fd5b505af1158015610465573d6000803e3d6000fd5b505050506040513d602081101561047b57600080fd5b8101908080519060200190929190505050905090565b6000600354905090565b6000806005549050600260009054906101000a900473ffffffffffffffffffffffffffffffffffffffff1673ffffffffffffffffffffffffffffffffffffffff163373ffffffffffffffffffffffffffffffffffffffff161415156104ff57600080fd5b60006005819055503373ffffffffffffffffffffffffffffffffffffffff166108fc829081150290604051600060405180830381858888f19350505050151561054757600080fd5b600191505090565b6000808360086000876000191660001916815260200190815260200160002054023410806105985750600060086000876000191660001916815260200190815260200160002054145b156105a257600080fd5b8360066000876000191660001916815260200190815260200160002054023403905080600560008282540192505081905550600460009054906101000a900473ffffffffffffffffffffffffffffffffffffffff1673ffffffffffffffffffffffffffffffffffffffff166351bb1ceb856006600089600019166000191681526020019081526020016000205402600354888833896040518763ffffffff167c010000000000000000000000000000000000000000000000000000000002815260040180866000191660001916815260200185600019166000191681526020018481526020018373ffffffffffffffffffffffffffffffffffffffff1673ffffffffffffffffffffffffffffffffffffffff16815260200180602001828103825283818151815260200191508051906020019060200280838360005b838110156106f95780820151818401526020810190506106de565b5050505090500196505050505050506020604051808303818588803b15801561072157600080fd5b505af1158015610735573d6000803e3d6000fd5b50505050506040513d602081101561074c57600080fd5b8101908080519060200190929190505050505093925050505600a165627a7a72305820d09ca6a22ac5b6bebc362f3021301bdd033024d2be71d755a6f242c3342b45340029",
  "source": "pragma solidity ^0.4.19;\nimport \"./Events.sol\";\ncontract BuyTickets{\n    address ticketsContract;\n    address topOwner;\n    address owner;\n    bytes32 idEvent;\n    Events tickets;\n    uint fund;\n    mapping(bytes32 => uint) ticketsCost;\n    mapping(bytes32 => marketLimit) ticketsPricesRange;\n    mapping(bytes32 => uint) ticketsPrices;\n    struct marketLimit{\n      uint lowerLimit;\n      uint upperLimit;\n    }\n    function withdraw() public returns (bool){\n        uint amount=fund;\n        require(msg.sender==owner);\n        fund=0;\n        if (!msg.sender.send(amount)) {\n          revert();\n        }\n        return true;\n    }\n    function BuyTickets(address _ticketsContract, address _reseller,  bytes32 _idEvent, bytes32[] _types, uint[] _lowerPrices, uint[] _upperPrices, uint[] _cost) public{\n        ticketsContract=_ticketsContract;\n        owner=_reseller;\n        topOwner=msg.sender;\n        idEvent=_idEvent;\n        fund=0;\n        tickets= Events(_ticketsContract);\n\n        for(uint i=0;i<_types.length;i++){\n            ticketsCost[_types[i]]=_cost[i];\n            ticketsPricesRange[_types[i]].lowerLimit=_lowerPrices[i];\n            ticketsPricesRange[_types[i]].upperLimit=_upperPrices[i];\n        }\n    }\n    function setPrices(bytes32[] _types, uint[] _prices) public{\n        require(msg.sender==owner);\n        for (uint i=0;i<_types.length;i++){\n            require(ticketsPricesRange[_types[i]].lowerLimit<=_prices[i] && ticketsPricesRange[_types[i]].upperLimit>=_prices[i]);\n            ticketsPrices[_types[i]]=_prices[i];\n        }\n    }\n    function getidEvent() public returns (bytes32){\n        return idEvent;\n    }\n    function getENameFromTickets() public returns (bytes32){\n        return tickets.getEventName(idEvent);\n    }\n\n    function buy(bytes32 _ticketsType, uint _quantity,  bytes32[] _t) payable public returns (uint) {\n        if(msg.value<ticketsPrices[_ticketsType]*_quantity || ticketsPrices[_ticketsType]==0){\n            revert();\n        }\n        uint pay = msg.value-(ticketsCost[_ticketsType]*_quantity);\n        fund+=pay;\n        tickets.buy.value(ticketsCost[_ticketsType]*_quantity)(idEvent, _ticketsType, _quantity, msg.sender, _t );\n    }\n}\n",
  "sourcePath": "C:\\Users\\pcors\\Documents\\ticketh\\ticketingeth\\contracts\\contracts\\BuyTickets.sol",
  "compiler": {
    "name": "solc",
    "version": "0.4.24+commit.e67f0147.Emscripten.clang"
  },
  "schemaVersion": "2.0.1",
  "updatedAt": "2018-10-05T09:58:30.116Z"
}