{
  "contractName": "BuyTickets",
  "abi": [
    {
      "inputs": [
        {
          "name": "_ticketsContract",
          "type": "address"
        },
        {
          "name": "_reseller",
          "type": "address"
        },
        {
          "name": "_idEvent",
          "type": "bytes32"
        },
        {
          "name": "_types",
          "type": "bytes32[]"
        },
        {
          "name": "_lowerPrices",
          "type": "uint256[]"
        },
        {
          "name": "_upperPrices",
          "type": "uint256[]"
        },
        {
          "name": "_cost",
          "type": "uint256[]"
        }
      ],
      "payable": false,
      "stateMutability": "nonpayable",
      "type": "constructor"
    },
    {
      "constant": false,
      "inputs": [],
      "name": "withdraw",
      "outputs": [
        {
          "name": "",
          "type": "bool"
        }
      ],
      "payable": false,
      "stateMutability": "nonpayable",
      "type": "function"
    },
    {
      "constant": false,
      "inputs": [
        {
          "name": "_types",
          "type": "bytes32[]"
        },
        {
          "name": "_prices",
          "type": "uint256[]"
        }
      ],
      "name": "setPrices",
      "outputs": [],
      "payable": false,
      "stateMutability": "nonpayable",
      "type": "function"
    },
    {
      "constant": false,
      "inputs": [],
      "name": "getidEvent",
      "outputs": [
        {
          "name": "",
          "type": "bytes32"
        }
      ],
      "payable": false,
      "stateMutability": "nonpayable",
      "type": "function"
    },
    {
      "constant": false,
      "inputs": [],
      "name": "getENameFromTickets",
      "outputs": [
        {
          "name": "",
          "type": "bytes32"
        }
      ],
      "payable": false,
      "stateMutability": "nonpayable",
      "type": "function"
    },
    {
      "constant": false,
      "inputs": [
        {
          "name": "_ticketsType",
          "type": "bytes32"
        },
        {
          "name": "_quantity",
          "type": "uint256"
        },
        {
          "name": "_t",
          "type": "bytes32[]"
        }
      ],
      "name": "buy",
      "outputs": [
        {
          "name": "",
          "type": "uint256"
        }
      ],
      "payable": true,
      "stateMutability": "payable",
      "type": "function"
    }
  ],
  "bytecode": "0x6060604052341561000f57600080fd5b6040516109dc3803806109dc833981016040528080519060200190919080519060200190919080519060200190919080518201919060200180518201919060200180518201919060200180518201919050506000876000806101000a81548173ffffffffffffffffffffffffffffffffffffffff021916908373ffffffffffffffffffffffffffffffffffffffff16021790555086600260006101000a81548173ffffffffffffffffffffffffffffffffffffffff021916908373ffffffffffffffffffffffffffffffffffffffff16021790555033600160006101000a81548173ffffffffffffffffffffffffffffffffffffffff021916908373ffffffffffffffffffffffffffffffffffffffff1602179055508560038160001916905550600060058190555087600460006101000a81548173ffffffffffffffffffffffffffffffffffffffff021916908373ffffffffffffffffffffffffffffffffffffffff160217905550600090505b845181101561028457818181518110151561019557fe5b906020019060200201516006600087848151811015156101b157fe5b90602001906020020151600019166000191681526020019081526020016000208190555083818151811015156101e357fe5b906020019060200201516007600087848151811015156101ff57fe5b906020019060200201516000191660001916815260200190815260200160002060000181905550828181518110151561023457fe5b9060200190602002015160076000878481518110151561025057fe5b906020019060200201516000191660001916815260200190815260200160002060010181905550808060010191505061017e565b50505050505050506107418061029b6000396000f30060606040526004361061006d576000357c0100000000000000000000000000000000000000000000000000000000900463ffffffff1680631cfdd523146100725780631fa982641461010c57806323fe802a1461013d5780633ccfd60b1461016e578063dee5ab431461019b575b600080fd5b341561007d57600080fd5b61010a60048080359060200190820180359060200190808060200260200160405190810160405280939291908181526020018383602002808284378201915050505050509190803590602001908201803590602001908080602002602001604051908101604052809392919081815260200183836020028082843782019150505050505091905050610214565b005b341561011757600080fd5b61011f610393565b60405180826000191660001916815260200191505060405180910390f35b341561014857600080fd5b610150610458565b60405180826000191660001916815260200191505060405180910390f35b341561017957600080fd5b610181610462565b604051808215151515815260200191505060405180910390f35b6101fe60048080356000191690602001909190803590602001909190803590602001908201803590602001908080602002602001604051908101604052809392919081815260200183836020028082843782019150505050505091905050610516565b6040518082815260200191505060405180910390f35b6000600260009054906101000a900473ffffffffffffffffffffffffffffffffffffffff1673ffffffffffffffffffffffffffffffffffffffff163373ffffffffffffffffffffffffffffffffffffffff1614151561027257600080fd5b600090505b825181101561038e57818181518110151561028e57fe5b906020019060200201516007600085848151811015156102aa57fe5b90602001906020020151600019166000191681526020019081526020016000206000015411158015610328575081818151811015156102e557fe5b9060200190602002015160076000858481518110151561030157fe5b90602001906020020151600019166000191681526020019081526020016000206001015410155b151561033357600080fd5b818181518110151561034157fe5b9060200190602002015160086000858481518110151561035d57fe5b9060200190602002015160001916600019168152602001908152602001600020819055508080600101915050610277565b505050565b6000600460009054906101000a900473ffffffffffffffffffffffffffffffffffffffff1673ffffffffffffffffffffffffffffffffffffffff16636bef23d86003546000604051602001526040518263ffffffff167c0100000000000000000000000000000000000000000000000000000000028152600401808260001916600019168152602001915050602060405180830381600087803b151561043857600080fd5b6102c65a03f1151561044957600080fd5b50505060405180519050905090565b6000600354905090565b6000806005549050600260009054906101000a900473ffffffffffffffffffffffffffffffffffffffff1673ffffffffffffffffffffffffffffffffffffffff163373ffffffffffffffffffffffffffffffffffffffff161415156104c657600080fd5b60006005819055503373ffffffffffffffffffffffffffffffffffffffff166108fc829081150290604051600060405180830381858888f19350505050151561050e57600080fd5b600191505090565b60008083600860008760001916600019168152602001908152602001600020540234108061055f5750600060086000876000191660001916815260200190815260200160002054145b1561056957600080fd5b8360066000876000191660001916815260200190815260200160002054023403905080600560008282540192505081905550600460009054906101000a900473ffffffffffffffffffffffffffffffffffffffff1673ffffffffffffffffffffffffffffffffffffffff166351bb1ceb856006600089600019166000191681526020019081526020016000205402600354888833896000604051602001526040518763ffffffff167c010000000000000000000000000000000000000000000000000000000002815260040180866000191660001916815260200185600019166000191681526020018481526020018373ffffffffffffffffffffffffffffffffffffffff1673ffffffffffffffffffffffffffffffffffffffff16815260200180602001828103825283818151815260200191508051906020019060200280838360005b838110156106c95780820151818401526020810190506106ae565b5050505090500196505050505050506020604051808303818588803b15156106f057600080fd5b6125ee5a03f1151561070157600080fd5b5050505060405180519050505093925050505600a165627a7a72305820264d5ce6323141c9e03e4cc1d451eca83bcf297a9fb670e6c0ef230041149c8d0029",
  "source": "pragma solidity ^0.4.19;\r\nimport \"./Events.sol\";\r\ncontract BuyTickets{\r\n    address ticketsContract;\r\n    address topOwner;\r\n    address owner;\r\n    bytes32 idEvent;\r\n    Events tickets;\r\n    uint fund;\r\n    mapping(bytes32 => uint) ticketsCost;\r\n    mapping(bytes32 => marketLimit) ticketsPricesRange;\r\n    mapping(bytes32 => uint) ticketsPrices;\r\n    struct marketLimit{\r\n      uint lowerLimit;\r\n      uint upperLimit;\r\n    }\r\n    function withdraw() public returns (bool){\r\n        uint amount=fund;\r\n        require(msg.sender==owner);\r\n        fund=0;\r\n        if (!msg.sender.send(amount)) {\r\n          revert();\r\n        }\r\n        return true;\r\n    }\r\n    function BuyTickets(address _ticketsContract, address _reseller,  bytes32 _idEvent, bytes32[] _types, uint[] _lowerPrices, uint[] _upperPrices, uint[] _cost) public{\r\n        ticketsContract=_ticketsContract;\r\n        owner=_reseller;\r\n        topOwner=msg.sender;\r\n        idEvent=_idEvent;\r\n        fund=0;\r\n        tickets= Events(_ticketsContract);\r\n\r\n        for(uint i=0;i<_types.length;i++){\r\n            ticketsCost[_types[i]]=_cost[i];\r\n            ticketsPricesRange[_types[i]].lowerLimit=_lowerPrices[i];\r\n            ticketsPricesRange[_types[i]].upperLimit=_upperPrices[i];\r\n        }\r\n    }\r\n    function setPrices(bytes32[] _types, uint[] _prices) public{\r\n        require(msg.sender==owner);\r\n        for (uint i=0;i<_types.length;i++){\r\n            require(ticketsPricesRange[_types[i]].lowerLimit<=_prices[i] && ticketsPricesRange[_types[i]].upperLimit>=_prices[i]);\r\n            ticketsPrices[_types[i]]=_prices[i];\r\n        }\r\n    }\r\n    function getidEvent() public returns (bytes32){\r\n        return idEvent;\r\n    }\r\n    function getENameFromTickets() public returns (bytes32){\r\n        return tickets.getEventName(idEvent);\r\n    }\r\n\r\n    function buy(bytes32 _ticketsType, uint _quantity,  bytes32[] _t) payable public returns (uint) {\r\n        if(msg.value<ticketsPrices[_ticketsType]*_quantity || ticketsPrices[_ticketsType]==0){\r\n            revert();\r\n        }\r\n        uint pay = msg.value-(ticketsCost[_ticketsType]*_quantity);\r\n        fund+=pay;\r\n        tickets.buy.value(ticketsCost[_ticketsType]*_quantity)(idEvent, _ticketsType, _quantity, msg.sender, _t );\r\n    }\r\n}\r\n",
  "sourcePath": "C:\\Users\\Pietro\\ticketingeth\\contracts\\contracts\\BuyTickets.sol",
  "compiler": {
    "name": "solc",
    "version": "0.4.19+commit.c4cbbb05.Emscripten.clang"
  },
  "schemaVersion": "2.0.0",
  "updatedAt": "2018-09-30T10:10:31.172Z"
}