{
  "contractName": "Events",
  "abi": [
    {
      "constant": true,
      "inputs": [],
      "name": "owner",
      "outputs": [
        {
          "name": "",
          "type": "address"
        }
      ],
      "payable": false,
      "stateMutability": "view",
      "type": "function"
    },
    {
      "inputs": [
        {
          "name": "_userContract",
          "type": "address"
        }
      ],
      "payable": false,
      "stateMutability": "nonpayable",
      "type": "constructor"
    },
    {
      "constant": false,
      "inputs": [],
      "name": "getEventsSize",
      "outputs": [
        {
          "name": "",
          "type": "uint256"
        }
      ],
      "payable": false,
      "stateMutability": "nonpayable",
      "type": "function"
    },
    {
      "constant": false,
      "inputs": [
        {
          "name": "_id",
          "type": "bytes32"
        },
        {
          "name": "_type",
          "type": "bytes32"
        }
      ],
      "name": "getTicketPrice",
      "outputs": [
        {
          "name": "",
          "type": "uint256"
        }
      ],
      "payable": false,
      "stateMutability": "nonpayable",
      "type": "function"
    },
    {
      "constant": false,
      "inputs": [
        {
          "name": "_id",
          "type": "bytes32"
        }
      ],
      "name": "getEventName",
      "outputs": [
        {
          "name": "",
          "type": "bytes32"
        }
      ],
      "payable": false,
      "stateMutability": "nonpayable",
      "type": "function"
    },
    {
      "constant": false,
      "inputs": [
        {
          "name": "_id",
          "type": "bytes32"
        }
      ],
      "name": "getEventTicketPerPerson",
      "outputs": [
        {
          "name": "",
          "type": "uint256"
        }
      ],
      "payable": false,
      "stateMutability": "nonpayable",
      "type": "function"
    },
    {
      "constant": false,
      "inputs": [
        {
          "name": "_id",
          "type": "bytes32"
        },
        {
          "name": "_addr",
          "type": "address"
        }
      ],
      "name": "getEventTicketBought",
      "outputs": [
        {
          "name": "",
          "type": "uint256"
        }
      ],
      "payable": false,
      "stateMutability": "nonpayable",
      "type": "function"
    },
    {
      "constant": false,
      "inputs": [
        {
          "name": "_id",
          "type": "bytes32"
        },
        {
          "name": "_name",
          "type": "bytes32"
        },
        {
          "name": "_ticketsType",
          "type": "bytes32[]"
        },
        {
          "name": "_maxTicketPerson",
          "type": "uint256"
        },
        {
          "name": "_ticketsPrices",
          "type": "uint256[]"
        },
        {
          "name": "_ticketsLeft",
          "type": "uint256[]"
        },
        {
          "name": "_startTimeStamp",
          "type": "uint256"
        },
        {
          "name": "_endTimeStamp",
          "type": "uint256"
        }
      ],
      "name": "addEvent",
      "outputs": [],
      "payable": false,
      "stateMutability": "nonpayable",
      "type": "function"
    },
    {
      "constant": false,
      "inputs": [
        {
          "name": "_idEvent",
          "type": "bytes32"
        },
        {
          "name": "_ticketsType",
          "type": "bytes32"
        },
        {
          "name": "_quantity",
          "type": "uint256"
        },
        {
          "name": "_sendFrom",
          "type": "address"
        },
        {
          "name": "_t",
          "type": "bytes32[]"
        }
      ],
      "name": "buy",
      "outputs": [
        {
          "name": "",
          "type": "uint256"
        }
      ],
      "payable": true,
      "stateMutability": "payable",
      "type": "function"
    }
  ],
  "bytecode": "0x6060604052341561000f57600080fd5b604051602080610f2b83398101604052808051906020019091905050806000806101000a81548173ffffffffffffffffffffffffffffffffffffffff021916908373ffffffffffffffffffffffffffffffffffffffff1602179055506000809054906101000a900473ffffffffffffffffffffffffffffffffffffffff16600560006101000a81548173ffffffffffffffffffffffffffffffffffffffff021916908373ffffffffffffffffffffffffffffffffffffffff16021790555033600160006101000a81548173ffffffffffffffffffffffffffffffffffffffff021916908373ffffffffffffffffffffffffffffffffffffffff160217905550600060038190555050610e05806101266000396000f30060606040526004361061008e576000357c0100000000000000000000000000000000000000000000000000000000900463ffffffff16806351bb1ceb1461009357806357ac264e146101385780636bef23d81461016157806374fe057d146101a45780637e10c4cb146101fe5780638da5cb5b1461030d578063cc79cfd514610362578063e2442fa1146103aa575b600080fd5b6101226004808035600019169060200190919080356000191690602001909190803590602001909190803573ffffffffffffffffffffffffffffffffffffffff16906020019091908035906020019082018035906020019080806020026020016040519081016040528093929190818152602001838360200280828437820191505050505050919050506103e5565b6040518082815260200191505060405180910390f35b341561014357600080fd5b61014b61082b565b6040518082815260200191505060405180910390f35b341561016c57600080fd5b610186600480803560001916906020019091905050610838565b60405180826000191660001916815260200191505060405180910390f35b34156101af57600080fd5b6101e860048080356000191690602001909190803573ffffffffffffffffffffffffffffffffffffffff16906020019091905050610860565b6040518082815260200191505060405180910390f35b341561020957600080fd5b61030b600480803560001916906020019091908035600019169060200190919080359060200190820180359060200190808060200260200160405190810160405280939291908181526020018383602002808284378201915050505050509190803590602001909190803590602001908201803590602001908080602002602001604051908101604052809392919081815260200183836020028082843782019150505050505091908035906020019082018035906020019080806020026020016040519081016040528093929190818152602001838360200280828437820191505050505050919080359060200190919080359060200190919050506108c9565b005b341561031857600080fd5b610320610c33565b604051808273ffffffffffffffffffffffffffffffffffffffff1673ffffffffffffffffffffffffffffffffffffffff16815260200191505060405180910390f35b341561036d57600080fd5b61039460048080356000191690602001909190803560001916906020019091905050610c59565b6040518082815260200191505060405180910390f35b34156103b557600080fd5b6103cf600480803560001916906020019091905050610c9b565b6040518082815260200191505060405180910390f35b600080600034915085600460008a600019166000191681526020019081526020016000206009016000896000191660001916815260200190815260200160002054101561043157600080fd5b858451111561043f57600080fd5b600460008960001916600019168152602001908152602001600020600201544211151561046b57600080fd5b600460008960001916600019168152602001908152602001600020600301544210151561049757600080fd5b8186600460008b6000191660001916815260200190815260200160002060080160008a60001916600019168152602001908152602001600020540211806104de5750600086145b156104e857600080fd5b3390506004600089600019166000191681526020019081526020016000206005015486600460008b6000191660001916815260200190815260200160002060070160008473ffffffffffffffffffffffffffffffffffffffff1673ffffffffffffffffffffffffffffffffffffffff1681526020019081526020016000206001015401111561057657600080fd5b60001515600560009054906101000a900473ffffffffffffffffffffffffffffffffffffffff1673ffffffffffffffffffffffffffffffffffffffff1663e491f48b836000604051602001526040518263ffffffff167c0100000000000000000000000000000000000000000000000000000000028152600401808273ffffffffffffffffffffffffffffffffffffffff1673ffffffffffffffffffffffffffffffffffffffff168152602001915050602060405180830381600087803b151561063f57600080fd5b6102c65a03f1151561065057600080fd5b505050604051805190501515141561066757600080fd5b85600460008a60001916600019168152602001908152602001600020600901600089600019166000191681526020019081526020016000206000828254039250508190555085600460008a6000191660001916815260200190815260200160002060070160008373ffffffffffffffffffffffffffffffffffffffff1673ffffffffffffffffffffffffffffffffffffffff168152602001908152602001600020600001600089600019166000191681526020019081526020016000206000828254019250508190555085600460008a6000191660001916815260200190815260200160002060070160008373ffffffffffffffffffffffffffffffffffffffff1673ffffffffffffffffffffffffffffffffffffffff1681526020019081526020016000206001016000828254019250508190555083600460008a6000191660001916815260200190815260200160002060070160008373ffffffffffffffffffffffffffffffffffffffff1673ffffffffffffffffffffffffffffffffffffffff168152602001908152602001600020600301908051906020019061080f929190610cc3565b5081600360008282540192505081905550505095945050505050565b6000600280549050905090565b6000600460008360001916600019168152602001908152602001600020600101549050919050565b600060046000846000191660001916815260200190815260200160002060070160008373ffffffffffffffffffffffffffffffffffffffff1673ffffffffffffffffffffffffffffffffffffffff16815260200190815260200160002060010154905092915050565b6000600160009054906101000a900473ffffffffffffffffffffffffffffffffffffffff1673ffffffffffffffffffffffffffffffffffffffff163373ffffffffffffffffffffffffffffffffffffffff1614151561092757600080fd5b8451875114151561093757600080fd5b8351855114151561094757600080fd5b60009050600090505b60028054905081101561099b57886000191660028281548110151561097157fe5b906000526020600020900154600019161415151561098e57600080fd5b8080600101915050610950565b600280548060010182816109af9190610d16565b916000526020600020900160008b9091909150906000191690555088600460008b60001916600019168152602001908152602001600020600001816000191690555087600460008b60001916600019168152602001908152602001600020600101816000191690555082600460008b600019166000191681526020019081526020016000206002018190555081600460008b600019166000191681526020019081526020016000206003018190555086600460008b600019166000191681526020019081526020016000206004019080519060200190610a90929190610cc3565b5085600460008b600019166000191681526020019081526020016000206005018190555084600460008b600019166000191681526020019081526020016000206006019080519060200190610ae6929190610d42565b506000600460008b60001916600019168152602001908152602001600020600a0160006101000a81548160ff021916908315150217905550600090505b8651811015610ba3578481815181101515610b3a57fe5b90602001906020020151600460008b6000191660001916815260200190815260200160002060080160008984815181101515610b7257fe5b9060200190602002015160001916600019168152602001908152602001600020819055508080600101915050610b23565b600090505b8651811015610c28578381815181101515610bbf57fe5b90602001906020020151600460008b6000191660001916815260200190815260200160002060090160008984815181101515610bf757fe5b9060200190602002015160001916600019168152602001908152602001600020819055508080600101915050610ba8565b505050505050505050565b600160009054906101000a900473ffffffffffffffffffffffffffffffffffffffff1681565b60006004600084600019166000191681526020019081526020016000206008016000836000191660001916815260200190815260200160002054905092915050565b6000600460008360001916600019168152602001908152602001600020600501549050919050565b828054828255906000526020600020908101928215610d05579160200282015b82811115610d04578251829060001916905591602001919060010190610ce3565b5b509050610d129190610d8f565b5090565b815481835581811511610d3d57818360005260206000209182019101610d3c9190610d8f565b5b505050565b828054828255906000526020600020908101928215610d7e579160200282015b82811115610d7d578251825591602001919060010190610d62565b5b509050610d8b9190610db4565b5090565b610db191905b80821115610dad576000816000905550600101610d95565b5090565b90565b610dd691905b80821115610dd2576000816000905550600101610dba565b5090565b905600a165627a7a7230582047f86b0e09b33e6a2e6cae4e5ca8fd43a1cb0ba3c67656b8965e8d23db94d7390029",
  "source": "pragma solidity ^0.4.19;\nimport \"./ValidatedAddresses.sol\";\ncontract Events {\n    address ValidatedAddressesContract;\n    address public owner;\n    bytes32[] events;\n    uint fund;\n    mapping(bytes32 => eventObject) eventStore;\n    ValidatedAddresses users;\n    struct buyer{\n      mapping (bytes32 => uint) ticketQuantity;//type->quantity\n      uint nTickets;\n      bool refund;\n      bytes32[] t;\n    }\n    /*struct sellingTicket{\n      bytes32 ticketType;\n      uint quantity;\n      address user;\n      uint price;\n    }\n    struct seller{\n      uint percReturn;\n      uint nTickets;\n    }*/\n    struct eventObject{\n      bytes32 id;\n      bytes32 name;\n      uint256 startTimeStamp;\n      uint256 endTimeStamp;\n      bytes32[] ticketsType;\n      uint maxTicketPerson;\n      uint[] ticketPrices;\n      //mapping (address => seller) resellers;\n      //address[] resellersAddr;\n      mapping (address => buyer) sold;\n      mapping (bytes32 => uint) ticketPricesMap;\n      mapping (bytes32 => uint) ticketLeftMap;\n      bool refund;\n      uint[] refundQuantity;\n      //user sell their tickets\n      //uint sellingPerc;\n      //sellingTicket[] selling;\n    }\n    function Events(address _userContract) public{\n      ValidatedAddressesContract=_userContract;\n      users=ValidatedAddresses(ValidatedAddressesContract);\n      owner = msg.sender;\n      fund=0;\n    }\n\n    /*function sellTicket(bytes32 id, bytes32 ticketType, uint price, uint quantity ){\n      //l'utente ha la quantità\n      require(eventStore[id].sold[msg.sender].ticketQuantity[ticketType]>=quantity);\n      //il prezzo è nel range corretto\n      uint i;\n      for(i=0; i<eventStore[id].ticketsType.length;i++){\n        if(eventStore[id].ticketsType[i]==ticketType)\n        break;\n      }\n\n      uint priceperc = eventStore[id].ticketPrices[i]*100/eventStore[id].sellingPerc/100;\n      require(eventStore[id].ticketPrices[i]-priceperc>=price);\n      require(eventStore[id].ticketPrices[i]+priceperc<=price);\n      //diminuisce quantità all'Utente\n      eventStore[id].sold[msg.sender].ticketQuantity[ticketType]-=quantity;\n      //inserisce biglietti in vendita\n\n      sellingTicket memory item= sellingTicket({ticketType:ticketType, quantity:quantity, user:msg.sender, price:price});\n      eventStore[id].selling.push(item);\n    }\n    function cancelSellingTicket(bytes32 id, bytes32 ticketType, uint quantity){\n      //rimuove dalla vendita i biglietti\n      uint i;\n      for(i=0;i<eventStore[id].selling.length;i++){\n        if(eventStore[id].selling[i].user==msg.sender && eventStore[id].selling[i].ticketType==ticketType){\n          if(eventStore[id].selling[i].quantity>=quantity){\n            eventStore[id].selling[i].quantity-=quantity;\n            eventStore[id].sold[msg.sender].ticketQuantity[ticketType]+=quantity;\n            return;\n          }else{\n            uint tmp=quantity;\n            quantity-=eventStore[id].selling[i].quantity;\n            eventStore[id].selling[i].quantity=0;\n            eventStore[id].sold[msg.sender].ticketQuantity[ticketType]+=tmp;\n          }\n\n        }\n      }\n\n    }\n\n    function buySecond(bytes32 id, bytes32 ticketType, uint quantity, uint i ) payable public{\n      //se autorizzato, se prezzo giusto, ecc...\n      //rimuovi biglietti dalla vendita\n      //aggiungi biglietti al nuovo proprietario\n      address sender=msg.sender;\n      uint money = msg.value;\n      if(users.getUserHash(sender)==0){\n        revert();\n      }\n      if(eventStore[id].maxTicketPerson<quantity){\n        revert();\n      }\n      if(eventStore[id].selling[i].quantity<quantity){\n        revert();\n      }\n\n      if(eventStore[id].selling[i].price*quantity==msg.value ){\n        eventStore[id].selling[i].quantity-=quantity;\n        eventStore[id].sold[msg.sender].ticketQuantity[ticketType]+=quantity;\n        eventStore[id].sold[msg.sender].nTickets+=quantity;\n        fund+=money;\n      }else{\n        revert();\n      }\n\n\n    }\n    function setEventRefund(bytes32 id, uint perc){\n\n    }\n    function setUserRefund(bytes32 EventId, address user, uint perc){\n\n    }\n    function getRefund(bytes32 idEvento){\n      require(eventStore[idEvento].sold[msg.sender].refund);\n      uint quantityRef=0;\n      for(uint i=0;i<eventStore[idEvento].ticketsType.length;i++){\n        if(eventStore[idEvento].sold[msg.sender].ticketQuantity[eventStore[idEvento].ticketsType[i]]>0){\n          quantityRef+=eventStore[idEvento].ticketPrices[i]*eventStore[idEvento].sold[msg.sender].ticketQuantity[eventStore[idEvento].ticketsType[i]];\n          eventStore[idEvento].sold[msg.sender].nTickets-=eventStore[idEvento].sold[msg.sender].ticketQuantity[eventStore[idEvento].ticketsType[i]];\n          eventStore[idEvento].sold[msg.sender].ticketQuantity[eventStore[idEvento].ticketsType[i]]=0;\n        }\n      }\n      if(quantityRef>0){\n        msg.sender.send(quantityRef);\n      }\n\n    }\n    uint fund;\n    function withdraw() public returns (bool){\n      uint amount=fund;\n      require(msg.sender==owner);\n      fund=0;\n      if (!msg.sender.send(amount)) {\n        fund = amount;\n        return false;\n      }\n      return true;\n    }\n    //mapping (uint=> eventObject) public eventsmap;*/\n\n    function getEventsSize() public returns (uint){\n      return events.length;\n    }\n    function getTicketPrice(bytes32 _id, bytes32 _type) public returns (uint){\n      return eventStore[_id].ticketPricesMap[_type];\n    }\n    function getEventName(bytes32 _id) public returns (bytes32){\n      return eventStore[_id].name;\n    }\n    function getEventTicketPerPerson(bytes32 _id) public returns (uint){\n      return eventStore[_id].maxTicketPerson;\n    }\n    function getEventTicketBought(bytes32 _id, address _addr) public returns (uint){\n      return eventStore[_id].sold[_addr].nTickets;\n    }\n    /*function addReseller(address addr, uint perc, uint ntickets, bytes32 id ) public{\n      eventStore[id].resellers[addr].percReturn=perc;\n      eventStore[id].resellers[addr].nTickets=ntickets;\n      eventStore[id].resellersAddr.push(addr);\n    }\n    function getResellerLength(bytes32 id) public returns (uint){\n      return eventStore[id].resellersAddr.length;\n    }\n    function getResellerfirstAddr(bytes32 id) public returns (address){\n      return eventStore[id].resellersAddr[0];\n    }\n    function getResellerTicketsAv(bytes32 id) public returns (uint){\n      return eventStore[id].resellers[msg.sender].nTickets;\n    }*/\n    function addEvent(bytes32 _id, bytes32 _name, bytes32[] _ticketsType, uint _maxTicketPerson, uint[] _ticketsPrices, uint[] _ticketsLeft, uint256 _startTimeStamp, uint256 _endTimeStamp) public\n    {\n        require(msg.sender==owner);\n        require(_ticketsType.length==_ticketsPrices.length);\n        require(_ticketsPrices.length==_ticketsLeft.length);\n        uint i=0;\n        for (i=0;i<events.length;i++){\n            require(events[i]!=_id);\n        }\n        events.push(_id);\n        eventStore[_id].id=_id;\n        eventStore[_id].name=_name;\n        eventStore[_id].startTimeStamp=_startTimeStamp;\n        eventStore[_id].endTimeStamp=_endTimeStamp;\n        eventStore[_id].ticketsType=_ticketsType;\n        eventStore[_id].maxTicketPerson=_maxTicketPerson;\n        eventStore[_id].ticketPrices=_ticketsPrices;\n        eventStore[_id].refund=false;\n        for (i=0;i<_ticketsType.length;i++){\n            eventStore[_id].ticketPricesMap[_ticketsType[i]]=_ticketsPrices[i];\n        }\n        for (i=0;i<_ticketsType.length;i++){\n            eventStore[_id].ticketLeftMap[_ticketsType[i]]=_ticketsLeft[i];\n        }\n    }\n\n   function buy(bytes32 _idEvent, bytes32 _ticketsType, uint _quantity, address _sendFrom, bytes32[] _t) payable public returns (uint) {\n        uint money = msg.value;\n        address sender;\n\n        if(eventStore[_idEvent].ticketLeftMap[_ticketsType] < _quantity){\n          revert();\n        }\n        if(_t.length>_quantity){\n            revert();\n        }\n        /*if(eventStore[_idEvent].resellersAddr.length>0){\n          if(eventStore[_idEvent].resellers[msg.sender].nTickets<_quantity || _quantity==0){\n            revert();\n          }*/\n        //sender=sendFrom;\n        //eventStore[idEvent].resellers[msg.sender].nTickets-=quantity;//va spostato in caso una require vada male\n        //}else{\n          require (block.timestamp > eventStore[_idEvent].startTimeStamp);\n          require (block.timestamp < eventStore[_idEvent].endTimeStamp);\n          if(eventStore[_idEvent].ticketPricesMap[_ticketsType]*_quantity > money || _quantity==0){\n            revert();\n          }\n          sender=msg.sender;\n        //}\n\n          if(eventStore[_idEvent].sold[sender].nTickets+_quantity>eventStore[_idEvent].maxTicketPerson){\n              revert();\n          }\n\n        if(users.isUserValidated(sender)==false){\n          revert();\n        }\n\n        eventStore[_idEvent].ticketLeftMap[_ticketsType]-=_quantity;\n        eventStore[_idEvent].sold[sender].ticketQuantity[_ticketsType]+=_quantity;\n        eventStore[_idEvent].sold[sender].nTickets+=_quantity;\n        eventStore[_idEvent].sold[sender].t=_t;\n        fund+=money;\n  }\n}\n",
  "sourcePath": "/home/pietro/ethchain/ticketing/contracts/contracts/Events.sol",
  "compiler": {
    "name": "solc",
    "version": "0.4.19+commit.c4cbbb05.Emscripten.clang"
  },
  "schemaVersion": "2.0.0",
  "updatedAt": "2018-09-25T14:53:24.032Z"
}