{
  "contractName": "Events",
  "abi": [
    {
      "constant": true,
      "inputs": [],
      "name": "owner",
      "outputs": [
        {
          "name": "",
          "type": "address"
        }
      ],
      "payable": false,
      "stateMutability": "view",
      "type": "function"
    },
    {
      "inputs": [
        {
          "name": "_userContract",
          "type": "address"
        }
      ],
      "payable": false,
      "stateMutability": "nonpayable",
      "type": "constructor"
    },
    {
      "constant": false,
      "inputs": [
        {
          "name": "_idEvent",
          "type": "bytes32"
        },
        {
          "name": "_ticketsType",
          "type": "bytes32"
        },
        {
          "name": "_quantity",
          "type": "uint256"
        },
        {
          "name": "_t",
          "type": "bytes32[]"
        }
      ],
      "name": "cancelSellingTicket",
      "outputs": [],
      "payable": false,
      "stateMutability": "nonpayable",
      "type": "function"
    },
    {
      "constant": false,
      "inputs": [
        {
          "name": "_idEvent",
          "type": "bytes32"
        },
        {
          "name": "_ticketsType",
          "type": "bytes32"
        },
        {
          "name": "_quantity",
          "type": "uint256"
        },
        {
          "name": "_i",
          "type": "uint256"
        },
        {
          "name": "_t",
          "type": "bytes32[]"
        }
      ],
      "name": "buySecond",
      "outputs": [],
      "payable": true,
      "stateMutability": "payable",
      "type": "function"
    },
    {
      "constant": false,
      "inputs": [],
      "name": "getEventsSize",
      "outputs": [
        {
          "name": "",
          "type": "uint256"
        }
      ],
      "payable": false,
      "stateMutability": "nonpayable",
      "type": "function"
    },
    {
      "constant": false,
      "inputs": [
        {
          "name": "_id",
          "type": "bytes32"
        },
        {
          "name": "_type",
          "type": "bytes32"
        }
      ],
      "name": "getTicketPrice",
      "outputs": [
        {
          "name": "",
          "type": "uint256"
        }
      ],
      "payable": false,
      "stateMutability": "nonpayable",
      "type": "function"
    },
    {
      "constant": false,
      "inputs": [
        {
          "name": "_id",
          "type": "bytes32"
        }
      ],
      "name": "getEventName",
      "outputs": [
        {
          "name": "",
          "type": "bytes32"
        }
      ],
      "payable": false,
      "stateMutability": "nonpayable",
      "type": "function"
    },
    {
      "constant": false,
      "inputs": [
        {
          "name": "_id",
          "type": "bytes32"
        }
      ],
      "name": "getEventTicketPerPerson",
      "outputs": [
        {
          "name": "",
          "type": "uint256"
        }
      ],
      "payable": false,
      "stateMutability": "nonpayable",
      "type": "function"
    },
    {
      "constant": false,
      "inputs": [
        {
          "name": "_id",
          "type": "bytes32"
        },
        {
          "name": "_addr",
          "type": "address"
        }
      ],
      "name": "getEventTicketBought",
      "outputs": [
        {
          "name": "",
          "type": "uint256"
        }
      ],
      "payable": false,
      "stateMutability": "nonpayable",
      "type": "function"
    },
    {
      "constant": false,
      "inputs": [
        {
          "name": "_id",
          "type": "bytes32"
        },
        {
          "name": "_t",
          "type": "bytes32[]"
        },
        {
          "name": "_quantity",
          "type": "uint256[]"
        },
        {
          "name": "_ticketsType",
          "type": "bytes32"
        },
        {
          "name": "_ticketsPrice",
          "type": "uint256"
        }
      ],
      "name": "sellTickets",
      "outputs": [],
      "payable": false,
      "stateMutability": "nonpayable",
      "type": "function"
    },
    {
      "constant": false,
      "inputs": [
        {
          "name": "_id",
          "type": "bytes32"
        },
        {
          "name": "_name",
          "type": "bytes32"
        },
        {
          "name": "_ticketsType",
          "type": "bytes32[]"
        },
        {
          "name": "_maxTicketPerson",
          "type": "uint256"
        },
        {
          "name": "_ticketsPrices",
          "type": "uint256[]"
        },
        {
          "name": "_ticketsLeft",
          "type": "uint256[]"
        },
        {
          "name": "_startTimeStamp",
          "type": "uint256"
        },
        {
          "name": "_endTimeStamp",
          "type": "uint256"
        },
        {
          "name": "_lowSecMarket",
          "type": "uint256[]"
        },
        {
          "name": "_upSecMarket",
          "type": "uint256[]"
        }
      ],
      "name": "addEvent",
      "outputs": [],
      "payable": false,
      "stateMutability": "nonpayable",
      "type": "function"
    },
    {
      "constant": false,
      "inputs": [
        {
          "name": "_idEvent",
          "type": "bytes32"
        },
        {
          "name": "_ticketsType",
          "type": "bytes32"
        },
        {
          "name": "_quantity",
          "type": "uint256"
        },
        {
          "name": "_sendFrom",
          "type": "address"
        },
        {
          "name": "_t",
          "type": "bytes32[]"
        }
      ],
      "name": "buy",
      "outputs": [
        {
          "name": "",
          "type": "uint256"
        }
      ],
      "payable": true,
      "stateMutability": "payable",
      "type": "function"
    }
  ],
  "bytecode": "0x6060604052341561000f57600080fd5b6040516020806127fd83398101604052808051906020019091905050806000806101000a81548173ffffffffffffffffffffffffffffffffffffffff021916908373ffffffffffffffffffffffffffffffffffffffff1602179055506000809054906101000a900473ffffffffffffffffffffffffffffffffffffffff16600560006101000a81548173ffffffffffffffffffffffffffffffffffffffff021916908373ffffffffffffffffffffffffffffffffffffffff16021790555033600160006101000a81548173ffffffffffffffffffffffffffffffffffffffff021916908373ffffffffffffffffffffffffffffffffffffffff1602179055506000600381905550506126d7806101266000396000f3006060604052600436106100af576000357c0100000000000000000000000000000000000000000000000000000000900463ffffffff168063517052a8146100b457806351bb1ceb1461012f57806357ac264e146101d45780636bef23d8146101fd5780636d6312131461024057806374fe057d146103cf5780638da5cb5b14610429578063958c47311461047e578063be28121d146104fb578063cc79cfd5146105b8578063e2442fa114610600575b600080fd5b61012d600480803560001916906020019091908035600019169060200190919080359060200190919080359060200190919080359060200190820180359060200190808060200260200160405190810160405280939291908181526020018383602002808284378201915050505050509190505061063b565b005b6101be6004808035600019169060200190919080356000191690602001909190803590602001909190803573ffffffffffffffffffffffffffffffffffffffff1690602001909190803590602001908201803590602001908080602002602001604051908101604052809392919081815260200183836020028082843782019150505050505091905050610e32565b6040518082815260200191505060405180910390f35b34156101df57600080fd5b6101e761139d565b6040518082815260200191505060405180910390f35b341561020857600080fd5b6102226004808035600019169060200190919050506113aa565b60405180826000191660001916815260200191505060405180910390f35b341561024b57600080fd5b6103cd6004808035600019169060200190919080356000191690602001909190803590602001908201803590602001908080602002602001604051908101604052809392919081815260200183836020028082843782019150505050505091908035906020019091908035906020019082018035906020019080806020026020016040519081016040528093929190818152602001838360200280828437820191505050505050919080359060200190820180359060200190808060200260200160405190810160405280939291908181526020018383602002808284378201915050505050509190803590602001909190803590602001909190803590602001908201803590602001908080602002602001604051908101604052809392919081815260200183836020028082843782019150505050505091908035906020019082018035906020019080806020026020016040519081016040528093929190818152602001838360200280828437820191505050505050919050506113d2565b005b34156103da57600080fd5b61041360048080356000191690602001909190803573ffffffffffffffffffffffffffffffffffffffff169060200190919050506117e6565b6040518082815260200191505060405180910390f35b341561043457600080fd5b61043c61184f565b604051808273ffffffffffffffffffffffffffffffffffffffff1673ffffffffffffffffffffffffffffffffffffffff16815260200191505060405180910390f35b341561048957600080fd5b6104f96004808035600019169060200190919080356000191690602001909190803590602001909190803590602001908201803590602001908080602002602001604051908101604052809392919081815260200183836020028082843782019150505050505091905050611875565b005b341561050657600080fd5b6105b6600480803560001916906020019091908035906020019082018035906020019080806020026020016040519081016040528093929190818152602001838360200280828437820191505050505050919080359060200190820180359060200190808060200260200160405190810160405280939291908181526020018383602002808284378201915050505050509190803560001916906020019091908035906020019091905050611f0b565b005b34156105c357600080fd5b6105ea6004808035600019169060200190919080356000191690602001909190505061247f565b6040518082815260200191505060405180910390f35b341561060b57600080fd5b6106256004808035600019169060200190919050506124c1565b6040518082815260200191505060405180910390f35b600080600080339350349250600091506000905060001515600560009054906101000a900473ffffffffffffffffffffffffffffffffffffffff1673ffffffffffffffffffffffffffffffffffffffff1663e491f48b866000604051602001526040518263ffffffff167c0100000000000000000000000000000000000000000000000000000000028152600401808273ffffffffffffffffffffffffffffffffffffffff1673ffffffffffffffffffffffffffffffffffffffff168152602001915050602060405180830381600087803b151561071857600080fd5b6102c65a03f1151561072957600080fd5b505050604051805190501515141561074057600080fd5b8287600460008c6000191660001916815260200190815260200160002060080160008b60001916600019168152602001908152602001600020540211806107875750600087145b1561079157600080fd5b600090505b600460008a60001916600019168152602001908152602001600020600b018054905081101561089e578373ffffffffffffffffffffffffffffffffffffffff16600460008b60001916600019168152602001908152602001600020600b018281548110151561080157fe5b906000526020600020906004020160000160009054906101000a900473ffffffffffffffffffffffffffffffffffffffff1673ffffffffffffffffffffffffffffffffffffffff16141561089157600460008a60001916600019168152602001908152602001600020600b018181548110151561087a57fe5b906000526020600020906004020160030154820191505b8080600101915050610796565b600460008a60001916600019168152602001908152602001600020600501548288600460008d6000191660001916815260200190815260200160002060070160008873ffffffffffffffffffffffffffffffffffffffff1673ffffffffffffffffffffffffffffffffffffffff168152602001908152602001600020600101540101111561092b57600080fd5b86600460008b60001916600019168152602001908152602001600020600b018781548110151561095757fe5b906000526020600020906004020160020160008a6000191660001916815260200190815260200160002054101561098d57600080fd5b868551111561099b57600080fd5b8287600460008c60001916600019168152602001908152602001600020600b01888154811015156109c857fe5b906000526020600020906004020160010160008b6000191660001916815260200190815260200160002054021415610e225786600460008b60001916600019168152602001908152602001600020600b0187815481101515610a2657fe5b906000526020600020906004020160020160008a600019166000191681526020019081526020016000206000828254039250508190555086600460008b6000191660001916815260200190815260200160002060070160008673ffffffffffffffffffffffffffffffffffffffff1673ffffffffffffffffffffffffffffffffffffffff16815260200190815260200160002060000160008a600019166000191681526020019081526020016000206000828254019250508190555086600460008b6000191660001916815260200190815260200160002060070160008673ffffffffffffffffffffffffffffffffffffffff1673ffffffffffffffffffffffffffffffffffffffff16815260200190815260200160002060010160008282540192505081905550600090505b86811015610d8b576000600460008b6000191660001916815260200190815260200160002060070160008673ffffffffffffffffffffffffffffffffffffffff1673ffffffffffffffffffffffffffffffffffffffff16815260200190815260200160002060040160008a6000191660001916815260200190815260200160002060008784815181101515610be457fe5b9060200190602002015160001916600019168152602001908152602001600020541415610cc757600460008a6000191660001916815260200190815260200160002060070160008573ffffffffffffffffffffffffffffffffffffffff1673ffffffffffffffffffffffffffffffffffffffff168152602001908152602001600020600301600089600019166000191681526020019081526020016000208054806001018281610c9491906124e9565b916000526020600020900160008784815181101515610caf57fe5b90602001906020020151909190915090600019169055505b600460008a6000191660001916815260200190815260200160002060070160008573ffffffffffffffffffffffffffffffffffffffff1673ffffffffffffffffffffffffffffffffffffffff1681526020019081526020016000206004016000896000191660001916815260200190815260200160002060008683815181101515610d4e57fe5b9060200190602002015160001916600019168152602001908152602001600020600081548092919060010191905055508080600101915050610b53565b600460008a60001916600019168152602001908152602001600020600b0186815481101515610db657fe5b906000526020600020906004020160000160009054906101000a900473ffffffffffffffffffffffffffffffffffffffff1673ffffffffffffffffffffffffffffffffffffffff166108fc849081150290604051600060405180830381858888f1935050505050610e27565b600080fd5b505050505050505050565b600080600080600080349450600092506000915088600460008d6000191660001916815260200190815260200160002060090160008c60001916600019168152602001908152602001600020541015610e8a57600080fd5b8887511115610e9857600080fd5b600460008c600019166000191681526020019081526020016000206002015442108015610ee25750600460008c600019166000191681526020019081526020016000206003015442115b15610eec57600080fd5b8489600460008e6000191660001916815260200190815260200160002060080160008d6000191660001916815260200190815260200160002054021180610f335750600089145b15610f3d57600080fd5b339350600460008c6000191660001916815260200190815260200160002060070160008573ffffffffffffffffffffffffffffffffffffffff1673ffffffffffffffffffffffffffffffffffffffff1681526020019081526020016000209050600092505b600460008c60001916600019168152602001908152602001600020600b01805490508310156110aa578373ffffffffffffffffffffffffffffffffffffffff16600460008d60001916600019168152602001908152602001600020600b018481548110151561100d57fe5b906000526020600020906004020160000160009054906101000a900473ffffffffffffffffffffffffffffffffffffffff1673ffffffffffffffffffffffffffffffffffffffff16141561109d57600460008c60001916600019168152602001908152602001600020600b018381548110151561108657fe5b906000526020600020906004020160030154820191505b8280600101935050610fa2565b600460008c6000191660001916815260200190815260200160002060050154828a8360010154010111156110dd57600080fd5b60001515600560009054906101000a900473ffffffffffffffffffffffffffffffffffffffff1673ffffffffffffffffffffffffffffffffffffffff1663e491f48b866000604051602001526040518263ffffffff167c0100000000000000000000000000000000000000000000000000000000028152600401808273ffffffffffffffffffffffffffffffffffffffff1673ffffffffffffffffffffffffffffffffffffffff168152602001915050602060405180830381600087803b15156111a657600080fd5b6102c65a03f115156111b757600080fd5b50505060405180519050151514156111ce57600080fd5b88600460008d6000191660001916815260200190815260200160002060090160008c6000191660001916815260200190815260200160002060008282540392505081905550888160000160008c6000191660001916815260200190815260200160002060008282540192505081905550888160010160008282540192505081905550600092505b8883101561137f5760008160040160008c600019166000191681526020019081526020016000206000898681518110151561128c57fe5b9060200190602002015160001916600019168152602001908152602001600020541415611315578060030160008b6000191660001916815260200190815260200160002080548060010182816112e291906124e9565b9160005260206000209001600089868151811015156112fd57fe5b90602001906020020151909190915090600019169055505b8060040160008b600019166000191681526020019081526020016000206000888581518110151561134257fe5b9060200190602002015160001916600019168152602001908152602001600020600081548092919060010191905055508280600101935050611255565b84600360008282540192505081905550505050505095945050505050565b6000600280549050905090565b6000600460008360001916600019168152602001908152602001600020600101549050919050565b6000600160009054906101000a900473ffffffffffffffffffffffffffffffffffffffff1673ffffffffffffffffffffffffffffffffffffffff163373ffffffffffffffffffffffffffffffffffffffff1614151561143057600080fd5b8651895114151561144057600080fd5b8551875114151561145057600080fd5b8851835114151561146057600080fd5b8851825114151561147057600080fd5b60009050600090505b6002805490508110156114c4578a6000191660028281548110151561149a57fe5b90600052602060002090015460001916141515156114b757600080fd5b8080600101915050611479565b600280548060010182816114d891906124e9565b916000526020600020900160008d909190915090600019169055508a600460008d60001916600019168152602001908152602001600020600001816000191690555089600460008d60001916600019168152602001908152602001600020600101816000191690555084600460008d600019166000191681526020019081526020016000206002018190555083600460008d600019166000191681526020019081526020016000206003018190555088600460008d6000191660001916815260200190815260200160002060040190805190602001906115b9929190612515565b5087600460008d600019166000191681526020019081526020016000206005018190555086600460008d60001916600019168152602001908152602001600020600601908051906020019061160f929190612568565b50600090505b88518110156117d957868181518110151561162c57fe5b90602001906020020151600460008d6000191660001916815260200190815260200160002060080160008b8481518110151561166457fe5b906020019060200201516000191660001916815260200190815260200160002081905550858181518110151561169657fe5b90602001906020020151600460008d6000191660001916815260200190815260200160002060090160008b848151811015156116ce57fe5b906020019060200201516000191660001916815260200190815260200160002081905550828181518110151561170057fe5b90602001906020020151600460008d60001916600019168152602001908152602001600020600a0160008b8481518110151561173857fe5b906020019060200201516000191660001916815260200190815260200160002060000181905550818181518110151561176d57fe5b90602001906020020151600460008d60001916600019168152602001908152602001600020600a0160008b848151811015156117a557fe5b9060200190602002015160001916600019168152602001908152602001600020600101819055508080600101915050611615565b5050505050505050505050565b600060046000846000191660001916815260200190815260200160002060070160008373ffffffffffffffffffffffffffffffffffffffff1673ffffffffffffffffffffffffffffffffffffffff16815260200190815260200160002060010154905092915050565b600160009054906101000a900473ffffffffffffffffffffffffffffffffffffffff1681565b60008060008060009350600091505b600460008960001916600019168152602001908152602001600020600b0180549050821015611bd3573373ffffffffffffffffffffffffffffffffffffffff16600460008a60001916600019168152602001908152602001600020600b01838154811015156118ef57fe5b906000526020600020906004020160000160009054906101000a900473ffffffffffffffffffffffffffffffffffffffff1673ffffffffffffffffffffffffffffffffffffffff161415611bc6576000600460008a60001916600019168152602001908152602001600020600b018381548110151561196a57fe5b906000526020600020906004020160020160008960001916600019168152602001908152602001600020541115611bc557600460008960001916600019168152602001908152602001600020600b01828154811015156119c657fe5b9060005260206000209060040201600201600088600019166000191681526020019081526020016000205484019350828054806001018281611a0891906125b5565b91600052602060002090016000849091909150555085841115611bc457600090505b8280549050811015611bbf5783600460008a60001916600019168152602001908152602001600020600b0183815481101515611a6257fe5b90600052602060002090600402016002016000896000191660001916815260200190815260200160002054111515611b4e57600460008960001916600019168152602001908152602001600020600b0182815481101515611abf57fe5b90600052602060002090600402016002016000886000191660001916815260200190815260200160002054840393506000600460008a60001916600019168152602001908152602001600020600b0183815481101515611b1b57fe5b90600052602060002090600402016002016000896000191660001916815260200190815260200160002081905550611bb2565b83600460008a60001916600019168152602001908152602001600020600b0183815481101515611b7a57fe5b906000526020600020906004020160020160008960001916600019168152602001908152602001600020600082825403925050819055505b8080600101915050611a2a565b611bd3565b5b5b8180600101925050611884565b85600460008a6000191660001916815260200190815260200160002060070160003373ffffffffffffffffffffffffffffffffffffffff1673ffffffffffffffffffffffffffffffffffffffff168152602001908152602001600020600001600089600019166000191681526020019081526020016000206000828254019250508190555085600460008a6000191660001916815260200190815260200160002060070160003373ffffffffffffffffffffffffffffffffffffffff1673ffffffffffffffffffffffffffffffffffffffff16815260200190815260200160002060010160008282540192505081905550600091505b85821015611f01576000600460008a6000191660001916815260200190815260200160002060070160003373ffffffffffffffffffffffffffffffffffffffff1673ffffffffffffffffffffffffffffffffffffffff1681526020019081526020016000206004016000896000191660001916815260200190815260200160002060008785815181101515611d5a57fe5b9060200190602002015160001916600019168152602001908152602001600020541415611e3d5760046000896000191660001916815260200190815260200160002060070160003373ffffffffffffffffffffffffffffffffffffffff1673ffffffffffffffffffffffffffffffffffffffff168152602001908152602001600020600301600088600019166000191681526020019081526020016000208054806001018281611e0a91906124e9565b916000526020600020900160008785815181101515611e2557fe5b90602001906020020151909190915090600019169055505b60046000896000191660001916815260200190815260200160002060070160003373ffffffffffffffffffffffffffffffffffffffff1673ffffffffffffffffffffffffffffffffffffffff1681526020019081526020016000206004016000886000191660001916815260200190815260200160002060008684815181101515611ec457fe5b9060200190602002015160001916600019168152602001908152602001600020600081548092919060010191905055508180600101925050611cc9565b5050505050505050565b600080600083600460008a60001916600019168152602001908152602001600020600a01600087600019166000191681526020019081526020016000206000015411151515611f5957600080fd5b83600460008a60001916600019168152602001908152602001600020600a01600087600019166000191681526020019081526020016000206001015410151515611fa257600080fd5b8651600460008a6000191660001916815260200190815260200160002060070160003373ffffffffffffffffffffffffffffffffffffffff1673ffffffffffffffffffffffffffffffffffffffff16815260200190815260200160002060000160008760001916600019168152602001908152602001600020541015151561202957600080fd5b8551875114151561203957600080fd5b600092505b86518310156121eb57858381518110151561205557fe5b90602001906020020151600460008a6000191660001916815260200190815260200160002060070160003373ffffffffffffffffffffffffffffffffffffffff1673ffffffffffffffffffffffffffffffffffffffff16815260200190815260200160002060040160008760001916600019168152602001908152602001600020600089868151811015156120e657fe5b906020019060200201516000191660001916815260200190815260200160002054101561211257600080fd5b858381518110151561212057fe5b90602001906020020151600460008a6000191660001916815260200190815260200160002060070160003373ffffffffffffffffffffffffffffffffffffffff1673ffffffffffffffffffffffffffffffffffffffff16815260200190815260200160002060040160008760001916600019168152602001908152602001600020600089868151811015156121b157fe5b906020019060200201516000191660001916815260200190815260200160002060008282540392505081905550828060010193505061203e565b8651600460008a6000191660001916815260200190815260200160002060070160003373ffffffffffffffffffffffffffffffffffffffff1673ffffffffffffffffffffffffffffffffffffffff16815260200190815260200160002060000160008760001916600019168152602001908152602001600020600082825403925050819055508651600460008a6000191660001916815260200190815260200160002060070160003373ffffffffffffffffffffffffffffffffffffffff1673ffffffffffffffffffffffffffffffffffffffff16815260200190815260200160002060010160008282540392505081905550338260000160006101000a81548173ffffffffffffffffffffffffffffffffffffffff021916908373ffffffffffffffffffffffffffffffffffffffff1602179055508382600101600087600019166000191681526020019081526020016000208190555060009050600092505b855183101561237e57858381518110151561236357fe5b9060200190602002015181019050828060010193505061234c565b80826002016000876000191660001916815260200190815260200160002060008282540192505081905550808260030160008282540192505081905550600460008960001916600019168152602001908152602001600020600b0180548060010182816123eb91906125e1565b916000526020600020906004020160008490919091506000820160009054906101000a900473ffffffffffffffffffffffffffffffffffffffff168160000160006101000a81548173ffffffffffffffffffffffffffffffffffffffff021916908373ffffffffffffffffffffffffffffffffffffffff160217905550600382015481600301555050505050505050505050565b60006004600084600019166000191681526020019081526020016000206008016000836000191660001916815260200190815260200160002054905092915050565b6000600460008360001916600019168152602001908152602001600020600501549050919050565b8154818355818115116125105781836000526020600020918201910161250f9190612613565b5b505050565b828054828255906000526020600020908101928215612557579160200282015b82811115612556578251829060001916905591602001919060010190612535565b5b5090506125649190612613565b5090565b8280548282559060005260206000209081019282156125a4579160200282015b828111156125a3578251825591602001919060010190612588565b5b5090506125b19190612638565b5090565b8154818355818115116125dc578183600052602060002091820191016125db9190612638565b5b505050565b81548183558181151161260e5760040281600402836000526020600020918201910161260d919061265d565b5b505050565b61263591905b80821115612631576000816000905550600101612619565b5090565b90565b61265a91905b8082111561265657600081600090555060010161263e565b5090565b90565b6126a891905b808211156126a457600080820160006101000a81549073ffffffffffffffffffffffffffffffffffffffff0219169055600382016000905550600401612663565b5090565b905600a165627a7a7230582050b5d4aa45c0e4b83cce8ab2345e4e0a269b9a3d804990388fbc114b3bc007570029",
  "source": "pragma solidity ^0.4.19;\r\nimport \"./ValidatedAddresses.sol\";\r\ncontract Events {\r\n    address ValidatedAddressesContract;\r\n    address public owner;\r\n    bytes32[] events;\r\n    uint fund;\r\n    mapping(bytes32 => eventObject) eventStore;\r\n    ValidatedAddresses users;\r\n\r\n    struct buyer{\r\n      mapping (bytes32 => uint) ticketsQuantity;//type->quantity\r\n      uint nTickets;\r\n      bool refund;\r\n      mapping (bytes32 => bytes32[]) t;\r\n      mapping (bytes32 => mapping (bytes32 => uint) ) ticketsID;\r\n    }\r\n    struct sellerSecMarket{\r\n        address seller;\r\n        mapping(bytes32 => uint) prices;//type->price\r\n        mapping (bytes32 => uint) ticketsQuantity;//type->quantity\r\n        uint nTickets;\r\n    }\r\n    struct eventObject{\r\n      bytes32 id;\r\n      bytes32 name;\r\n      uint256 startTimeStamp;\r\n      uint256 endTimeStamp;\r\n      bytes32[] ticketsType;\r\n      uint maxTicketPerson;\r\n      uint[] ticketPrices;\r\n      mapping (address => buyer) sold;\r\n      mapping (bytes32 => uint) ticketPricesMap;\r\n      mapping (bytes32 => uint) ticketLeftMap;\r\n      //mapping (address => seller) resellers;\r\n      //address[] resellersAddr;\r\n      //bool refund;\r\n      //uint[] refundQuantity;\r\n      //user sell their tickets\r\n      //uint sellingPerc;\r\n      //sellingTicket[] selling;\r\n      mapping (bytes32 => secondMarketLimit) secMarketLimit;\r\n      sellerSecMarket[] secondMarket;\r\n    }\r\n    struct secondMarketLimit{\r\n        uint lowerLimit;\r\n        uint upperLimit;\r\n    }\r\n\r\n    function Events(address _userContract) public{\r\n      ValidatedAddressesContract=_userContract;\r\n      users=ValidatedAddresses(ValidatedAddressesContract);\r\n      owner = msg.sender;\r\n      fund=0;\r\n    }\r\n\r\n\r\n    function cancelSellingTicket(bytes32 _idEvent, bytes32 _ticketsType, uint _quantity, bytes32[] _t){\r\n        uint cont=0;\r\n        uint[] pos;\r\n        for(uint i=0; i<eventStore[_idEvent].secondMarket.length;i++){\r\n          if(eventStore[_idEvent].secondMarket[i].seller==msg.sender){\r\n              if(eventStore[_idEvent].secondMarket[i].ticketsQuantity[_ticketsType]>0){\r\n                  cont+=eventStore[_idEvent].secondMarket[i].ticketsQuantity[_ticketsType];\r\n                  pos.push(i);\r\n                  if(cont>_quantity){\r\n                      for(uint k=0;k<pos.length;k++){\r\n                          if(eventStore[_idEvent].secondMarket[i].ticketsQuantity[_ticketsType]<=cont){\r\n                              cont-=eventStore[_idEvent].secondMarket[i].ticketsQuantity[_ticketsType];\r\n                              eventStore[_idEvent].secondMarket[i].ticketsQuantity[_ticketsType]=0;\r\n                          }else{\r\n                              eventStore[_idEvent].secondMarket[i].ticketsQuantity[_ticketsType]-=cont;\r\n                          }\r\n                      }\r\n                      break;\r\n                  }\r\n              }\r\n          }\r\n        }\r\n        eventStore[_idEvent].sold[msg.sender].ticketsQuantity[_ticketsType]+=_quantity;\r\n        eventStore[_idEvent].sold[msg.sender].nTickets+=_quantity;\r\n        for (i=0;i<_quantity;i++){\r\n            if(eventStore[_idEvent].sold[msg.sender].ticketsID[_ticketsType][_t[i]]==0){\r\n                eventStore[_idEvent].sold[msg.sender].t[_ticketsType].push(_t[i]);\r\n            }\r\n            eventStore[_idEvent].sold[msg.sender].ticketsID[_ticketsType][_t[i]]++;\r\n        }\r\n    }\r\n\r\n    function buySecond(bytes32 _idEvent, bytes32 _ticketsType, uint _quantity, uint _i, bytes32[] _t ) payable public{\r\n      address sender=msg.sender;\r\n      uint money = msg.value;\r\n      uint onSale=0;\r\n      uint i=0;\r\n      if(users.isUserValidated(sender)==false){\r\n        revert();\r\n      }\r\n      if(eventStore[_idEvent].ticketPricesMap[_ticketsType]*_quantity > money || _quantity==0){\r\n        revert();\r\n      }\r\n      for(i=0;i<eventStore[_idEvent].secondMarket.length;i++){\r\n          if(eventStore[_idEvent].secondMarket[i].seller==sender){\r\n              onSale+=eventStore[_idEvent].secondMarket[i].nTickets;\r\n          }\r\n      }\r\n      if(eventStore[_idEvent].sold[sender].nTickets+_quantity+onSale>eventStore[_idEvent].maxTicketPerson){\r\n          revert();\r\n      }\r\n      if(eventStore[_idEvent].secondMarket[_i].ticketsQuantity[_ticketsType]<_quantity){\r\n        revert();\r\n      }\r\n      if(_t.length>_quantity){\r\n          revert();\r\n      }\r\n      if(eventStore[_idEvent].secondMarket[_i].prices[_ticketsType]*_quantity==money ){\r\n        eventStore[_idEvent].secondMarket[_i].ticketsQuantity[_ticketsType]-=_quantity;\r\n\r\n        eventStore[_idEvent].sold[sender].ticketsQuantity[_ticketsType]+=_quantity;\r\n        eventStore[_idEvent].sold[sender].nTickets+=_quantity;\r\n        for (i=0;i<_quantity;i++){\r\n            if(eventStore[_idEvent].sold[sender].ticketsID[_ticketsType][_t[i]]==0){\r\n                eventStore[_idEvent].sold[sender].t[_ticketsType].push(_t[i]);\r\n            }\r\n            eventStore[_idEvent].sold[sender].ticketsID[_ticketsType][_t[i]]++;\r\n        }\r\n\r\n        eventStore[_idEvent].secondMarket[_i].seller.send(money);\r\n      }else{\r\n        revert();\r\n      }\r\n    }\r\n    /*\r\n    function setEventRefund(bytes32 id, uint perc){\r\n\r\n    }\r\n    function setUserRefund(bytes32 EventId, address user, uint perc){\r\n\r\n    }\r\n    function getRefund(bytes32 idEvento){\r\n      require(eventStore[idEvento].sold[msg.sender].refund);\r\n      uint quantityRef=0;\r\n      for(uint i=0;i<eventStore[idEvento].ticketsType.length;i++){\r\n        if(eventStore[idEvento].sold[msg.sender].ticketsQuantity[eventStore[idEvento].ticketsType[i]]>0){\r\n          quantityRef+=eventStore[idEvento].ticketPrices[i]*eventStore[idEvento].sold[msg.sender].ticketsQuantity[eventStore[idEvento].ticketsType[i]];\r\n          eventStore[idEvento].sold[msg.sender].nTickets-=eventStore[idEvento].sold[msg.sender].ticketsQuantity[eventStore[idEvento].ticketsType[i]];\r\n          eventStore[idEvento].sold[msg.sender].ticketsQuantity[eventStore[idEvento].ticketsType[i]]=0;\r\n        }\r\n      }\r\n      if(quantityRef>0){\r\n        msg.sender.send(quantityRef);\r\n      }\r\n\r\n    }\r\n    uint fund;\r\n    function withdraw() public returns (bool){\r\n      uint amount=fund;\r\n      require(msg.sender==owner);\r\n      fund=0;\r\n      if (!msg.sender.send(amount)) {\r\n        fund = amount;\r\n        return false;\r\n      }\r\n      return true;\r\n    }\r\n    //mapping (uint=> eventObject) public eventsmap;*/\r\n\r\n    function getEventsSize() public returns (uint){\r\n      return events.length;\r\n    }\r\n    function getTicketPrice(bytes32 _id, bytes32 _type) public returns (uint){\r\n      return eventStore[_id].ticketPricesMap[_type];\r\n    }\r\n    function getEventName(bytes32 _id) public returns (bytes32){\r\n      return eventStore[_id].name;\r\n    }\r\n    function getEventTicketPerPerson(bytes32 _id) public returns (uint){\r\n      return eventStore[_id].maxTicketPerson;\r\n    }\r\n    function getEventTicketBought(bytes32 _id, address _addr) public returns (uint){\r\n      return eventStore[_id].sold[_addr].nTickets;\r\n    }\r\n    /*function addReseller(address addr, uint perc, uint ntickets, bytes32 id ) public{\r\n      eventStore[id].resellers[addr].percReturn=perc;\r\n      eventStore[id].resellers[addr].nTickets=ntickets;\r\n      eventStore[id].resellersAddr.push(addr);\r\n    }\r\n    function getResellerLength(bytes32 id) public returns (uint){\r\n      return eventStore[id].resellersAddr.length;\r\n    }\r\n    function getResellerfirstAddr(bytes32 id) public returns (address){\r\n      return eventStore[id].resellersAddr[0];\r\n    }\r\n    function getResellerTicketsAv(bytes32 id) public returns (uint){\r\n      return eventStore[id].resellers[msg.sender].nTickets;\r\n    }*/\r\n\r\n    //add new object for every new sale\r\n    //TODO: change old sale instead\r\n    function sellTickets(bytes32 _id, bytes32[] _t, uint[] _quantity, bytes32 _ticketsType, uint _ticketsPrice ) public{\r\n        require(eventStore[_id].secMarketLimit[_ticketsType].lowerLimit<=_ticketsPrice);\r\n        require(eventStore[_id].secMarketLimit[_ticketsType].upperLimit>=_ticketsPrice);\r\n        require(eventStore[_id].sold[msg.sender].ticketsQuantity[_ticketsType]>=_t.length);\r\n        require(_t.length==_quantity.length);\r\n        for(uint i =0; i<_t.length;i++){\r\n            if(eventStore[_id].sold[msg.sender].ticketsID[_ticketsType][_t[i]]<_quantity[i]){\r\n                revert();\r\n            }\r\n            eventStore[_id].sold[msg.sender].ticketsID[_ticketsType][_t[i]]-=_quantity[i];\r\n        }\r\n\r\n        eventStore[_id].sold[msg.sender].ticketsQuantity[_ticketsType]-=_t.length;\r\n        eventStore[_id].sold[msg.sender].nTickets-=_t.length;\r\n\r\n        //one price for every type of ticket on this sale\r\n        sellerSecMarket tmp;\r\n        tmp.seller=msg.sender;\r\n\r\n        tmp.prices[_ticketsType]=_ticketsPrice; //modify or set price\r\n        uint sum=0;\r\n        for(i=0;i<_quantity.length;i++){\r\n            sum+=_quantity[i];\r\n        }\r\n        tmp.ticketsQuantity[_ticketsType]+=sum;\r\n        tmp.nTickets+=sum;\r\n        eventStore[_id].secondMarket.push(tmp);\r\n    }\r\n    function addEvent(bytes32 _id, bytes32 _name, bytes32[] _ticketsType, uint _maxTicketPerson, uint[] _ticketsPrices, uint[] _ticketsLeft, uint256 _startTimeStamp, uint256 _endTimeStamp, uint[] _lowSecMarket, uint[] _upSecMarket) public\r\n    {\r\n        require(msg.sender==owner);\r\n        require(_ticketsType.length==_ticketsPrices.length);\r\n        require(_ticketsPrices.length==_ticketsLeft.length);\r\n        require(_lowSecMarket.length==_ticketsType.length);\r\n        require(_upSecMarket.length==_ticketsType.length);\r\n        uint i=0;\r\n        for (i=0;i<events.length;i++){\r\n            require(events[i]!=_id);\r\n        }\r\n        events.push(_id);\r\n        eventStore[_id].id=_id;\r\n        eventStore[_id].name=_name;\r\n        eventStore[_id].startTimeStamp=_startTimeStamp;\r\n        eventStore[_id].endTimeStamp=_endTimeStamp;\r\n        eventStore[_id].ticketsType=_ticketsType;\r\n        eventStore[_id].maxTicketPerson=_maxTicketPerson;\r\n        eventStore[_id].ticketPrices=_ticketsPrices;\r\n        //eventStore[_id].refund=false;\r\n        for (i=0;i<_ticketsType.length;i++){\r\n            eventStore[_id].ticketPricesMap[_ticketsType[i]]=_ticketsPrices[i];\r\n            eventStore[_id].ticketLeftMap[_ticketsType[i]]=_ticketsLeft[i];\r\n            eventStore[_id].secMarketLimit[_ticketsType[i]].lowerLimit=_lowSecMarket[i];\r\n            eventStore[_id].secMarketLimit[_ticketsType[i]].upperLimit=_upSecMarket[i];\r\n        }\r\n\r\n    }\r\n\r\n   function buy(bytes32 _idEvent, bytes32 _ticketsType, uint _quantity, address _sendFrom, bytes32[] _t) payable public returns (uint) {\r\n        uint money = msg.value;\r\n        address sender;\r\n        uint i=0;\r\n        uint onSale=0;\r\n        buyer eventBuyer;\r\n        if(eventStore[_idEvent].ticketLeftMap[_ticketsType] < _quantity){\r\n            revert();\r\n        }\r\n        if(_t.length>_quantity){\r\n            revert();\r\n        }\r\n\r\n        /*if(eventStore[_idEvent].resellersAddr.length>0){\r\n          if(eventStore[_idEvent].resellers[msg.sender].nTickets<_quantity || _quantity==0){\r\n            revert();\r\n          }*/\r\n        //sender=sendFrom;\r\n        //eventStore[idEvent].resellers[msg.sender].nTickets-=quantity;//va spostato in caso una require vada male\r\n        //}else{\r\n          if(block.timestamp < eventStore[_idEvent].startTimeStamp && block.timestamp > eventStore[_idEvent].endTimeStamp){\r\n            revert();\r\n          }\r\n          if(eventStore[_idEvent].ticketPricesMap[_ticketsType]*_quantity > money || _quantity==0){\r\n            revert();\r\n          }\r\n          sender=msg.sender;\r\n          eventBuyer=eventStore[_idEvent].sold[sender];\r\n          for(i=0;i<eventStore[_idEvent].secondMarket.length;i++){\r\n              if(eventStore[_idEvent].secondMarket[i].seller==sender){\r\n                  onSale+=eventStore[_idEvent].secondMarket[i].nTickets;\r\n              }\r\n          }\r\n        //}\r\n\r\n          if(eventBuyer.nTickets+_quantity+onSale>eventStore[_idEvent].maxTicketPerson){\r\n              revert();\r\n          }\r\n\r\n        if(users.isUserValidated(sender)==false){\r\n          revert();\r\n        }\r\n\r\n        eventStore[_idEvent].ticketLeftMap[_ticketsType]-=_quantity;\r\n        eventBuyer.ticketsQuantity[_ticketsType]+=_quantity;\r\n        eventBuyer.nTickets+=_quantity;\r\n\r\n        for (i=0;i<_quantity;i++){\r\n            if(eventBuyer.ticketsID[_ticketsType][_t[i]]==0){\r\n                eventBuyer.t[_ticketsType].push(_t[i]);\r\n            }\r\n            eventBuyer.ticketsID[_ticketsType][_t[i]]++;\r\n        }\r\n\r\n        fund+=money;\r\n  }\r\n}\r\n",
  "sourcePath": "C:\\Users\\Pietro\\ticketingeth\\contracts\\contracts\\Events.sol",
  "compiler": {
    "name": "solc",
    "version": "0.4.19+commit.c4cbbb05.Emscripten.clang"
  },
  "schemaVersion": "2.0.0",
  "updatedAt": "2018-09-29T14:37:50.840Z"
}