{
  "contractName": "Events",
  "abi": [
    {
      "constant": true,
      "inputs": [],
      "name": "owner",
      "outputs": [
        {
          "name": "",
          "type": "address"
        }
      ],
      "payable": false,
      "stateMutability": "view",
      "type": "function"
    },
    {
      "inputs": [
        {
          "name": "_userContract",
          "type": "address"
        }
      ],
      "payable": false,
      "stateMutability": "nonpayable",
      "type": "constructor"
    },
    {
      "constant": false,
      "inputs": [],
      "name": "getEventsSize",
      "outputs": [
        {
          "name": "",
          "type": "uint256"
        }
      ],
      "payable": false,
      "stateMutability": "nonpayable",
      "type": "function"
    },
    {
      "constant": false,
      "inputs": [
        {
          "name": "_id",
          "type": "bytes32"
        },
        {
          "name": "_type",
          "type": "bytes32"
        }
      ],
      "name": "getTicketPrice",
      "outputs": [
        {
          "name": "",
          "type": "uint256"
        }
      ],
      "payable": false,
      "stateMutability": "nonpayable",
      "type": "function"
    },
    {
      "constant": false,
      "inputs": [
        {
          "name": "_id",
          "type": "bytes32"
        }
      ],
      "name": "getEventName",
      "outputs": [
        {
          "name": "",
          "type": "bytes32"
        }
      ],
      "payable": false,
      "stateMutability": "nonpayable",
      "type": "function"
    },
    {
      "constant": false,
      "inputs": [
        {
          "name": "_id",
          "type": "bytes32"
        }
      ],
      "name": "getEventTicketPerPerson",
      "outputs": [
        {
          "name": "",
          "type": "uint256"
        }
      ],
      "payable": false,
      "stateMutability": "nonpayable",
      "type": "function"
    },
    {
      "constant": false,
      "inputs": [
        {
          "name": "_id",
          "type": "bytes32"
        },
        {
          "name": "_addr",
          "type": "address"
        }
      ],
      "name": "getEventTicketBought",
      "outputs": [
        {
          "name": "",
          "type": "uint256"
        }
      ],
      "payable": false,
      "stateMutability": "nonpayable",
      "type": "function"
    },
    {
      "constant": false,
      "inputs": [
        {
          "name": "_id",
          "type": "bytes32"
        },
        {
          "name": "_name",
          "type": "bytes32"
        },
        {
          "name": "_ticketsType",
          "type": "bytes32[]"
        },
        {
          "name": "_maxTicketPerson",
          "type": "uint256"
        },
        {
          "name": "_ticketsPrices",
          "type": "uint256[]"
        },
        {
          "name": "_ticketsLeft",
          "type": "uint256[]"
        },
        {
          "name": "_startTimeStamp",
          "type": "uint256"
        },
        {
          "name": "_endTimeStamp",
          "type": "uint256"
        }
      ],
      "name": "addEvent",
      "outputs": [],
      "payable": false,
      "stateMutability": "nonpayable",
      "type": "function"
    },
    {
      "constant": false,
      "inputs": [
        {
          "name": "_idEvent",
          "type": "bytes32"
        },
        {
          "name": "_ticketsType",
          "type": "bytes32"
        },
        {
          "name": "_quantity",
          "type": "uint256"
        },
        {
          "name": "_sendFrom",
          "type": "address"
        },
        {
          "name": "_t",
          "type": "bytes32[]"
        }
      ],
      "name": "buy",
      "outputs": [
        {
          "name": "",
          "type": "uint256"
        }
      ],
      "payable": true,
      "stateMutability": "payable",
      "type": "function"
    }
  ],
  "bytecode": "0x6060604052341561000f57600080fd5b6040516020806110b583398101604052808051906020019091905050806000806101000a81548173ffffffffffffffffffffffffffffffffffffffff021916908373ffffffffffffffffffffffffffffffffffffffff1602179055506000809054906101000a900473ffffffffffffffffffffffffffffffffffffffff16600560006101000a81548173ffffffffffffffffffffffffffffffffffffffff021916908373ffffffffffffffffffffffffffffffffffffffff16021790555033600160006101000a81548173ffffffffffffffffffffffffffffffffffffffff021916908373ffffffffffffffffffffffffffffffffffffffff160217905550600060038190555050610f8f806101266000396000f30060606040526004361061008e576000357c0100000000000000000000000000000000000000000000000000000000900463ffffffff16806351bb1ceb1461009357806357ac264e146101385780636bef23d81461016157806374fe057d146101a45780637e10c4cb146101fe5780638da5cb5b1461030d578063cc79cfd514610362578063e2442fa1146103aa575b600080fd5b6101226004808035600019169060200190919080356000191690602001909190803590602001909190803573ffffffffffffffffffffffffffffffffffffffff16906020019091908035906020019082018035906020019080806020026020016040519081016040528093929190818152602001838360200280828437820191505050505050919050506103e5565b6040518082815260200191505060405180910390f35b341561014357600080fd5b61014b6109b5565b6040518082815260200191505060405180910390f35b341561016c57600080fd5b6101866004808035600019169060200190919050506109c2565b60405180826000191660001916815260200191505060405180910390f35b34156101af57600080fd5b6101e860048080356000191690602001909190803573ffffffffffffffffffffffffffffffffffffffff169060200190919050506109ea565b6040518082815260200191505060405180910390f35b341561020957600080fd5b61030b60048080356000191690602001909190803560001916906020019091908035906020019082018035906020019080806020026020016040519081016040528093929190818152602001838360200280828437820191505050505050919080359060200190919080359060200190820180359060200190808060200260200160405190810160405280939291908181526020018383602002808284378201915050505050509190803590602001908201803590602001908080602002602001604051908101604052809392919081815260200183836020028082843782019150505050505091908035906020019091908035906020019091905050610a53565b005b341561031857600080fd5b610320610dbd565b604051808273ffffffffffffffffffffffffffffffffffffffff1673ffffffffffffffffffffffffffffffffffffffff16815260200191505060405180910390f35b341561036d57600080fd5b61039460048080356000191690602001909190803560001916906020019091905050610de3565b6040518082815260200191505060405180910390f35b34156103b557600080fd5b6103cf600480803560001916906020019091905050610e25565b6040518082815260200191505060405180910390f35b6000806000803492506000905086600460008b6000191660001916815260200190815260200160002060090160008a6000191660001916815260200190815260200160002054101561043657600080fd5b868551111561044457600080fd5b600460008a60001916600019168152602001908152602001600020600201544210801561048e5750600460008a600019166000191681526020019081526020016000206003015442115b1561049857600080fd5b8287600460008c6000191660001916815260200190815260200160002060080160008b60001916600019168152602001908152602001600020540211806104df5750600087145b156104e957600080fd5b339150600460008a600019166000191681526020019081526020016000206005015487600460008c6000191660001916815260200190815260200160002060070160008573ffffffffffffffffffffffffffffffffffffffff1673ffffffffffffffffffffffffffffffffffffffff1681526020019081526020016000206001015401111561057757600080fd5b60001515600560009054906101000a900473ffffffffffffffffffffffffffffffffffffffff1673ffffffffffffffffffffffffffffffffffffffff1663e491f48b846000604051602001526040518263ffffffff167c0100000000000000000000000000000000000000000000000000000000028152600401808273ffffffffffffffffffffffffffffffffffffffff1673ffffffffffffffffffffffffffffffffffffffff168152602001915050602060405180830381600087803b151561064057600080fd5b6102c65a03f1151561065157600080fd5b505050604051805190501515141561066857600080fd5b86600460008b6000191660001916815260200190815260200160002060090160008a600019166000191681526020019081526020016000206000828254039250508190555086600460008b6000191660001916815260200190815260200160002060070160008473ffffffffffffffffffffffffffffffffffffffff1673ffffffffffffffffffffffffffffffffffffffff16815260200190815260200160002060000160008a600019166000191681526020019081526020016000206000828254019250508190555086600460008b6000191660001916815260200190815260200160002060070160008473ffffffffffffffffffffffffffffffffffffffff1673ffffffffffffffffffffffffffffffffffffffff16815260200190815260200160002060010160008282540192505081905550600090505b86811015610999576000600460008b6000191660001916815260200190815260200160002060070160008473ffffffffffffffffffffffffffffffffffffffff1673ffffffffffffffffffffffffffffffffffffffff16815260200190815260200160002060030160008a600019166000191681526020019081526020016000208054905014156108d157600460008a6000191660001916815260200190815260200160002060070160008373ffffffffffffffffffffffffffffffffffffffff1673ffffffffffffffffffffffffffffffffffffffff168152602001908152602001600020600401805480600101828161089e9190610e4d565b9160005260206000209001600087848151811015156108b957fe5b90602001906020020151909190915090600019169055505b600460008a6000191660001916815260200190815260200160002060070160008373ffffffffffffffffffffffffffffffffffffffff1673ffffffffffffffffffffffffffffffffffffffff16815260200190815260200160002060030160008960001916600019168152602001908152602001600020805480600101828161095a9190610e4d565b91600052602060002090016000878481518110151561097557fe5b906020019060200201519091909150906000191690555080806001019150506107a3565b8260036000828254019250508190555050505095945050505050565b6000600280549050905090565b6000600460008360001916600019168152602001908152602001600020600101549050919050565b600060046000846000191660001916815260200190815260200160002060070160008373ffffffffffffffffffffffffffffffffffffffff1673ffffffffffffffffffffffffffffffffffffffff16815260200190815260200160002060010154905092915050565b6000600160009054906101000a900473ffffffffffffffffffffffffffffffffffffffff1673ffffffffffffffffffffffffffffffffffffffff163373ffffffffffffffffffffffffffffffffffffffff16141515610ab157600080fd5b84518751141515610ac157600080fd5b83518551141515610ad157600080fd5b60009050600090505b600280549050811015610b25578860001916600282815481101515610afb57fe5b9060005260206000209001546000191614151515610b1857600080fd5b8080600101915050610ada565b60028054806001018281610b399190610e4d565b916000526020600020900160008b9091909150906000191690555088600460008b60001916600019168152602001908152602001600020600001816000191690555087600460008b60001916600019168152602001908152602001600020600101816000191690555082600460008b600019166000191681526020019081526020016000206002018190555081600460008b600019166000191681526020019081526020016000206003018190555086600460008b600019166000191681526020019081526020016000206004019080519060200190610c1a929190610e79565b5085600460008b600019166000191681526020019081526020016000206005018190555084600460008b600019166000191681526020019081526020016000206006019080519060200190610c70929190610ecc565b506000600460008b60001916600019168152602001908152602001600020600a0160006101000a81548160ff021916908315150217905550600090505b8651811015610d2d578481815181101515610cc457fe5b90602001906020020151600460008b6000191660001916815260200190815260200160002060080160008984815181101515610cfc57fe5b9060200190602002015160001916600019168152602001908152602001600020819055508080600101915050610cad565b600090505b8651811015610db2578381815181101515610d4957fe5b90602001906020020151600460008b6000191660001916815260200190815260200160002060090160008984815181101515610d8157fe5b9060200190602002015160001916600019168152602001908152602001600020819055508080600101915050610d32565b505050505050505050565b600160009054906101000a900473ffffffffffffffffffffffffffffffffffffffff1681565b60006004600084600019166000191681526020019081526020016000206008016000836000191660001916815260200190815260200160002054905092915050565b6000600460008360001916600019168152602001908152602001600020600501549050919050565b815481835581811511610e7457818360005260206000209182019101610e739190610f19565b5b505050565b828054828255906000526020600020908101928215610ebb579160200282015b82811115610eba578251829060001916905591602001919060010190610e99565b5b509050610ec89190610f19565b5090565b828054828255906000526020600020908101928215610f08579160200282015b82811115610f07578251825591602001919060010190610eec565b5b509050610f159190610f3e565b5090565b610f3b91905b80821115610f37576000816000905550600101610f1f565b5090565b90565b610f6091905b80821115610f5c576000816000905550600101610f44565b5090565b905600a165627a7a72305820e86d08511e560081c84139b3b094bdcd75361ae3b362599a86e44aadcbf53bed0029",
  "source": "pragma solidity ^0.4.19;\r\nimport \"./ValidatedAddresses.sol\";\r\ncontract Events {\r\n    address ValidatedAddressesContract;\r\n    address public owner;\r\n    bytes32[] events;\r\n    uint fund;\r\n    mapping(bytes32 => eventObject) eventStore;\r\n    ValidatedAddresses users;\r\n    struct buyer{\r\n      mapping (bytes32 => uint) ticketsQuantity;//type->quantity\r\n      uint nTickets;\r\n      bool refund;\r\n      mapping(bytes32 => bytes32[]) ticketsID; //type->t[]\r\n      bytes32[] t;\r\n    }\r\n    /*struct sellingTicket{\r\n      bytes32 ticketType;\r\n      uint quantity;\r\n      address user;\r\n      uint price;\r\n    }\r\n    struct seller{\r\n      uint percReturn;\r\n      uint nTickets;\r\n    }*/\r\n    struct eventObject{\r\n      bytes32 id;\r\n      bytes32 name;\r\n      uint256 startTimeStamp;\r\n      uint256 endTimeStamp;\r\n      bytes32[] ticketsType;\r\n      uint maxTicketPerson;\r\n      uint[] ticketPrices;\r\n      //mapping (address => seller) resellers;\r\n      //address[] resellersAddr;\r\n      mapping (address => buyer) sold;\r\n      mapping (bytes32 => uint) ticketPricesMap;\r\n      mapping (bytes32 => uint) ticketLeftMap;\r\n      bool refund;\r\n      uint[] refundQuantity;\r\n      //user sell their tickets\r\n      //uint sellingPerc;\r\n      //sellingTicket[] selling;\r\n    }\r\n    function Events(address _userContract) public{\r\n      ValidatedAddressesContract=_userContract;\r\n      users=ValidatedAddresses(ValidatedAddressesContract);\r\n      owner = msg.sender;\r\n      fund=0;\r\n    }\r\n\r\n    /*function sellTicket(bytes32 id, bytes32 ticketType, uint price, uint quantity ){\r\n      //l'utente ha la quantità\r\n      require(eventStore[id].sold[msg.sender].ticketsQuantity[ticketType]>=quantity);\r\n      //il prezzo è nel range corretto\r\n      uint i;\r\n      for(i=0; i<eventStore[id].ticketsType.length;i++){\r\n        if(eventStore[id].ticketsType[i]==ticketType)\r\n        break;\r\n      }\r\n\r\n      uint priceperc = eventStore[id].ticketPrices[i]*100/eventStore[id].sellingPerc/100;\r\n      require(eventStore[id].ticketPrices[i]-priceperc>=price);\r\n      require(eventStore[id].ticketPrices[i]+priceperc<=price);\r\n      //diminuisce quantità all'Utente\r\n      eventStore[id].sold[msg.sender].ticketsQuantity[ticketType]-=quantity;\r\n      //inserisce biglietti in vendita\r\n\r\n      sellingTicket memory item= sellingTicket({ticketType:ticketType, quantity:quantity, user:msg.sender, price:price});\r\n      eventStore[id].selling.push(item);\r\n    }\r\n    function cancelSellingTicket(bytes32 id, bytes32 ticketType, uint quantity){\r\n      //rimuove dalla vendita i biglietti\r\n      uint i;\r\n      for(i=0;i<eventStore[id].selling.length;i++){\r\n        if(eventStore[id].selling[i].user==msg.sender && eventStore[id].selling[i].ticketType==ticketType){\r\n          if(eventStore[id].selling[i].quantity>=quantity){\r\n            eventStore[id].selling[i].quantity-=quantity;\r\n            eventStore[id].sold[msg.sender].ticketsQuantity[ticketType]+=quantity;\r\n            return;\r\n          }else{\r\n            uint tmp=quantity;\r\n            quantity-=eventStore[id].selling[i].quantity;\r\n            eventStore[id].selling[i].quantity=0;\r\n            eventStore[id].sold[msg.sender].ticketsQuantity[ticketType]+=tmp;\r\n          }\r\n\r\n        }\r\n      }\r\n\r\n    }\r\n\r\n    function buySecond(bytes32 id, bytes32 ticketType, uint quantity, uint i ) payable public{\r\n      //se autorizzato, se prezzo giusto, ecc...\r\n      //rimuovi biglietti dalla vendita\r\n      //aggiungi biglietti al nuovo proprietario\r\n      address sender=msg.sender;\r\n      uint money = msg.value;\r\n      if(users.getUserHash(sender)==0){\r\n        revert();\r\n      }\r\n      if(eventStore[id].maxTicketPerson<quantity){\r\n        revert();\r\n      }\r\n      if(eventStore[id].selling[i].quantity<quantity){\r\n        revert();\r\n      }\r\n\r\n      if(eventStore[id].selling[i].price*quantity==msg.value ){\r\n        eventStore[id].selling[i].quantity-=quantity;\r\n        eventStore[id].sold[msg.sender].ticketsQuantity[ticketType]+=quantity;\r\n        eventStore[id].sold[msg.sender].nTickets+=quantity;\r\n        fund+=money;\r\n      }else{\r\n        revert();\r\n      }\r\n\r\n\r\n    }\r\n    function setEventRefund(bytes32 id, uint perc){\r\n\r\n    }\r\n    function setUserRefund(bytes32 EventId, address user, uint perc){\r\n\r\n    }\r\n    function getRefund(bytes32 idEvento){\r\n      require(eventStore[idEvento].sold[msg.sender].refund);\r\n      uint quantityRef=0;\r\n      for(uint i=0;i<eventStore[idEvento].ticketsType.length;i++){\r\n        if(eventStore[idEvento].sold[msg.sender].ticketsQuantity[eventStore[idEvento].ticketsType[i]]>0){\r\n          quantityRef+=eventStore[idEvento].ticketPrices[i]*eventStore[idEvento].sold[msg.sender].ticketsQuantity[eventStore[idEvento].ticketsType[i]];\r\n          eventStore[idEvento].sold[msg.sender].nTickets-=eventStore[idEvento].sold[msg.sender].ticketsQuantity[eventStore[idEvento].ticketsType[i]];\r\n          eventStore[idEvento].sold[msg.sender].ticketsQuantity[eventStore[idEvento].ticketsType[i]]=0;\r\n        }\r\n      }\r\n      if(quantityRef>0){\r\n        msg.sender.send(quantityRef);\r\n      }\r\n\r\n    }\r\n    uint fund;\r\n    function withdraw() public returns (bool){\r\n      uint amount=fund;\r\n      require(msg.sender==owner);\r\n      fund=0;\r\n      if (!msg.sender.send(amount)) {\r\n        fund = amount;\r\n        return false;\r\n      }\r\n      return true;\r\n    }\r\n    //mapping (uint=> eventObject) public eventsmap;*/\r\n\r\n    function getEventsSize() public returns (uint){\r\n      return events.length;\r\n    }\r\n    function getTicketPrice(bytes32 _id, bytes32 _type) public returns (uint){\r\n      return eventStore[_id].ticketPricesMap[_type];\r\n    }\r\n    function getEventName(bytes32 _id) public returns (bytes32){\r\n      return eventStore[_id].name;\r\n    }\r\n    function getEventTicketPerPerson(bytes32 _id) public returns (uint){\r\n      return eventStore[_id].maxTicketPerson;\r\n    }\r\n    function getEventTicketBought(bytes32 _id, address _addr) public returns (uint){\r\n      return eventStore[_id].sold[_addr].nTickets;\r\n    }\r\n    /*function addReseller(address addr, uint perc, uint ntickets, bytes32 id ) public{\r\n      eventStore[id].resellers[addr].percReturn=perc;\r\n      eventStore[id].resellers[addr].nTickets=ntickets;\r\n      eventStore[id].resellersAddr.push(addr);\r\n    }\r\n    function getResellerLength(bytes32 id) public returns (uint){\r\n      return eventStore[id].resellersAddr.length;\r\n    }\r\n    function getResellerfirstAddr(bytes32 id) public returns (address){\r\n      return eventStore[id].resellersAddr[0];\r\n    }\r\n    function getResellerTicketsAv(bytes32 id) public returns (uint){\r\n      return eventStore[id].resellers[msg.sender].nTickets;\r\n    }*/\r\n    function addEvent(bytes32 _id, bytes32 _name, bytes32[] _ticketsType, uint _maxTicketPerson, uint[] _ticketsPrices, uint[] _ticketsLeft, uint256 _startTimeStamp, uint256 _endTimeStamp) public\r\n    {\r\n        require(msg.sender==owner);\r\n        require(_ticketsType.length==_ticketsPrices.length);\r\n        require(_ticketsPrices.length==_ticketsLeft.length);\r\n        uint i=0;\r\n        for (i=0;i<events.length;i++){\r\n            require(events[i]!=_id);\r\n        }\r\n        events.push(_id);\r\n        eventStore[_id].id=_id;\r\n        eventStore[_id].name=_name;\r\n        eventStore[_id].startTimeStamp=_startTimeStamp;\r\n        eventStore[_id].endTimeStamp=_endTimeStamp;\r\n        eventStore[_id].ticketsType=_ticketsType;\r\n        eventStore[_id].maxTicketPerson=_maxTicketPerson;\r\n        eventStore[_id].ticketPrices=_ticketsPrices;\r\n        eventStore[_id].refund=false;\r\n        for (i=0;i<_ticketsType.length;i++){\r\n            eventStore[_id].ticketPricesMap[_ticketsType[i]]=_ticketsPrices[i];\r\n        }\r\n        for (i=0;i<_ticketsType.length;i++){\r\n            eventStore[_id].ticketLeftMap[_ticketsType[i]]=_ticketsLeft[i];\r\n        }\r\n    }\r\n\r\n   function buy(bytes32 _idEvent, bytes32 _ticketsType, uint _quantity, address _sendFrom, bytes32[] _t) payable public returns (uint) {\r\n        uint money = msg.value;\r\n        address sender;\r\n        uint i=0;\r\n\r\n        if(eventStore[_idEvent].ticketLeftMap[_ticketsType] < _quantity){\r\n            revert();\r\n        }\r\n        if(_t.length>_quantity){\r\n            revert();\r\n        }\r\n\r\n        /*if(eventStore[_idEvent].resellersAddr.length>0){\r\n          if(eventStore[_idEvent].resellers[msg.sender].nTickets<_quantity || _quantity==0){\r\n            revert();\r\n          }*/\r\n        //sender=sendFrom;\r\n        //eventStore[idEvent].resellers[msg.sender].nTickets-=quantity;//va spostato in caso una require vada male\r\n        //}else{\r\n          if(block.timestamp < eventStore[_idEvent].startTimeStamp && block.timestamp > eventStore[_idEvent].endTimeStamp){\r\n            revert();\r\n          }\r\n          if(eventStore[_idEvent].ticketPricesMap[_ticketsType]*_quantity > money || _quantity==0){\r\n            revert();\r\n          }\r\n          sender=msg.sender;\r\n        //}\r\n\r\n          if(eventStore[_idEvent].sold[sender].nTickets+_quantity>eventStore[_idEvent].maxTicketPerson){\r\n              revert();\r\n          }\r\n\r\n        if(users.isUserValidated(sender)==false){\r\n          revert();\r\n        }\r\n\r\n        eventStore[_idEvent].ticketLeftMap[_ticketsType]-=_quantity;\r\n        eventStore[_idEvent].sold[sender].ticketsQuantity[_ticketsType]+=_quantity;\r\n        eventStore[_idEvent].sold[sender].nTickets+=_quantity;\r\n\r\n        for (i=0;i<_quantity;i++){\r\n            if(eventStore[_idEvent].sold[sender].ticketsID[_ticketsType].length==0){\r\n                eventStore[_idEvent].sold[sender].t.push(_t[i]);\r\n            }\r\n            eventStore[_idEvent].sold[sender].ticketsID[_ticketsType].push(_t[i]);\r\n        }\r\n\r\n        fund+=money;\r\n  }\r\n}\r\n",
  "sourcePath": "C:\\Users\\Pietro\\ticketingeth\\contracts\\contracts\\Events.sol",
  "compiler": {
    "name": "solc",
    "version": "0.4.19+commit.c4cbbb05.Emscripten.clang"
  },
  "schemaVersion": "2.0.0",
  "updatedAt": "2018-09-26T17:20:32.664Z"
}