{
  "contractName": "Events",
  "abi": [
    {
      "constant": true,
      "inputs": [],
      "name": "owner",
      "outputs": [
        {
          "name": "",
          "type": "address"
        }
      ],
      "payable": false,
      "stateMutability": "view",
      "type": "function"
    },
    {
      "inputs": [
        {
          "name": "_userContract",
          "type": "address"
        }
      ],
      "payable": false,
      "stateMutability": "nonpayable",
      "type": "constructor"
    },
    {
      "constant": false,
      "inputs": [
        {
          "name": "_idEvent",
          "type": "bytes32"
        },
        {
          "name": "_ticketsType",
          "type": "bytes32"
        },
        {
          "name": "_quantity",
          "type": "uint256"
        },
        {
          "name": "_t",
          "type": "bytes32[]"
        }
      ],
      "name": "cancelSellingTicket",
      "outputs": [],
      "payable": false,
      "stateMutability": "nonpayable",
      "type": "function"
    },
    {
      "constant": false,
      "inputs": [
        {
          "name": "_idEvent",
          "type": "bytes32"
        },
        {
          "name": "_ticketsType",
          "type": "bytes32"
        },
        {
          "name": "_quantity",
          "type": "uint256"
        },
        {
          "name": "_i",
          "type": "uint256"
        },
        {
          "name": "_t",
          "type": "bytes32[]"
        }
      ],
      "name": "buySecond",
      "outputs": [],
      "payable": true,
      "stateMutability": "payable",
      "type": "function"
    },
    {
      "constant": false,
      "inputs": [
        {
          "name": "_idEvent",
          "type": "bytes32"
        },
        {
          "name": "_ticketsType",
          "type": "bytes32"
        },
        {
          "name": "_refundAmount",
          "type": "uint256"
        }
      ],
      "name": "setRefundByType",
      "outputs": [],
      "payable": false,
      "stateMutability": "nonpayable",
      "type": "function"
    },
    {
      "constant": false,
      "inputs": [
        {
          "name": "_idEvent",
          "type": "bytes32"
        },
        {
          "name": "_ticketsType",
          "type": "bytes32"
        },
        {
          "name": "_user",
          "type": "address"
        },
        {
          "name": "_quantity",
          "type": "uint256"
        },
        {
          "name": "refundAmount",
          "type": "uint256"
        }
      ],
      "name": "setSingleRefund",
      "outputs": [],
      "payable": false,
      "stateMutability": "nonpayable",
      "type": "function"
    },
    {
      "constant": false,
      "inputs": [],
      "name": "getEventsSize",
      "outputs": [
        {
          "name": "",
          "type": "uint256"
        }
      ],
      "payable": false,
      "stateMutability": "nonpayable",
      "type": "function"
    },
    {
      "constant": false,
      "inputs": [
        {
          "name": "_idEvent",
          "type": "bytes32"
        },
        {
          "name": "_type",
          "type": "bytes32"
        }
      ],
      "name": "getTicketPrice",
      "outputs": [
        {
          "name": "",
          "type": "uint256"
        }
      ],
      "payable": false,
      "stateMutability": "nonpayable",
      "type": "function"
    },
    {
      "constant": false,
      "inputs": [
        {
          "name": "_idEvent",
          "type": "bytes32"
        }
      ],
      "name": "getEventName",
      "outputs": [
        {
          "name": "",
          "type": "bytes32"
        }
      ],
      "payable": false,
      "stateMutability": "nonpayable",
      "type": "function"
    },
    {
      "constant": false,
      "inputs": [
        {
          "name": "_idEvent",
          "type": "bytes32"
        }
      ],
      "name": "getEventTicketPerPerson",
      "outputs": [
        {
          "name": "",
          "type": "uint256"
        }
      ],
      "payable": false,
      "stateMutability": "nonpayable",
      "type": "function"
    },
    {
      "constant": false,
      "inputs": [
        {
          "name": "_idEvent",
          "type": "bytes32"
        },
        {
          "name": "_addr",
          "type": "address"
        }
      ],
      "name": "getEventTicketBought",
      "outputs": [
        {
          "name": "",
          "type": "uint256"
        }
      ],
      "payable": false,
      "stateMutability": "nonpayable",
      "type": "function"
    },
    {
      "constant": false,
      "inputs": [
        {
          "name": "_addr",
          "type": "address"
        },
        {
          "name": "_idEvent",
          "type": "bytes32"
        }
      ],
      "name": "addReseller",
      "outputs": [],
      "payable": false,
      "stateMutability": "nonpayable",
      "type": "function"
    },
    {
      "constant": false,
      "inputs": [
        {
          "name": "_idEvent",
          "type": "bytes32"
        }
      ],
      "name": "getResellerLength",
      "outputs": [
        {
          "name": "",
          "type": "uint256"
        }
      ],
      "payable": false,
      "stateMutability": "nonpayable",
      "type": "function"
    },
    {
      "constant": false,
      "inputs": [
        {
          "name": "_idEvent",
          "type": "bytes32"
        },
        {
          "name": "_resellerIndex",
          "type": "uint256"
        }
      ],
      "name": "getResellerfirstAddr",
      "outputs": [
        {
          "name": "",
          "type": "address"
        }
      ],
      "payable": false,
      "stateMutability": "nonpayable",
      "type": "function"
    },
    {
      "constant": false,
      "inputs": [
        {
          "name": "_idEvent",
          "type": "bytes32"
        },
        {
          "name": "_t",
          "type": "bytes32[]"
        },
        {
          "name": "_quantity",
          "type": "uint256[]"
        },
        {
          "name": "_ticketsType",
          "type": "bytes32"
        },
        {
          "name": "_ticketsPrice",
          "type": "uint256"
        }
      ],
      "name": "sellTickets",
      "outputs": [],
      "payable": false,
      "stateMutability": "nonpayable",
      "type": "function"
    },
    {
      "constant": false,
      "inputs": [
        {
          "name": "_idEvent",
          "type": "bytes32"
        },
        {
          "name": "_name",
          "type": "bytes32"
        },
        {
          "name": "_ticketsType",
          "type": "bytes32[]"
        },
        {
          "name": "_maxTicketPerson",
          "type": "uint256"
        },
        {
          "name": "_ticketsPrices",
          "type": "uint256[]"
        },
        {
          "name": "_ticketsLeft",
          "type": "uint256[]"
        },
        {
          "name": "_startTimeStamp",
          "type": "uint256"
        },
        {
          "name": "_endTimeStamp",
          "type": "uint256"
        },
        {
          "name": "_lowSecMarket",
          "type": "uint256[]"
        },
        {
          "name": "_upSecMarket",
          "type": "uint256[]"
        }
      ],
      "name": "addEvent",
      "outputs": [],
      "payable": false,
      "stateMutability": "nonpayable",
      "type": "function"
    },
    {
      "constant": false,
      "inputs": [
        {
          "name": "_idEvent",
          "type": "bytes32"
        },
        {
          "name": "_ticketsType",
          "type": "bytes32"
        },
        {
          "name": "_quantity",
          "type": "uint256"
        },
        {
          "name": "_sentFrom",
          "type": "address"
        },
        {
          "name": "_t",
          "type": "bytes32[]"
        }
      ],
      "name": "buy",
      "outputs": [
        {
          "name": "",
          "type": "uint256"
        }
      ],
      "payable": true,
      "stateMutability": "payable",
      "type": "function"
    }
  ],
  "bytecode": "0x608060405234801561001057600080fd5b506040516020806133a683398101806040528101908080519060200190929190505050806000806101000a81548173ffffffffffffffffffffffffffffffffffffffff021916908373ffffffffffffffffffffffffffffffffffffffff1602179055506000809054906101000a900473ffffffffffffffffffffffffffffffffffffffff16600560006101000a81548173ffffffffffffffffffffffffffffffffffffffff021916908373ffffffffffffffffffffffffffffffffffffffff16021790555033600160006101000a81548173ffffffffffffffffffffffffffffffffffffffff021916908373ffffffffffffffffffffffffffffffffffffffff1602179055506000600381905550506132788061012e6000396000f3006080604052600436106100e6576000357c0100000000000000000000000000000000000000000000000000000000900463ffffffff168063517052a8146100eb57806351bb1ceb1461017457806357ac264e1461022757806366372b6b146102525780636bef23d8146102a35780636d631213146102f057806374fe057d1461049c578063797ed615146105015780638da5cb5b1461057c57806391b63ed5146105d35780639274f693146106465780639506115d1461068f578063958c4731146106d4578063be28121d14610760578063cc79cfd51461082f578063e2442fa114610882575b600080fd5b610172600480360381019080803560001916906020019092919080356000191690602001909291908035906020019092919080359060200190929190803590602001908201803590602001908080602002602001604051908101604052809392919081815260200183836020028082843782019150505050505091929192905050506108c7565b005b6102116004803603810190808035600019169060200190929190803560001916906020019092919080359060200190929190803573ffffffffffffffffffffffffffffffffffffffff1690602001909291908035906020019082018035906020019080806020026020016040519081016040528093929190818152602001838360200280828437820191505050505050919291929050505061123e565b6040518082815260200191505060405180910390f35b34801561023357600080fd5b5061023c611a34565b6040518082815260200191505060405180910390f35b34801561025e57600080fd5b506102a1600480360381019080803573ffffffffffffffffffffffffffffffffffffffff1690602001909291908035600019169060200190929190505050611a41565b005b3480156102af57600080fd5b506102d26004803603810190808035600019169060200190929190505050611b2b565b60405180826000191660001916815260200191505060405180910390f35b3480156102fc57600080fd5b5061049a600480360381019080803560001916906020019092919080356000191690602001909291908035906020019082018035906020019080806020026020016040519081016040528093929190818152602001838360200280828437820191505050505050919291929080359060200190929190803590602001908201803590602001908080602002602001604051908101604052809392919081815260200183836020028082843782019150505050505091929192908035906020019082018035906020019080806020026020016040519081016040528093929190818152602001838360200280828437820191505050505050919291929080359060200190929190803590602001909291908035906020019082018035906020019080806020026020016040519081016040528093929190818152602001838360200280828437820191505050505050919291929080359060200190820180359060200190808060200260200160405190810160405280939291908181526020018383602002808284378201915050505050509192919290505050611b53565b005b3480156104a857600080fd5b506104eb6004803603810190808035600019169060200190929190803573ffffffffffffffffffffffffffffffffffffffff169060200190929190505050611f69565b6040518082815260200191505060405180910390f35b34801561050d57600080fd5b5061053a600480360381019080803560001916906020019092919080359060200190929190505050611fd2565b604051808273ffffffffffffffffffffffffffffffffffffffff1673ffffffffffffffffffffffffffffffffffffffff16815260200191505060405180910390f35b34801561058857600080fd5b50610591612032565b604051808273ffffffffffffffffffffffffffffffffffffffff1673ffffffffffffffffffffffffffffffffffffffff16815260200191505060405180910390f35b3480156105df57600080fd5b5061064460048036038101908080356000191690602001909291908035600019169060200190929190803573ffffffffffffffffffffffffffffffffffffffff1690602001909291908035906020019092919080359060200190929190505050612058565b005b34801561065257600080fd5b5061068d6004803603810190808035600019169060200190929190803560001916906020019092919080359060200190929190505050612233565b005b34801561069b57600080fd5b506106be60048036038101908080356000191690602001909291905050506124b9565b6040518082815260200191505060405180910390f35b3480156106e057600080fd5b5061075e6004803603810190808035600019169060200190929190803560001916906020019092919080359060200190929190803590602001908201803590602001908080602002602001604051908101604052809392919081815260200183836020028082843782019150505050505091929192905050506124e4565b005b34801561076c57600080fd5b5061082d60048036038101908080356000191690602001909291908035906020019082018035906020019080806020026020016040519081016040528093929190818152602001838360200280828437820191505050505050919291929080359060200190820180359060200190808060200260200160405190810160405280939291908181526020018383602002808284378201915050505050509192919290803560001916906020019092919080359060200190929190505050612b80565b005b34801561083b57600080fd5b5061086c600480360381019080803560001916906020019092919080356000191690602001909291905050506130f8565b6040518082815260200191505060405180910390f35b34801561088e57600080fd5b506108b1600480360381019080803560001916906020019092919050505061313a565b6040518082815260200191505060405180910390f35b6000806000806000339450349350600092506000915060001515600560009054906101000a900473ffffffffffffffffffffffffffffffffffffffff1673ffffffffffffffffffffffffffffffffffffffff1663e491f48b876040518263ffffffff167c0100000000000000000000000000000000000000000000000000000000028152600401808273ffffffffffffffffffffffffffffffffffffffff1673ffffffffffffffffffffffffffffffffffffffff168152602001915050602060405180830381600087803b15801561099e57600080fd5b505af11580156109b2573d6000803e3d6000fd5b505050506040513d60208110156109c857600080fd5b8101908080519060200190929190505050151514156109e657600080fd5b8388600460008d6000191660001916815260200190815260200160002060090160008c6000191660001916815260200190815260200160002054021180610a2d5750600088145b15610a3757600080fd5b600091505b600460008b60001916600019168152602001908152602001600020600e0180549050821015610b44578473ffffffffffffffffffffffffffffffffffffffff16600460008c60001916600019168152602001908152602001600020600e0183815481101515610aa757fe5b906000526020600020906004020160000160009054906101000a900473ffffffffffffffffffffffffffffffffffffffff1673ffffffffffffffffffffffffffffffffffffffff161415610b3757600460008b60001916600019168152602001908152602001600020600e0182815481101515610b2057fe5b906000526020600020906004020160030154830192505b8180600101925050610a3c565b600460008b60001916600019168152602001908152602001600020600501548389600460008e6000191660001916815260200190815260200160002060070160008973ffffffffffffffffffffffffffffffffffffffff1673ffffffffffffffffffffffffffffffffffffffff1681526020019081526020016000206001015401011115610bd157600080fd5b87600460008c60001916600019168152602001908152602001600020600e0188815481101515610bfd57fe5b906000526020600020906004020160020160008b60001916600019168152602001908152602001600020541015610c3357600080fd5b878651141515610c4257600080fd5b8388600460008d60001916600019168152602001908152602001600020600e0189815481101515610c6f57fe5b906000526020600020906004020160010160008c600019166000191681526020019081526020016000205402141561122d5787600460008c60001916600019168152602001908152602001600020600e0188815481101515610ccd57fe5b906000526020600020906004020160020160008b600019166000191681526020019081526020016000206000828254039250508190555087600460008c6000191660001916815260200190815260200160002060070160008773ffffffffffffffffffffffffffffffffffffffff1673ffffffffffffffffffffffffffffffffffffffff16815260200190815260200160002060000160008b600019166000191681526020019081526020016000206000828254019250508190555087600460008c6000191660001916815260200190815260200160002060070160008773ffffffffffffffffffffffffffffffffffffffff1673ffffffffffffffffffffffffffffffffffffffff16815260200190815260200160002060010160008282540192505081905550600091505b87821015611035576000600460008c6000191660001916815260200190815260200160002060070160008773ffffffffffffffffffffffffffffffffffffffff1673ffffffffffffffffffffffffffffffffffffffff16815260200190815260200160002060030160008b6000191660001916815260200190815260200160002060008885815181101515610e8b57fe5b9060200190602002015160001916600019168152602001908152602001600020541415610f7157600460008b6000191660001916815260200190815260200160002060070160008673ffffffffffffffffffffffffffffffffffffffff1673ffffffffffffffffffffffffffffffffffffffff16815260200190815260200160002060020160008a600019166000191681526020019081526020016000208683815181101515610f3757fe5b9060200190602002015190806001815401808255809150509060018203906000526020600020016000909192909190915090600019169055505b600460008b6000191660001916815260200190815260200160002060070160008673ffffffffffffffffffffffffffffffffffffffff1673ffffffffffffffffffffffffffffffffffffffff16815260200190815260200160002060030160008a6000191660001916815260200190815260200160002060008784815181101515610ff857fe5b9060200190602002015160001916600019168152602001908152602001600020600081548092919060010191905055508180600101925050610dfa565b60009050600091505b600460008b6000191660001916815260200190815260200160002060080180549050821015611102578473ffffffffffffffffffffffffffffffffffffffff16600460008c60001916600019168152602001908152602001600020600801838154811015156110a957fe5b9060005260206000200160009054906101000a900473ffffffffffffffffffffffffffffffffffffffff1673ffffffffffffffffffffffffffffffffffffffff1614156110f557600190505b818060010192505061103e565b80151561118c57600460008b600019166000191681526020019081526020016000206008018590806001815401808255809150509060018203906000526020600020016000909192909190916101000a81548173ffffffffffffffffffffffffffffffffffffffff021916908373ffffffffffffffffffffffffffffffffffffffff160217905550505b600460008b60001916600019168152602001908152602001600020600e01878154811015156111b757fe5b906000526020600020906004020160000160009054906101000a900473ffffffffffffffffffffffffffffffffffffffff1673ffffffffffffffffffffffffffffffffffffffff166108fc859081150290604051600060405180830381858888f19350505050151561122857600080fd5b611232565b600080fd5b50505050505050505050565b6000806000806000806000349550600093506000925089600460008e60001916600019168152602001908152602001600020600a0160008d6000191660001916815260200190815260200160002054101561129857600080fd5b89885111156112a657600080fd5b6000600460008e60001916600019168152602001908152602001600020600c018054905011156113bb576001600460008e60001916600019168152602001908152602001600020600b0160003373ffffffffffffffffffffffffffffffffffffffff1673ffffffffffffffffffffffffffffffffffffffff16815260200190815260200160002060000154108061133d575060008a145b1561134757600080fd5b88945089600460008e60001916600019168152602001908152602001600020600b0160003373ffffffffffffffffffffffffffffffffffffffff1673ffffffffffffffffffffffffffffffffffffffff168152602001908152602001600020600001600082825401925050819055506115ce565b339450600460008d6000191660001916815260200190815260200160002060020154421080156114085750600460008d600019166000191681526020019081526020016000206003015442115b1561141257600080fd5b858a600460008f6000191660001916815260200190815260200160002060090160008e6000191660001916815260200190815260200160002054021180611459575060008a145b1561146357600080fd5b600460008d6000191660001916815260200190815260200160002060070160008673ffffffffffffffffffffffffffffffffffffffff1673ffffffffffffffffffffffffffffffffffffffff1681526020019081526020016000209150600093505b600460008d60001916600019168152602001908152602001600020600e01805490508410156115cd578473ffffffffffffffffffffffffffffffffffffffff16600460008e60001916600019168152602001908152602001600020600e018581548110151561153057fe5b906000526020600020906004020160000160009054906101000a900473ffffffffffffffffffffffffffffffffffffffff1673ffffffffffffffffffffffffffffffffffffffff1614156115c057600460008d60001916600019168152602001908152602001600020600e01848154811015156115a957fe5b906000526020600020906004020160030154830192505b83806001019450506114c5565b5b600460008d6000191660001916815260200190815260200160002060050154838b84600101540101111561160157600080fd5b60001515600560009054906101000a900473ffffffffffffffffffffffffffffffffffffffff1673ffffffffffffffffffffffffffffffffffffffff1663e491f48b876040518263ffffffff167c0100000000000000000000000000000000000000000000000000000000028152600401808273ffffffffffffffffffffffffffffffffffffffff1673ffffffffffffffffffffffffffffffffffffffff168152602001915050602060405180830381600087803b1580156116c257600080fd5b505af11580156116d6573d6000803e3d6000fd5b505050506040513d60208110156116ec57600080fd5b81019080805190602001909291905050501515141561170a57600080fd5b60009050600093505b600460008d60001916600019168152602001908152602001600020600801805490508410156117d7578473ffffffffffffffffffffffffffffffffffffffff16600460008e600019166000191681526020019081526020016000206008018581548110151561177e57fe5b9060005260206000200160009054906101000a900473ffffffffffffffffffffffffffffffffffffffff1673ffffffffffffffffffffffffffffffffffffffff1614156117ca57600190505b8380600101945050611713565b80151561186157600460008d600019166000191681526020019081526020016000206008018590806001815401808255809150509060018203906000526020600020016000909192909190916101000a81548173ffffffffffffffffffffffffffffffffffffffff021916908373ffffffffffffffffffffffffffffffffffffffff160217905550505b89600460008e60001916600019168152602001908152602001600020600a0160008d6000191660001916815260200190815260200160002060008282540392505081905550898260000160008d6000191660001916815260200190815260200160002060008282540192505081905550898260010160008282540192505081905550600093505b89841015611a155760008260030160008d6000191660001916815260200190815260200160002060008a8781518110151561191f57fe5b90602001906020020151600019166000191681526020019081526020016000205414156119ab578160020160008c60001916600019168152602001908152602001600020888581518110151561197157fe5b9060200190602002015190806001815401808255809150509060018203906000526020600020016000909192909190915090600019169055505b8160030160008c60001916600019168152602001908152602001600020600089868151811015156119d857fe5b90602001906020020151600019166000191681526020019081526020016000206000815480929190600101919050555083806001019450506118e8565b8560036000828254019250508190555050505050505095945050505050565b6000600280549050905090565b6001600460008360001916600019168152602001908152602001600020600b0160008473ffffffffffffffffffffffffffffffffffffffff1673ffffffffffffffffffffffffffffffffffffffff16815260200190815260200160002060000181905550600460008260001916600019168152602001908152602001600020600c018290806001815401808255809150509060018203906000526020600020016000909192909190916101000a81548173ffffffffffffffffffffffffffffffffffffffff021916908373ffffffffffffffffffffffffffffffffffffffff160217905550505050565b6000600460008360001916600019168152602001908152602001600020600101549050919050565b6000600160009054906101000a900473ffffffffffffffffffffffffffffffffffffffff1673ffffffffffffffffffffffffffffffffffffffff163373ffffffffffffffffffffffffffffffffffffffff16141515611bb157600080fd5b86518951141515611bc157600080fd5b85518751141515611bd157600080fd5b88518351141515611be157600080fd5b88518251141515611bf157600080fd5b60009050600090505b600280549050811015611c44578a60001916600282815481101515611c1b57fe5b90600052602060002001546000191614151515611c3757600080fd5b8080600101915050611bfa565b60028b90806001815401808255809150509060018203906000526020600020016000909192909190915090600019169055508a600460008d60001916600019168152602001908152602001600020600001816000191690555089600460008d60001916600019168152602001908152602001600020600101816000191690555084600460008d600019166000191681526020019081526020016000206002018190555083600460008d600019166000191681526020019081526020016000206003018190555088600460008d600019166000191681526020019081526020016000206004019080519060200190611d3c929190613162565b5087600460008d600019166000191681526020019081526020016000206005018190555086600460008d600019166000191681526020019081526020016000206006019080519060200190611d929291906131b5565b50600090505b8851811015611f5c578681815181101515611daf57fe5b90602001906020020151600460008d6000191660001916815260200190815260200160002060090160008b84815181101515611de757fe5b9060200190602002015160001916600019168152602001908152602001600020819055508581815181101515611e1957fe5b90602001906020020151600460008d60001916600019168152602001908152602001600020600a0160008b84815181101515611e5157fe5b9060200190602002015160001916600019168152602001908152602001600020819055508281815181101515611e8357fe5b90602001906020020151600460008d60001916600019168152602001908152602001600020600d0160008b84815181101515611ebb57fe5b9060200190602002015160001916600019168152602001908152602001600020600001819055508181815181101515611ef057fe5b90602001906020020151600460008d60001916600019168152602001908152602001600020600d0160008b84815181101515611f2857fe5b9060200190602002015160001916600019168152602001908152602001600020600101819055508080600101915050611d98565b5050505050505050505050565b600060046000846000191660001916815260200190815260200160002060070160008373ffffffffffffffffffffffffffffffffffffffff1673ffffffffffffffffffffffffffffffffffffffff16815260200190815260200160002060010154905092915050565b6000600460008460001916600019168152602001908152602001600020600c0182815481101515611fff57fe5b9060005260206000200160009054906101000a900473ffffffffffffffffffffffffffffffffffffffff16905092915050565b600160009054906101000a900473ffffffffffffffffffffffffffffffffffffffff1681565b60003373ffffffffffffffffffffffffffffffffffffffff16600160009054906101000a900473ffffffffffffffffffffffffffffffffffffffff1673ffffffffffffffffffffffffffffffffffffffff161415156120b657600080fd5b600090505b6004600087600019166000191681526020019081526020016000206008018054905081101561222b578260046000886000191660001916815260200190815260200160002060070160008673ffffffffffffffffffffffffffffffffffffffff1673ffffffffffffffffffffffffffffffffffffffff168152602001908152602001600020600001600087600019166000191681526020019081526020016000205410151561221e578373ffffffffffffffffffffffffffffffffffffffff166108fc60046000896000191660001916815260200190815260200160002060070160008773ffffffffffffffffffffffffffffffffffffffff1673ffffffffffffffffffffffffffffffffffffffff168152602001908152602001600020600001600088600019166000191681526020019081526020016000205484029081150290604051600060405180830381858888f19350505050151561221d57600080fd5b5b80806001019150506120bb565b505050505050565b6000803373ffffffffffffffffffffffffffffffffffffffff16600160009054906101000a900473ffffffffffffffffffffffffffffffffffffffff1673ffffffffffffffffffffffffffffffffffffffff1614151561229257600080fd5b6004600086600019166000191681526020019081526020016000206008019150600090505b81805490508110156124b2576000600460008760001916600019168152602001908152602001600020600701600084848154811015156122f357fe5b9060005260206000200160009054906101000a900473ffffffffffffffffffffffffffffffffffffffff1673ffffffffffffffffffffffffffffffffffffffff1673ffffffffffffffffffffffffffffffffffffffff168152602001908152602001600020600001600086600019166000191681526020019081526020016000205411156124a557818181548110151561238957fe5b9060005260206000200160009054906101000a900473ffffffffffffffffffffffffffffffffffffffff1673ffffffffffffffffffffffffffffffffffffffff166108fc600460008860001916600019168152602001908152602001600020600701600085858154811015156123fb57fe5b9060005260206000200160009054906101000a900473ffffffffffffffffffffffffffffffffffffffff1673ffffffffffffffffffffffffffffffffffffffff1673ffffffffffffffffffffffffffffffffffffffff168152602001908152602001600020600001600087600019166000191681526020019081526020016000205485029081150290604051600060405180830381858888f1935050505015156124a457600080fd5b5b80806001019150506122b7565b5050505050565b6000600460008360001916600019168152602001908152602001600020600c01805490509050919050565b60008060008060009350600091505b600460008960001916600019168152602001908152602001600020600e0180549050821015612845573373ffffffffffffffffffffffffffffffffffffffff16600460008a60001916600019168152602001908152602001600020600e018381548110151561255e57fe5b906000526020600020906004020160000160009054906101000a900473ffffffffffffffffffffffffffffffffffffffff1673ffffffffffffffffffffffffffffffffffffffff161415612838576000600460008a60001916600019168152602001908152602001600020600e01838154811015156125d957fe5b90600052602060002090600402016002016000896000191660001916815260200190815260200160002054111561283757600460008960001916600019168152602001908152602001600020600e018281548110151561263557fe5b9060005260206000209060040201600201600088600019166000191681526020019081526020016000205484019350828290806001815401808255809150509060018203906000526020600020016000909192909190915055508584111561283657600090505b82805490508110156128315783600460008a60001916600019168152602001908152602001600020600e01838154811015156126d457fe5b906000526020600020906004020160020160008960001916600019168152602001908152602001600020541115156127c057600460008960001916600019168152602001908152602001600020600e018281548110151561273157fe5b90600052602060002090600402016002016000886000191660001916815260200190815260200160002054840393506000600460008a60001916600019168152602001908152602001600020600e018381548110151561278d57fe5b90600052602060002090600402016002016000896000191660001916815260200190815260200160002081905550612824565b83600460008a60001916600019168152602001908152602001600020600e01838154811015156127ec57fe5b906000526020600020906004020160020160008960001916600019168152602001908152602001600020600082825403925050819055505b808060010191505061269c565b612845565b5b5b81806001019250506124f3565b85600460008a6000191660001916815260200190815260200160002060070160003373ffffffffffffffffffffffffffffffffffffffff1673ffffffffffffffffffffffffffffffffffffffff168152602001908152602001600020600001600089600019166000191681526020019081526020016000206000828254019250508190555085600460008a6000191660001916815260200190815260200160002060070160003373ffffffffffffffffffffffffffffffffffffffff1673ffffffffffffffffffffffffffffffffffffffff16815260200190815260200160002060010160008282540192505081905550600091505b85821015612b76576000600460008a6000191660001916815260200190815260200160002060070160003373ffffffffffffffffffffffffffffffffffffffff1673ffffffffffffffffffffffffffffffffffffffff16815260200190815260200160002060030160008960001916600019168152602001908152602001600020600087858151811015156129cc57fe5b9060200190602002015160001916600019168152602001908152602001600020541415612ab25760046000896000191660001916815260200190815260200160002060070160003373ffffffffffffffffffffffffffffffffffffffff1673ffffffffffffffffffffffffffffffffffffffff168152602001908152602001600020600201600088600019166000191681526020019081526020016000208583815181101515612a7857fe5b9060200190602002015190806001815401808255809150509060018203906000526020600020016000909192909190915090600019169055505b60046000896000191660001916815260200190815260200160002060070160003373ffffffffffffffffffffffffffffffffffffffff1673ffffffffffffffffffffffffffffffffffffffff1681526020019081526020016000206003016000886000191660001916815260200190815260200160002060008684815181101515612b3957fe5b906020019060200201516000191660001916815260200190815260200160002060008154809291906001019190505550818060010192505061293b565b5050505050505050565b600080600083600460008a60001916600019168152602001908152602001600020600d01600087600019166000191681526020019081526020016000206000015411151515612bce57600080fd5b83600460008a60001916600019168152602001908152602001600020600d01600087600019166000191681526020019081526020016000206001015410151515612c1757600080fd5b8651600460008a6000191660001916815260200190815260200160002060070160003373ffffffffffffffffffffffffffffffffffffffff1673ffffffffffffffffffffffffffffffffffffffff168152602001908152602001600020600001600087600019166000191681526020019081526020016000205410151515612c9e57600080fd5b85518751141515612cae57600080fd5b600092505b8651831015612e60578583815181101515612cca57fe5b90602001906020020151600460008a6000191660001916815260200190815260200160002060070160003373ffffffffffffffffffffffffffffffffffffffff1673ffffffffffffffffffffffffffffffffffffffff1681526020019081526020016000206003016000876000191660001916815260200190815260200160002060008986815181101515612d5b57fe5b9060200190602002015160001916600019168152602001908152602001600020541015612d8757600080fd5b8583815181101515612d9557fe5b90602001906020020151600460008a6000191660001916815260200190815260200160002060070160003373ffffffffffffffffffffffffffffffffffffffff1673ffffffffffffffffffffffffffffffffffffffff1681526020019081526020016000206003016000876000191660001916815260200190815260200160002060008986815181101515612e2657fe5b9060200190602002015160001916600019168152602001908152602001600020600082825403925050819055508280600101935050612cb3565b8651600460008a6000191660001916815260200190815260200160002060070160003373ffffffffffffffffffffffffffffffffffffffff1673ffffffffffffffffffffffffffffffffffffffff16815260200190815260200160002060000160008760001916600019168152602001908152602001600020600082825403925050819055508651600460008a6000191660001916815260200190815260200160002060070160003373ffffffffffffffffffffffffffffffffffffffff1673ffffffffffffffffffffffffffffffffffffffff16815260200190815260200160002060010160008282540392505081905550338260000160006101000a81548173ffffffffffffffffffffffffffffffffffffffff021916908373ffffffffffffffffffffffffffffffffffffffff1602179055508382600101600087600019166000191681526020019081526020016000208190555060009050600092505b8551831015612ff3578583815181101515612fd857fe5b90602001906020020151810190508280600101935050612fc1565b80826002016000876000191660001916815260200190815260200160002060008282540192505081905550808260030160008282540192505081905550600460008960001916600019168152602001908152602001600020600e0182908060018154018082558091505090600182039060005260206000209060040201600090919290919091506000820160009054906101000a900473ffffffffffffffffffffffffffffffffffffffff168160000160006101000a81548173ffffffffffffffffffffffffffffffffffffffff021916908373ffffffffffffffffffffffffffffffffffffffff160217905550600382015481600301555050505050505050505050565b60006004600084600019166000191681526020019081526020016000206009016000836000191660001916815260200190815260200160002054905092915050565b6000600460008360001916600019168152602001908152602001600020600501549050919050565b8280548282559060005260206000209081019282156131a4579160200282015b828111156131a3578251829060001916905591602001919060010190613182565b5b5090506131b19190613202565b5090565b8280548282559060005260206000209081019282156131f1579160200282015b828111156131f05782518255916020019190600101906131d5565b5b5090506131fe9190613227565b5090565b61322491905b80821115613220576000816000905550600101613208565b5090565b90565b61324991905b8082111561324557600081600090555060010161322d565b5090565b905600a165627a7a7230582003ef010212707ad1ad06bac7533445a5a81c5cee3cf869df82d0ea1f9e7d63440029",
  "source": "pragma solidity ^0.4.19;\nimport \"./ValidatedAddresses.sol\";\n//TODO: getter ticket second market\n//TODO: getter events\n//TODO: cancel every ticket of a type from second markets\ncontract Events {\n    address ValidatedAddressesContract;\n    address public owner;\n    bytes32[] events;\n    uint fund;\n    mapping(bytes32 => eventObject) eventStore;\n    ValidatedAddresses users;\n\n    struct buyer{\n      mapping (bytes32 => uint) ticketsQuantity;//type->quantity\n      uint nTickets;\n      mapping (bytes32 => bytes32[]) t;\n      mapping (bytes32 => mapping (bytes32 => uint) ) ticketsID;\n    }\n    struct sellerSecMarket{\n        address seller;\n        mapping(bytes32 => uint) prices;//type->price\n        mapping (bytes32 => uint) ticketsQuantity;//type->quantity\n        uint nTickets;\n    }\n    struct eventObject{\n      bytes32 id;\n      bytes32 name;\n      uint256 startTimeStamp;\n      uint256 endTimeStamp;\n      bytes32[] ticketsType;\n      uint maxTicketPerson;\n      uint[] ticketPrices;\n      mapping (address => buyer) sold;\n      address[] buyers;\n      mapping (bytes32 => uint) ticketPricesMap;\n      mapping (bytes32 => uint) ticketLeftMap;\n      mapping (address => reseller) resellers;\n      address[] resellersAddr;\n\n      mapping (bytes32 => marketLimit) secMarketLimit;\n      sellerSecMarket[] secondMarket;\n    }\n    struct reseller{\n        uint nTickets;\n    }\n    struct marketLimit{\n        uint lowerLimit;\n        uint upperLimit;\n    }\n\n    function Events(address _userContract) public{\n      ValidatedAddressesContract=_userContract;\n      users=ValidatedAddresses(ValidatedAddressesContract);\n      owner = msg.sender;\n      fund=0;\n    }\n\n    function cancelSellingTicket(bytes32 _idEvent, bytes32 _ticketsType, uint _quantity, bytes32[] _t){\n        uint cont=0;\n        uint[] pos;\n        for(uint i=0; i<eventStore[_idEvent].secondMarket.length;i++){\n          if(eventStore[_idEvent].secondMarket[i].seller==msg.sender){\n              if(eventStore[_idEvent].secondMarket[i].ticketsQuantity[_ticketsType]>0){\n                  cont+=eventStore[_idEvent].secondMarket[i].ticketsQuantity[_ticketsType];\n                  pos.push(i);\n                  if(cont>_quantity){\n                      for(uint k=0;k<pos.length;k++){\n                          if(eventStore[_idEvent].secondMarket[i].ticketsQuantity[_ticketsType]<=cont){\n                              cont-=eventStore[_idEvent].secondMarket[i].ticketsQuantity[_ticketsType];\n                              eventStore[_idEvent].secondMarket[i].ticketsQuantity[_ticketsType]=0;\n                          }else{\n                              eventStore[_idEvent].secondMarket[i].ticketsQuantity[_ticketsType]-=cont;\n                          }\n                      }\n                      break;\n                  }\n              }\n          }\n        }\n        eventStore[_idEvent].sold[msg.sender].ticketsQuantity[_ticketsType]+=_quantity;\n        eventStore[_idEvent].sold[msg.sender].nTickets+=_quantity;\n        for (i=0;i<_quantity;i++){\n            if(eventStore[_idEvent].sold[msg.sender].ticketsID[_ticketsType][_t[i]]==0){\n                eventStore[_idEvent].sold[msg.sender].t[_ticketsType].push(_t[i]);\n            }\n            eventStore[_idEvent].sold[msg.sender].ticketsID[_ticketsType][_t[i]]++;\n        }\n    }\n\n    function buySecond(bytes32 _idEvent, bytes32 _ticketsType, uint _quantity, uint _i, bytes32[] _t ) payable public{\n      address sender=msg.sender;\n      uint money = msg.value;\n      uint onSale=0;\n      uint i=0;\n      if(users.isUserValidated(sender)==false){\n        revert();\n      }\n      if(eventStore[_idEvent].ticketPricesMap[_ticketsType]*_quantity > money || _quantity==0){\n        revert();\n      }\n      for(i=0;i<eventStore[_idEvent].secondMarket.length;i++){\n          if(eventStore[_idEvent].secondMarket[i].seller==sender){\n              onSale+=eventStore[_idEvent].secondMarket[i].nTickets;\n          }\n      }\n      if(eventStore[_idEvent].sold[sender].nTickets+_quantity+onSale>eventStore[_idEvent].maxTicketPerson){\n          revert();\n      }\n      if(eventStore[_idEvent].secondMarket[_i].ticketsQuantity[_ticketsType]<_quantity){\n        revert();\n      }\n      if(_t.length!=_quantity){\n          revert();\n      }\n      if(eventStore[_idEvent].secondMarket[_i].prices[_ticketsType]*_quantity==money ){\n        eventStore[_idEvent].secondMarket[_i].ticketsQuantity[_ticketsType]-=_quantity;\n\n        eventStore[_idEvent].sold[sender].ticketsQuantity[_ticketsType]+=_quantity;\n        eventStore[_idEvent].sold[sender].nTickets+=_quantity;\n        for (i=0;i<_quantity;i++){\n            if(eventStore[_idEvent].sold[sender].ticketsID[_ticketsType][_t[i]]==0){\n                eventStore[_idEvent].sold[sender].t[_ticketsType].push(_t[i]);\n            }\n            eventStore[_idEvent].sold[sender].ticketsID[_ticketsType][_t[i]]++;\n        }\n        bool already=false;\n        for (i=0;i<eventStore[_idEvent].buyers.length;i++){\n            if(eventStore[_idEvent].buyers[i]==sender){\n                already=true;\n            }\n        }\n        if(!already){\n            eventStore[_idEvent].buyers.push(sender);\n        }\n        if(!eventStore[_idEvent].secondMarket[_i].seller.send(money)){\n            revert();\n        }\n      }else{\n        revert();\n      }\n    }\n\n    //before can be useful to cancel every ticket of taht type on second market\n    function setRefundByType(bytes32 _idEvent, bytes32 _ticketsType, uint _refundAmount) public{\n        require(owner==msg.sender);\n        address[] buyers=eventStore[_idEvent].buyers;\n        for(uint i=0;i<buyers.length;i++){\n            if(eventStore[_idEvent].sold[buyers[i]].ticketsQuantity[_ticketsType]>0){\n                if(!buyers[i].send(_refundAmount*eventStore[_idEvent].sold[buyers[i]].ticketsQuantity[_ticketsType])){\n                    revert();\n                }\n            }\n        }\n    }\n    function setSingleRefund(bytes32 _idEvent, bytes32 _ticketsType, address _user, uint _quantity, uint refundAmount) public{\n        require(owner==msg.sender);\n        for(uint i=0;i<eventStore[_idEvent].buyers.length;i++){\n            if(eventStore[_idEvent].sold[_user].ticketsQuantity[_ticketsType]>=_quantity){\n                if(!_user.send(refundAmount*eventStore[_idEvent].sold[_user].ticketsQuantity[_ticketsType])){\n                    revert();\n                }\n            }\n        }\n    }\n    /*\n    function withdraw() public returns (bool){\n      uint amount=fund;\n      require(msg.sender==owner);\n      fund=0;\n      if (!msg.sender.send(amount)) {\n        fund = amount;\n        return false;\n      }\n      return true;\n    }\n    */\n\n    function getEventsSize() public returns (uint){\n      return events.length;\n    }\n    function getTicketPrice(bytes32 _idEvent, bytes32 _type) public returns (uint){\n      return eventStore[_idEvent].ticketPricesMap[_type];\n    }\n    function getEventName(bytes32 _idEvent) public returns (bytes32){\n      return eventStore[_idEvent].name;\n    }\n    function getEventTicketPerPerson(bytes32 _idEvent) public returns (uint){\n      return eventStore[_idEvent].maxTicketPerson;\n    }\n    function getEventTicketBought(bytes32 _idEvent, address _addr) public returns (uint){\n      return eventStore[_idEvent].sold[_addr].nTickets;\n    }\n    function addReseller(address _addr,  bytes32 _idEvent ) public{\n        eventStore[_idEvent].resellers[_addr].nTickets=1;\n        eventStore[_idEvent].resellersAddr.push(_addr);\n    }\n    function getResellerLength(bytes32 _idEvent) public returns (uint){\n      return eventStore[_idEvent].resellersAddr.length;\n    }\n    function getResellerfirstAddr(bytes32 _idEvent, uint _resellerIndex) public returns (address){\n      return eventStore[_idEvent].resellersAddr[_resellerIndex];\n    }\n\n    //add new object for every new sale\n    //TODO: change old sale instead\n    function sellTickets(bytes32 _idEvent, bytes32[] _t, uint[] _quantity, bytes32 _ticketsType, uint _ticketsPrice ) public{\n        require(eventStore[_idEvent].secMarketLimit[_ticketsType].lowerLimit<=_ticketsPrice);\n        require(eventStore[_idEvent].secMarketLimit[_ticketsType].upperLimit>=_ticketsPrice);\n        require(eventStore[_idEvent].sold[msg.sender].ticketsQuantity[_ticketsType]>=_t.length);\n        require(_t.length==_quantity.length);\n        for(uint i =0; i<_t.length;i++){\n            if(eventStore[_idEvent].sold[msg.sender].ticketsID[_ticketsType][_t[i]]<_quantity[i]){\n                revert();\n            }\n            eventStore[_idEvent].sold[msg.sender].ticketsID[_ticketsType][_t[i]]-=_quantity[i];\n        }\n\n        eventStore[_idEvent].sold[msg.sender].ticketsQuantity[_ticketsType]-=_t.length;\n        eventStore[_idEvent].sold[msg.sender].nTickets-=_t.length;\n\n        //one price for every type of ticket on this sale\n        sellerSecMarket tmp;\n        tmp.seller=msg.sender;\n\n        tmp.prices[_ticketsType]=_ticketsPrice; //modify or set price\n        uint sum=0;\n        for(i=0;i<_quantity.length;i++){\n            sum+=_quantity[i];\n        }\n        tmp.ticketsQuantity[_ticketsType]+=sum;\n        tmp.nTickets+=sum;\n        eventStore[_idEvent].secondMarket.push(tmp);\n    }\n    function addEvent(bytes32 _idEvent, bytes32 _name, bytes32[] _ticketsType, uint _maxTicketPerson, uint[] _ticketsPrices, uint[] _ticketsLeft, uint256 _startTimeStamp, uint256 _endTimeStamp, uint[] _lowSecMarket, uint[] _upSecMarket) public\n    {\n        require(msg.sender==owner);\n        require(_ticketsType.length==_ticketsPrices.length);\n        require(_ticketsPrices.length==_ticketsLeft.length);\n        require(_lowSecMarket.length==_ticketsType.length);\n        require(_upSecMarket.length==_ticketsType.length);\n        uint i=0;\n        for (i=0;i<events.length;i++){\n            require(events[i]!=_idEvent);\n        }\n        events.push(_idEvent);\n        eventStore[_idEvent].id=_idEvent;\n        eventStore[_idEvent].name=_name;\n        eventStore[_idEvent].startTimeStamp=_startTimeStamp;\n        eventStore[_idEvent].endTimeStamp=_endTimeStamp;\n        eventStore[_idEvent].ticketsType=_ticketsType;\n        eventStore[_idEvent].maxTicketPerson=_maxTicketPerson;\n        eventStore[_idEvent].ticketPrices=_ticketsPrices;\n\n        for (i=0;i<_ticketsType.length;i++){\n            eventStore[_idEvent].ticketPricesMap[_ticketsType[i]]=_ticketsPrices[i];\n            eventStore[_idEvent].ticketLeftMap[_ticketsType[i]]=_ticketsLeft[i];\n            eventStore[_idEvent].secMarketLimit[_ticketsType[i]].lowerLimit=_lowSecMarket[i];\n            eventStore[_idEvent].secMarketLimit[_ticketsType[i]].upperLimit=_upSecMarket[i];\n        }\n\n    }\n\n   function buy(bytes32 _idEvent, bytes32 _ticketsType, uint _quantity, address _sentFrom, bytes32[] _t) payable public returns (uint) {\n        uint money = msg.value;\n        address sender;\n        uint i=0;\n        uint onSale=0;\n        buyer eventBuyer;\n        if(eventStore[_idEvent].ticketLeftMap[_ticketsType] < _quantity){\n            revert();\n        }\n        if(_t.length>_quantity){\n            revert();\n        }\n\n        if(eventStore[_idEvent].resellersAddr.length>0){\n            if(eventStore[_idEvent].resellers[msg.sender].nTickets<1 || _quantity==0){\n                revert();\n            }\n            sender=_sentFrom;\n            eventStore[_idEvent].resellers[msg.sender].nTickets+=_quantity;\n        }else{\n            sender=msg.sender;\n            if(block.timestamp < eventStore[_idEvent].startTimeStamp && block.timestamp > eventStore[_idEvent].endTimeStamp){\n                revert();\n            }\n            if(eventStore[_idEvent].ticketPricesMap[_ticketsType]*_quantity > money || _quantity==0){\n                revert();\n            }\n\n            eventBuyer=eventStore[_idEvent].sold[sender];\n            for(i=0;i<eventStore[_idEvent].secondMarket.length;i++){\n              if(eventStore[_idEvent].secondMarket[i].seller==sender){\n                  onSale+=eventStore[_idEvent].secondMarket[i].nTickets;\n              }\n            }\n        }\n\n        if(eventBuyer.nTickets+_quantity+onSale>eventStore[_idEvent].maxTicketPerson){\n            revert();\n        }\n\n        if(users.isUserValidated(sender)==false){\n          revert();\n        }\n        bool already=false;\n        for (i=0;i<eventStore[_idEvent].buyers.length;i++){\n            if(eventStore[_idEvent].buyers[i]==sender){\n                already=true;\n            }\n        }\n        if(!already){\n            eventStore[_idEvent].buyers.push(sender);\n        }\n        eventStore[_idEvent].ticketLeftMap[_ticketsType]-=_quantity;\n        eventBuyer.ticketsQuantity[_ticketsType]+=_quantity;\n        eventBuyer.nTickets+=_quantity;\n\n        for (i=0;i<_quantity;i++){\n            if(eventBuyer.ticketsID[_ticketsType][_t[i]]==0){\n                eventBuyer.t[_ticketsType].push(_t[i]);\n            }\n            eventBuyer.ticketsID[_ticketsType][_t[i]]++;\n        }\n\n        fund+=money;\n  }\n}\n",
  "sourcePath": "C:\\Users\\pcors\\Documents\\ticketh\\ticketingeth\\contracts\\contracts\\Events.sol",
  "compiler": {
    "name": "solc",
    "version": "0.4.24+commit.e67f0147.Emscripten.clang"
  },
  "schemaVersion": "2.0.1",
  "updatedAt": "2018-10-04T12:41:54.130Z"
}