{
  "contractName": "test",
  "abi": [
    {
      "inputs": [],
      "payable": false,
      "stateMutability": "nonpayable",
      "type": "constructor"
    },
    {
      "constant": false,
      "inputs": [],
      "name": "buy",
      "outputs": [],
      "payable": true,
      "stateMutability": "payable",
      "type": "function"
    },
    {
      "constant": false,
      "inputs": [],
      "name": "getMoney",
      "outputs": [],
      "payable": false,
      "stateMutability": "nonpayable",
      "type": "function"
    }
  ],
  "bytecode": "0x608060405234801561001057600080fd5b506000808190555033600160006101000a81548173ffffffffffffffffffffffffffffffffffffffff021916908373ffffffffffffffffffffffffffffffffffffffff16021790555060f1806100676000396000f3006080604052600436106049576000357c0100000000000000000000000000000000000000000000000000000000900463ffffffff16806398e1b41014604e578063a6f2ae3a146062575b600080fd5b348015605957600080fd5b506060606a565b005b606860b4565b005b3373ffffffffffffffffffffffffffffffffffffffff166108fc6000549081150290604051600060405180830381858888f19350505050151560ab57600080fd5b60008081905550565b3460008082825401925050819055505600a165627a7a723058204ad92dd8e0fda652f66a6e7af1b3af6e770c1098c3e6a3cdfe48e5db0f1be9c00029",
  "source": "pragma solidity ^0.4.19;\ncontract test{\nuint fund;\naddress owner;\nfunction test() public{\n    fund=0;\n    owner=msg.sender;\n}\n\nfunction buy() payable public{\n    fund+=msg.value;\n}\nfunction getMoney() public{\n    if(!msg.sender.send(fund)){\n        revert();\n    }\n    fund=0;\n}\n}\n",
  "sourcePath": "C:\\Users\\pcors\\Documents\\ticketh\\ticketingeth\\contracts\\contracts\\test.sol",
  "compiler": {
    "name": "solc",
    "version": "0.4.24+commit.e67f0147.Emscripten.clang"
  },
  "schemaVersion": "2.0.1",
  "updatedAt": "2018-10-04T12:41:54.147Z"
}