{
  "contractName": "test",
  "abi": [
    {
      "inputs": [],
      "payable": false,
      "stateMutability": "nonpayable",
      "type": "constructor"
    },
    {
      "constant": false,
      "inputs": [],
      "name": "buy",
      "outputs": [],
      "payable": true,
      "stateMutability": "payable",
      "type": "function"
    },
    {
      "constant": false,
      "inputs": [],
      "name": "getMoney",
      "outputs": [],
      "payable": false,
      "stateMutability": "nonpayable",
      "type": "function"
    }
  ],
  "bytecode": "0x6060604052341561000f57600080fd5b6000808190555033600160006101000a81548173ffffffffffffffffffffffffffffffffffffffff021916908373ffffffffffffffffffffffffffffffffffffffff16021790555060ef806100656000396000f3006060604052600436106049576000357c0100000000000000000000000000000000000000000000000000000000900463ffffffff16806398e1b41014604e578063a6f2ae3a146060575b600080fd5b3415605857600080fd5b605e6068565b005b606660b2565b005b3373ffffffffffffffffffffffffffffffffffffffff166108fc6000549081150290604051600060405180830381858888f19350505050151560a957600080fd5b60008081905550565b3460008082825401925050819055505600a165627a7a72305820cf76fae9f2a84275aef8906e48783554a3aabef634102fe3580116f911c68d400029",
  "source": "pragma solidity ^0.4.19;\r\ncontract test{\r\nuint fund;\r\naddress owner;\r\nfunction test() public{\r\n    fund=0;\r\n    owner=msg.sender;\r\n}\r\n\r\nfunction buy() payable public{\r\n    fund+=msg.value;\r\n}\r\nfunction getMoney() public{\r\n    if(!msg.sender.send(fund)){\r\n        revert();\r\n    }\r\n    fund=0;\r\n}\r\n}\r\n",
  "sourcePath": "C:\\Users\\Pietro\\ticketingeth\\contracts\\contracts\\test.sol",
  "compiler": {
    "name": "solc",
    "version": "0.4.19+commit.c4cbbb05.Emscripten.clang"
  },
  "schemaVersion": "2.0.0",
  "updatedAt": "2018-09-29T19:12:41.416Z"
}