{
  "contractName": "Tickets",
  "abi": [
    {
      "constant": true,
      "inputs": [],
      "name": "owner",
      "outputs": [
        {
          "name": "",
          "type": "address"
        }
      ],
      "payable": false,
      "stateMutability": "view",
      "type": "function"
    },
    {
      "inputs": [
        {
          "name": "_userContract",
          "type": "address"
        }
      ],
      "payable": false,
      "stateMutability": "nonpayable",
      "type": "constructor"
    },
    {
      "constant": false,
      "inputs": [
        {
          "name": "user",
          "type": "address"
        }
      ],
      "name": "getUserHash",
      "outputs": [
        {
          "name": "",
          "type": "bytes32"
        }
      ],
      "payable": false,
      "stateMutability": "nonpayable",
      "type": "function"
    },
    {
      "constant": false,
      "inputs": [],
      "name": "getEventsSize",
      "outputs": [
        {
          "name": "",
          "type": "uint256"
        }
      ],
      "payable": false,
      "stateMutability": "nonpayable",
      "type": "function"
    },
    {
      "constant": false,
      "inputs": [
        {
          "name": "id",
          "type": "bytes32"
        }
      ],
      "name": "getTicketPrice",
      "outputs": [
        {
          "name": "",
          "type": "uint256"
        }
      ],
      "payable": false,
      "stateMutability": "nonpayable",
      "type": "function"
    },
    {
      "constant": false,
      "inputs": [
        {
          "name": "id",
          "type": "bytes32"
        }
      ],
      "name": "getEventName",
      "outputs": [
        {
          "name": "",
          "type": "bytes32"
        }
      ],
      "payable": false,
      "stateMutability": "nonpayable",
      "type": "function"
    },
    {
      "constant": false,
      "inputs": [
        {
          "name": "id",
          "type": "bytes32"
        }
      ],
      "name": "getEventTicketPerPerson",
      "outputs": [
        {
          "name": "",
          "type": "uint256"
        }
      ],
      "payable": false,
      "stateMutability": "nonpayable",
      "type": "function"
    },
    {
      "constant": false,
      "inputs": [
        {
          "name": "id",
          "type": "bytes32"
        },
        {
          "name": "addr",
          "type": "address"
        }
      ],
      "name": "getEventTicketBought",
      "outputs": [
        {
          "name": "",
          "type": "uint256"
        }
      ],
      "payable": false,
      "stateMutability": "nonpayable",
      "type": "function"
    },
    {
      "constant": false,
      "inputs": [
        {
          "name": "addr",
          "type": "address"
        },
        {
          "name": "perc",
          "type": "uint256"
        },
        {
          "name": "ntickets",
          "type": "uint256"
        },
        {
          "name": "id",
          "type": "bytes32"
        }
      ],
      "name": "addReseller",
      "outputs": [],
      "payable": false,
      "stateMutability": "nonpayable",
      "type": "function"
    },
    {
      "constant": false,
      "inputs": [
        {
          "name": "id",
          "type": "bytes32"
        }
      ],
      "name": "getResellerLength",
      "outputs": [
        {
          "name": "",
          "type": "uint256"
        }
      ],
      "payable": false,
      "stateMutability": "nonpayable",
      "type": "function"
    },
    {
      "constant": false,
      "inputs": [
        {
          "name": "id",
          "type": "bytes32"
        }
      ],
      "name": "getResellerfirstAddr",
      "outputs": [
        {
          "name": "",
          "type": "address"
        }
      ],
      "payable": false,
      "stateMutability": "nonpayable",
      "type": "function"
    },
    {
      "constant": false,
      "inputs": [
        {
          "name": "id",
          "type": "bytes32"
        }
      ],
      "name": "getResellerTicketsAv",
      "outputs": [
        {
          "name": "",
          "type": "uint256"
        }
      ],
      "payable": false,
      "stateMutability": "nonpayable",
      "type": "function"
    },
    {
      "constant": false,
      "inputs": [
        {
          "name": "_id",
          "type": "bytes32"
        },
        {
          "name": "_name",
          "type": "bytes32"
        },
        {
          "name": "_ticketsType",
          "type": "bytes32[]"
        },
        {
          "name": "_maxTicketPerson",
          "type": "uint256"
        },
        {
          "name": "_ticketPrices",
          "type": "uint256[]"
        },
        {
          "name": "_ticketLeft",
          "type": "uint256[]"
        }
      ],
      "name": "addEvent",
      "outputs": [],
      "payable": false,
      "stateMutability": "nonpayable",
      "type": "function"
    },
    {
      "constant": false,
      "inputs": [
        {
          "name": "idEvent",
          "type": "bytes32"
        },
        {
          "name": "typeTicket",
          "type": "bytes32"
        },
        {
          "name": "quantity",
          "type": "uint256"
        },
        {
          "name": "sendFrom",
          "type": "address"
        }
      ],
      "name": "buy",
      "outputs": [
        {
          "name": "",
          "type": "uint256"
        }
      ],
      "payable": true,
      "stateMutability": "payable",
      "type": "function"
    }
  ],
  "bytecode": "0x6060604052341561000f57600080fd5b6040516020806111c983398101604052808051906020019091905050806000806101000a81548173ffffffffffffffffffffffffffffffffffffffff021916908373ffffffffffffffffffffffffffffffffffffffff1602179055506000809054906101000a900473ffffffffffffffffffffffffffffffffffffffff16600460006101000a81548173ffffffffffffffffffffffffffffffffffffffff021916908373ffffffffffffffffffffffffffffffffffffffff16021790555033600160006101000a81548173ffffffffffffffffffffffffffffffffffffffff021916908373ffffffffffffffffffffffffffffffffffffffff160217905550506110ab8061011e6000396000f3006060604052600436106100c5576000357c0100000000000000000000000000000000000000000000000000000000900463ffffffff168063053bcf9a146100ca5780632880487c1461010557806357ac264e14610202578063643774521461022b5780636bef23d81461028057806374fe057d146102c357806378ccbd1e1461031d5780638da5cb5b146103845780639506115d146103d957806398bb387b14610414578063c73a839c1461046c578063cc06146e146104a7578063e2442fa11461050c575b600080fd5b34156100d557600080fd5b6100ef600480803560001916906020019091905050610547565b6040518082815260200191505060405180910390f35b341561011057600080fd5b610200600480803560001916906020019091908035600019169060200190919080359060200190820180359060200190808060200260200160405190810160405280939291908181526020018383602002808284378201915050505050509190803590602001909190803590602001908201803590602001908080602002602001604051908101604052809392919081815260200183836020028082843782019150505050505091908035906020019082018035906020019080806020026020016040519081016040528093929190818152602001838360200280828437820191505050505050919050506105af565b005b341561020d57600080fd5b6102156106f0565b6040518082815260200191505060405180910390f35b341561023657600080fd5b610262600480803573ffffffffffffffffffffffffffffffffffffffff169060200190919050506106fd565b60405180826000191660001916815260200191505060405180910390f35b341561028b57600080fd5b6102a56004808035600019169060200190919050506107e6565b60405180826000191660001916815260200191505060405180910390f35b34156102ce57600080fd5b61030760048080356000191690602001909190803573ffffffffffffffffffffffffffffffffffffffff1690602001909190505061080e565b6040518082815260200191505060405180910390f35b341561032857600080fd5b610342600480803560001916906020019091905050610877565b604051808273ffffffffffffffffffffffffffffffffffffffff1673ffffffffffffffffffffffffffffffffffffffff16815260200191505060405180910390f35b341561038f57600080fd5b6103976108d8565b604051808273ffffffffffffffffffffffffffffffffffffffff1673ffffffffffffffffffffffffffffffffffffffff16815260200191505060405180910390f35b34156103e457600080fd5b6103fe6004808035600019169060200190919050506108fe565b6040518082815260200191505060405180910390f35b341561041f57600080fd5b61046a600480803573ffffffffffffffffffffffffffffffffffffffff1690602001909190803590602001909190803590602001909190803560001916906020019091905050610929565b005b341561047757600080fd5b610491600480803560001916906020019091905050610a74565b6040518082815260200191505060405180910390f35b6104f66004808035600019169060200190919080356000191690602001909190803590602001909190803573ffffffffffffffffffffffffffffffffffffffff16906020019091905050610ab5565b6040518082815260200191505060405180910390f35b341561051757600080fd5b610531600480803560001916906020019091905050610f15565b6040518082815260200191505060405180910390f35b600060036000836000191660001916815260200190815260200160002060060160003373ffffffffffffffffffffffffffffffffffffffff1673ffffffffffffffffffffffffffffffffffffffff168152602001908152602001600020600101549050919050565b600280548060010182816105c39190610f3d565b91600052602060002090016000889091909150906000191690555085600360008860001916600019168152602001908152602001600020600001816000191690555084600360008860001916600019168152602001908152602001600020600101816000191690555083600360008860001916600019168152602001908152602001600020600201908051906020019061065e929190610f69565b5082600360008860001916600019168152602001908152602001600020600301819055508160036000886000191660001916815260200190815260200160002060040190805190602001906106b4929190610fbc565b508060036000886000191660001916815260200190815260200160002060050190805190602001906106e7929190610fbc565b50505050505050565b6000600280549050905090565b6000600460009054906101000a900473ffffffffffffffffffffffffffffffffffffffff1673ffffffffffffffffffffffffffffffffffffffff166364377452836000604051602001526040518263ffffffff167c0100000000000000000000000000000000000000000000000000000000028152600401808273ffffffffffffffffffffffffffffffffffffffff1673ffffffffffffffffffffffffffffffffffffffff168152602001915050602060405180830381600087803b15156107c457600080fd5b6102c65a03f115156107d557600080fd5b505050604051805190509050919050565b6000600360008360001916600019168152602001908152602001600020600101549050919050565b600060036000846000191660001916815260200190815260200160002060080160008373ffffffffffffffffffffffffffffffffffffffff1673ffffffffffffffffffffffffffffffffffffffff16815260200190815260200160002060010154905092915050565b600060036000836000191660001916815260200190815260200160002060070160008154811015156108a557fe5b906000526020600020900160009054906101000a900473ffffffffffffffffffffffffffffffffffffffff169050919050565b600160009054906101000a900473ffffffffffffffffffffffffffffffffffffffff1681565b6000600360008360001916600019168152602001908152602001600020600701805490509050919050565b8260036000836000191660001916815260200190815260200160002060060160008673ffffffffffffffffffffffffffffffffffffffff1673ffffffffffffffffffffffffffffffffffffffff168152602001908152602001600020600001819055508160036000836000191660001916815260200190815260200160002060060160008673ffffffffffffffffffffffffffffffffffffffff1673ffffffffffffffffffffffffffffffffffffffff168152602001908152602001600020600101819055506003600082600019166000191681526020019081526020016000206007018054806001018281610a1f9190611009565b9160005260206000209001600086909190916101000a81548173ffffffffffffffffffffffffffffffffffffffff021916908373ffffffffffffffffffffffffffffffffffffffff1602179055505050505050565b60006003600083600019166000191681526020019081526020016000206004016000815481101515610aa257fe5b9060005260206000209001549050919050565b60008060003491506000600360008960001916600019168152602001908152602001600020600701805490501115610bc8578460036000896000191660001916815260200190815260200160002060060160003373ffffffffffffffffffffffffffffffffffffffff1673ffffffffffffffffffffffffffffffffffffffff1681526020019081526020016000206001015410151515610b5457600080fd5b8390508460036000896000191660001916815260200190815260200160002060060160003373ffffffffffffffffffffffffffffffffffffffff1673ffffffffffffffffffffffffffffffffffffffff16815260200190815260200160002060010160008282540392505081905550610c14565b8185600360008a6000191660001916815260200190815260200160002060090160008960001916600019168152602001908152602001600020540211151515610c1057600080fd5b3390505b600060036000896000191660001916815260200190815260200160002060080160008373ffffffffffffffffffffffffffffffffffffffff1673ffffffffffffffffffffffffffffffffffffffff168152602001908152602001600020600101541115610d0d576003600088600019166000191681526020019081526020016000206003015485600360008a6000191660001916815260200190815260200160002060080160008473ffffffffffffffffffffffffffffffffffffffff1673ffffffffffffffffffffffffffffffffffffffff168152602001908152602001600020600101540111151515610d0857600080fd5b610d24565b600360008860001916600019168152602001908152505b6000600102600460009054906101000a900473ffffffffffffffffffffffffffffffffffffffff1673ffffffffffffffffffffffffffffffffffffffff166364377452836000604051602001526040518263ffffffff167c0100000000000000000000000000000000000000000000000000000000028152600401808273ffffffffffffffffffffffffffffffffffffffff1673ffffffffffffffffffffffffffffffffffffffff168152602001915050602060405180830381600087803b1515610dee57600080fd5b6102c65a03f11515610dff57600080fd5b505050604051805190506000191614151515610e1a57600080fd5b8460036000896000191660001916815260200190815260200160002060080160008373ffffffffffffffffffffffffffffffffffffffff1673ffffffffffffffffffffffffffffffffffffffff16815260200190815260200160002060000160008860001916600019168152602001908152602001600020600082825401925050819055508460036000896000191660001916815260200190815260200160002060080160008373ffffffffffffffffffffffffffffffffffffffff1673ffffffffffffffffffffffffffffffffffffffff168152602001908152602001600020600101600082825401925050819055505050949350505050565b6000600360008360001916600019168152602001908152602001600020600301549050919050565b815481835581811511610f6457818360005260206000209182019101610f639190611035565b5b505050565b828054828255906000526020600020908101928215610fab579160200282015b82811115610faa578251829060001916905591602001919060010190610f89565b5b509050610fb89190611035565b5090565b828054828255906000526020600020908101928215610ff8579160200282015b82811115610ff7578251825591602001919060010190610fdc565b5b509050611005919061105a565b5090565b8154818355818115116110305781836000526020600020918201910161102f919061105a565b5b505050565b61105791905b8082111561105357600081600090555060010161103b565b5090565b90565b61107c91905b80821115611078576000816000905550600101611060565b5090565b905600a165627a7a72305820d2893b2d897c89d3c2d1177713897941786b421f39337543ff95da4835688f340029",
  "source": "pragma solidity ^0.4.19;\nimport \"./Users.sol\";\ncontract Tickets {\n    address usersContract;\n    address public owner;\n    bytes32[] events;\n    mapping(bytes32 => eventObject) eventStore;\n    Users users;\n    struct buyer{\n      mapping (bytes32 => uint) ticketQuantity;//type->quantity\n      uint nTickets;\n    }\n    struct seller{\n      uint percReturn;\n      uint nTickets;\n    }\n    struct eventObject{\n      bytes32 id;\n      bytes32 name;\n      //uint startTimeStamp;\n      //uint endTimeStamp;\n      bytes32[] ticketsType;\n      uint maxTicketPerson;\n      uint[] ticketPrices;\n      uint[] ticketLeft;\n      mapping (address => seller) resellers;\n      address[] resellersAddr;\n      mapping (address => buyer) sold;\n      mapping (bytes32 => uint) ticketPricesMap;\n    }\n    //mapping (uint=> eventObject) public eventsmap;\n    function getUserHash(address user) public returns (bytes32){\n      return users.getUserHash(user);\n    }\n    function getEventsSize() public returns (uint){\n      return events.length;\n    }\n    function getTicketPrice(bytes32 id) public returns (uint){\n      return eventStore[id].ticketPrices[0];\n    }\n    function getEventName(bytes32 id) public returns (bytes32){\n      return eventStore[id].name;\n    }\n    function getEventTicketPerPerson(bytes32 id) public returns (uint){\n      return eventStore[id].maxTicketPerson;\n    }\n    function getEventTicketBought(bytes32 id, address addr) public returns (uint){\n      return eventStore[id].sold[addr].nTickets;\n    }\n    function addReseller(address addr, uint perc, uint ntickets, bytes32 id ) public{\n      eventStore[id].resellers[addr].percReturn=perc;\n      eventStore[id].resellers[addr].nTickets=ntickets;\n      eventStore[id].resellersAddr.push(addr);\n    }\n    function getResellerLength(bytes32 id) public returns (uint){\n      return eventStore[id].resellersAddr.length;\n    }\n    function getResellerfirstAddr(bytes32 id) public returns (address){\n      return eventStore[id].resellersAddr[0];\n    }\n    function getResellerTicketsAv(bytes32 id) public returns (uint){\n      return eventStore[id].resellers[msg.sender].nTickets;\n    }\n    function addEvent(bytes32 _id, bytes32 _name, bytes32[] _ticketsType, uint _maxTicketPerson, uint[] _ticketPrices, uint[] _ticketLeft) public\n    {\n      events.push(_id);\n      eventStore[_id].id=_id;\n      eventStore[_id].name=_name;\n      //eventStore[_id].startTimeStamp=_startTimeStamp;\n      //eventStore[_id].endTimeStamp=_endTimeStamp;\n      eventStore[_id].ticketsType=_ticketsType;\n      eventStore[_id].maxTicketPerson=_maxTicketPerson;\n      eventStore[_id].ticketPrices=_ticketPrices;\n      eventStore[_id].ticketLeft=_ticketLeft;\n\n    }\n    function Tickets(address _userContract) public{\n      usersContract=_userContract;\n      users=Users(usersContract);\n      owner = msg.sender;\n    }\n\n   function buy(bytes32 idEvent, bytes32 typeTicket, uint quantity, address sendFrom) payable public returns (uint) {\n    uint money = msg.value;\n    address sender;\n    //require(quantity <= evento.maxTicketPerson);\n    //require(evento.sold[msg.sender].nticket+quantity<=evento.maxTicketPerson);\n    if(eventStore[idEvent].resellersAddr.length>0){\n      require(eventStore[idEvent].resellers[msg.sender].nTickets>=quantity);\n      sender=sendFrom;\n      eventStore[idEvent].resellers[msg.sender].nTickets-=quantity;//va spostato in caso una require vada male\n    }else{\n      //require (block.timestamp > evento.startTimeStamp);\n      //require (block.timestamp < evento.endTimeStamp);\n      require(eventStore[idEvent].ticketPricesMap[typeTicket]*quantity <= money);\n      sender=msg.sender;\n    }\n    if(eventStore[idEvent].sold[sender].nTickets>0){\n      require(eventStore[idEvent].sold[sender].nTickets+quantity<=eventStore[idEvent].maxTicketPerson);//scazza\n    }else{\n      quantity<=eventStore[idEvent].maxTicketPerson;\n    }\n    require(users.getUserHash(sender)!=0);\n    eventStore[idEvent].sold[sender].ticketQuantity[typeTicket]+=quantity;\n    eventStore[idEvent].sold[sender].nTickets+=quantity;\n\n  }\n\n\n}\n",
  "sourcePath": "/home/pietro/ethchain/ticketing/contracts/contracts/Tickets.sol",
  "compiler": {
    "name": "solc",
    "version": "0.4.19+commit.c4cbbb05.Emscripten.clang"
  },
  "schemaVersion": "2.0.0",
  "updatedAt": "2018-06-27T13:47:01.266Z"
}