{
  "contractName": "Tickets",
  "abi": [
    {
      "constant": true,
      "inputs": [],
      "name": "owner",
      "outputs": [
        {
          "name": "",
          "type": "address"
        }
      ],
      "payable": false,
      "stateMutability": "view",
      "type": "function"
    },
    {
      "inputs": [
        {
          "name": "_userContract",
          "type": "address"
        }
      ],
      "payable": false,
      "stateMutability": "nonpayable",
      "type": "constructor"
    },
    {
      "constant": false,
      "inputs": [],
      "name": "withdraw",
      "outputs": [
        {
          "name": "",
          "type": "bool"
        }
      ],
      "payable": false,
      "stateMutability": "nonpayable",
      "type": "function"
    },
    {
      "constant": false,
      "inputs": [
        {
          "name": "user",
          "type": "address"
        }
      ],
      "name": "getUserHash",
      "outputs": [
        {
          "name": "",
          "type": "bytes32"
        }
      ],
      "payable": false,
      "stateMutability": "nonpayable",
      "type": "function"
    },
    {
      "constant": false,
      "inputs": [],
      "name": "getEventsSize",
      "outputs": [
        {
          "name": "",
          "type": "uint256"
        }
      ],
      "payable": false,
      "stateMutability": "nonpayable",
      "type": "function"
    },
    {
      "constant": false,
      "inputs": [
        {
          "name": "id",
          "type": "bytes32"
        }
      ],
      "name": "getTicketPrice",
      "outputs": [
        {
          "name": "",
          "type": "uint256"
        }
      ],
      "payable": false,
      "stateMutability": "nonpayable",
      "type": "function"
    },
    {
      "constant": false,
      "inputs": [
        {
          "name": "id",
          "type": "bytes32"
        }
      ],
      "name": "getEventName",
      "outputs": [
        {
          "name": "",
          "type": "bytes32"
        }
      ],
      "payable": false,
      "stateMutability": "nonpayable",
      "type": "function"
    },
    {
      "constant": false,
      "inputs": [
        {
          "name": "id",
          "type": "bytes32"
        }
      ],
      "name": "getEventTicketPerPerson",
      "outputs": [
        {
          "name": "",
          "type": "uint256"
        }
      ],
      "payable": false,
      "stateMutability": "nonpayable",
      "type": "function"
    },
    {
      "constant": false,
      "inputs": [
        {
          "name": "id",
          "type": "bytes32"
        },
        {
          "name": "addr",
          "type": "address"
        }
      ],
      "name": "getEventTicketBought",
      "outputs": [
        {
          "name": "",
          "type": "uint256"
        }
      ],
      "payable": false,
      "stateMutability": "nonpayable",
      "type": "function"
    },
    {
      "constant": false,
      "inputs": [
        {
          "name": "addr",
          "type": "address"
        },
        {
          "name": "perc",
          "type": "uint256"
        },
        {
          "name": "ntickets",
          "type": "uint256"
        },
        {
          "name": "id",
          "type": "bytes32"
        }
      ],
      "name": "addReseller",
      "outputs": [],
      "payable": false,
      "stateMutability": "nonpayable",
      "type": "function"
    },
    {
      "constant": false,
      "inputs": [
        {
          "name": "id",
          "type": "bytes32"
        }
      ],
      "name": "getResellerLength",
      "outputs": [
        {
          "name": "",
          "type": "uint256"
        }
      ],
      "payable": false,
      "stateMutability": "nonpayable",
      "type": "function"
    },
    {
      "constant": false,
      "inputs": [
        {
          "name": "id",
          "type": "bytes32"
        }
      ],
      "name": "getResellerfirstAddr",
      "outputs": [
        {
          "name": "",
          "type": "address"
        }
      ],
      "payable": false,
      "stateMutability": "nonpayable",
      "type": "function"
    },
    {
      "constant": false,
      "inputs": [
        {
          "name": "id",
          "type": "bytes32"
        }
      ],
      "name": "getResellerTicketsAv",
      "outputs": [
        {
          "name": "",
          "type": "uint256"
        }
      ],
      "payable": false,
      "stateMutability": "nonpayable",
      "type": "function"
    },
    {
      "constant": false,
      "inputs": [
        {
          "name": "_id",
          "type": "bytes32"
        },
        {
          "name": "_name",
          "type": "bytes32"
        },
        {
          "name": "_ticketsType",
          "type": "bytes32[]"
        },
        {
          "name": "_maxTicketPerson",
          "type": "uint256"
        },
        {
          "name": "_ticketPrices",
          "type": "uint256[]"
        },
        {
          "name": "_ticketLeft",
          "type": "uint256[]"
        }
      ],
      "name": "addEvent",
      "outputs": [],
      "payable": false,
      "stateMutability": "nonpayable",
      "type": "function"
    },
    {
      "constant": false,
      "inputs": [
        {
          "name": "idEvent",
          "type": "bytes32"
        },
        {
          "name": "typeTicket",
          "type": "bytes32"
        },
        {
          "name": "quantity",
          "type": "uint256"
        },
        {
          "name": "sendFrom",
          "type": "address"
        }
      ],
      "name": "buy",
      "outputs": [
        {
          "name": "",
          "type": "uint256"
        }
      ],
      "payable": true,
      "stateMutability": "payable",
      "type": "function"
    }
  ],
  "bytecode": "0x6060604052341561000f57600080fd5b6040516020806112fc83398101604052808051906020019091905050806000806101000a81548173ffffffffffffffffffffffffffffffffffffffff021916908373ffffffffffffffffffffffffffffffffffffffff1602179055506000809054906101000a900473ffffffffffffffffffffffffffffffffffffffff16600460006101000a81548173ffffffffffffffffffffffffffffffffffffffff021916908373ffffffffffffffffffffffffffffffffffffffff16021790555033600160006101000a81548173ffffffffffffffffffffffffffffffffffffffff021916908373ffffffffffffffffffffffffffffffffffffffff1602179055506000600581905550506111d6806101266000396000f3006060604052600436106100d0576000357c0100000000000000000000000000000000000000000000000000000000900463ffffffff168063053bcf9a146100d55780632880487c146101105780633ccfd60b1461020d57806357ac264e1461023a57806364377452146102635780636bef23d8146102b857806374fe057d146102fb57806378ccbd1e146103555780638da5cb5b146103bc5780639506115d1461041157806398bb387b1461044c578063c73a839c146104a4578063cc06146e146104df578063e2442fa114610544575b600080fd5b34156100e057600080fd5b6100fa60048080356000191690602001909190505061057f565b6040518082815260200191505060405180910390f35b341561011b57600080fd5b61020b600480803560001916906020019091908035600019169060200190919080359060200190820180359060200190808060200260200160405190810160405280939291908181526020018383602002808284378201915050505050509190803590602001909190803590602001908201803590602001908080602002602001604051908101604052809392919081815260200183836020028082843782019150505050505091908035906020019082018035906020019080806020026020016040519081016040528093929190818152602001838360200280828437820191505050505050919050506105e7565b005b341561021857600080fd5b610220610728565b604051808215151515815260200191505060405180910390f35b341561024557600080fd5b61024d6107e8565b6040518082815260200191505060405180910390f35b341561026e57600080fd5b61029a600480803573ffffffffffffffffffffffffffffffffffffffff169060200190919050506107f5565b60405180826000191660001916815260200191505060405180910390f35b34156102c357600080fd5b6102dd6004808035600019169060200190919050506108de565b60405180826000191660001916815260200191505060405180910390f35b341561030657600080fd5b61033f60048080356000191690602001909190803573ffffffffffffffffffffffffffffffffffffffff16906020019091905050610906565b6040518082815260200191505060405180910390f35b341561036057600080fd5b61037a60048080356000191690602001909190505061096f565b604051808273ffffffffffffffffffffffffffffffffffffffff1673ffffffffffffffffffffffffffffffffffffffff16815260200191505060405180910390f35b34156103c757600080fd5b6103cf6109d0565b604051808273ffffffffffffffffffffffffffffffffffffffff1673ffffffffffffffffffffffffffffffffffffffff16815260200191505060405180910390f35b341561041c57600080fd5b6104366004808035600019169060200190919050506109f6565b6040518082815260200191505060405180910390f35b341561045757600080fd5b6104a2600480803573ffffffffffffffffffffffffffffffffffffffff1690602001909190803590602001909190803590602001909190803560001916906020019091905050610a21565b005b34156104af57600080fd5b6104c9600480803560001916906020019091905050610b6c565b6040518082815260200191505060405180910390f35b61052e6004808035600019169060200190919080356000191690602001909190803590602001909190803573ffffffffffffffffffffffffffffffffffffffff16906020019091905050610bad565b6040518082815260200191505060405180910390f35b341561054f57600080fd5b610569600480803560001916906020019091905050611040565b6040518082815260200191505060405180910390f35b600060036000836000191660001916815260200190815260200160002060060160003373ffffffffffffffffffffffffffffffffffffffff1673ffffffffffffffffffffffffffffffffffffffff168152602001908152602001600020600101549050919050565b600280548060010182816105fb9190611068565b916000526020600020900160008890919091509060001916905550856003600088600019166000191681526020019081526020016000206000018160001916905550846003600088600019166000191681526020019081526020016000206001018160001916905550836003600088600019166000191681526020019081526020016000206002019080519060200190610696929190611094565b5082600360008860001916600019168152602001908152602001600020600301819055508160036000886000191660001916815260200190815260200160002060040190805190602001906106ec9291906110e7565b5080600360008860001916600019168152602001908152602001600020600501908051906020019061071f9291906110e7565b50505050505050565b6000806005549050600160009054906101000a900473ffffffffffffffffffffffffffffffffffffffff1673ffffffffffffffffffffffffffffffffffffffff163373ffffffffffffffffffffffffffffffffffffffff1614151561078c57600080fd5b60006005819055503373ffffffffffffffffffffffffffffffffffffffff166108fc829081150290604051600060405180830381858888f1935050505015156107df5780600581905550600091506107e4565b600191505b5090565b6000600280549050905090565b6000600460009054906101000a900473ffffffffffffffffffffffffffffffffffffffff1673ffffffffffffffffffffffffffffffffffffffff166364377452836000604051602001526040518263ffffffff167c0100000000000000000000000000000000000000000000000000000000028152600401808273ffffffffffffffffffffffffffffffffffffffff1673ffffffffffffffffffffffffffffffffffffffff168152602001915050602060405180830381600087803b15156108bc57600080fd5b6102c65a03f115156108cd57600080fd5b505050604051805190509050919050565b6000600360008360001916600019168152602001908152602001600020600101549050919050565b600060036000846000191660001916815260200190815260200160002060080160008373ffffffffffffffffffffffffffffffffffffffff1673ffffffffffffffffffffffffffffffffffffffff16815260200190815260200160002060010154905092915050565b6000600360008360001916600019168152602001908152602001600020600701600081548110151561099d57fe5b906000526020600020900160009054906101000a900473ffffffffffffffffffffffffffffffffffffffff169050919050565b600160009054906101000a900473ffffffffffffffffffffffffffffffffffffffff1681565b6000600360008360001916600019168152602001908152602001600020600701805490509050919050565b8260036000836000191660001916815260200190815260200160002060060160008673ffffffffffffffffffffffffffffffffffffffff1673ffffffffffffffffffffffffffffffffffffffff168152602001908152602001600020600001819055508160036000836000191660001916815260200190815260200160002060060160008673ffffffffffffffffffffffffffffffffffffffff1673ffffffffffffffffffffffffffffffffffffffff168152602001908152602001600020600101819055506003600082600019166000191681526020019081526020016000206007018054806001018281610b179190611134565b9160005260206000209001600086909190916101000a81548173ffffffffffffffffffffffffffffffffffffffff021916908373ffffffffffffffffffffffffffffffffffffffff1602179055505050505050565b60006003600083600019166000191681526020019081526020016000206004016000815481101515610b9a57fe5b9060005260206000209001549050919050565b60008060003491506000600360008960001916600019168152602001908152602001600020600701805490501115610cc9578460036000896000191660001916815260200190815260200160002060060160003373ffffffffffffffffffffffffffffffffffffffff1673ffffffffffffffffffffffffffffffffffffffff168152602001908152602001600020600101541080610c4b5750600085145b15610c5557600080fd5b8390508460036000896000191660001916815260200190815260200160002060060160003373ffffffffffffffffffffffffffffffffffffffff1673ffffffffffffffffffffffffffffffffffffffff16815260200190815260200160002060010160008282540392505081905550610d1e565b8185600360008a600019166000191681526020019081526020016000206009016000896000191660001916815260200190815260200160002054021180610d105750600085145b15610d1a57600080fd5b3390505b600060036000896000191660001916815260200190815260200160002060080160008373ffffffffffffffffffffffffffffffffffffffff1673ffffffffffffffffffffffffffffffffffffffff168152602001908152602001600020600101541115610e15576003600088600019166000191681526020019081526020016000206003015485600360008a6000191660001916815260200190815260200160002060080160008473ffffffffffffffffffffffffffffffffffffffff1673ffffffffffffffffffffffffffffffffffffffff16815260200190815260200160002060010154011115610e1057600080fd5b610e41565b60036000886000191660001916815260200190815260200160002060030154851115610e4057600080fd5b5b6000600102600460009054906101000a900473ffffffffffffffffffffffffffffffffffffffff1673ffffffffffffffffffffffffffffffffffffffff166364377452836000604051602001526040518263ffffffff167c0100000000000000000000000000000000000000000000000000000000028152600401808273ffffffffffffffffffffffffffffffffffffffff1673ffffffffffffffffffffffffffffffffffffffff168152602001915050602060405180830381600087803b1515610f0b57600080fd5b6102c65a03f11515610f1c57600080fd5b50505060405180519050600019161415610f3557600080fd5b8460036000896000191660001916815260200190815260200160002060080160008373ffffffffffffffffffffffffffffffffffffffff1673ffffffffffffffffffffffffffffffffffffffff16815260200190815260200160002060000160008860001916600019168152602001908152602001600020600082825401925050819055508460036000896000191660001916815260200190815260200160002060080160008373ffffffffffffffffffffffffffffffffffffffff1673ffffffffffffffffffffffffffffffffffffffff16815260200190815260200160002060010160008282540192505081905550816005600082825401925050819055505050949350505050565b6000600360008360001916600019168152602001908152602001600020600301549050919050565b81548183558181151161108f5781836000526020600020918201910161108e9190611160565b5b505050565b8280548282559060005260206000209081019282156110d6579160200282015b828111156110d55782518290600019169055916020019190600101906110b4565b5b5090506110e39190611160565b5090565b828054828255906000526020600020908101928215611123579160200282015b82811115611122578251825591602001919060010190611107565b5b5090506111309190611185565b5090565b81548183558181151161115b5781836000526020600020918201910161115a9190611185565b5b505050565b61118291905b8082111561117e576000816000905550600101611166565b5090565b90565b6111a791905b808211156111a357600081600090555060010161118b565b5090565b905600a165627a7a72305820ce6fe42d0283e5c7509900ad076cd43357ec1446e170619cb7f68b2d6b6261fa0029",
  "source": "pragma solidity ^0.4.19;\nimport \"./Users.sol\";\ncontract Tickets {\n    address usersContract;\n    address public owner;\n    bytes32[] events;\n    mapping(bytes32 => eventObject) eventStore;\n    Users users;\n    struct buyer{\n      mapping (bytes32 => uint) ticketQuantity;//type->quantity\n      uint nTickets;\n    }\n    struct seller{\n      uint percReturn;\n      uint nTickets;\n    }\n    struct eventObject{\n      bytes32 id;\n      bytes32 name;\n      //uint startTimeStamp;\n      //uint endTimeStamp;\n      bytes32[] ticketsType;\n      uint maxTicketPerson;\n      uint[] ticketPrices;\n      uint[] ticketLeft;\n      mapping (address => seller) resellers;\n      address[] resellersAddr;\n      mapping (address => buyer) sold;\n      mapping (bytes32 => uint) ticketPricesMap;\n    }\n    uint fund;\n    function withdraw() public returns (bool){\n      uint amount=fund;\n      require(msg.sender==owner);\n      fund=0;\n      if (!msg.sender.send(amount)) {\n        fund = amount;\n        return false;\n      }\n      return true;\n    }\n    //mapping (uint=> eventObject) public eventsmap;\n    function getUserHash(address user) public returns (bytes32){\n      return users.getUserHash(user);\n    }\n    function getEventsSize() public returns (uint){\n      return events.length;\n    }\n    function getTicketPrice(bytes32 id) public returns (uint){\n      return eventStore[id].ticketPrices[0];\n    }\n    function getEventName(bytes32 id) public returns (bytes32){\n      return eventStore[id].name;\n    }\n    function getEventTicketPerPerson(bytes32 id) public returns (uint){\n      return eventStore[id].maxTicketPerson;\n    }\n    function getEventTicketBought(bytes32 id, address addr) public returns (uint){\n      return eventStore[id].sold[addr].nTickets;\n    }\n    function addReseller(address addr, uint perc, uint ntickets, bytes32 id ) public{\n      eventStore[id].resellers[addr].percReturn=perc;\n      eventStore[id].resellers[addr].nTickets=ntickets;\n      eventStore[id].resellersAddr.push(addr);\n    }\n    function getResellerLength(bytes32 id) public returns (uint){\n      return eventStore[id].resellersAddr.length;\n    }\n    function getResellerfirstAddr(bytes32 id) public returns (address){\n      return eventStore[id].resellersAddr[0];\n    }\n    function getResellerTicketsAv(bytes32 id) public returns (uint){\n      return eventStore[id].resellers[msg.sender].nTickets;\n    }\n    function addEvent(bytes32 _id, bytes32 _name, bytes32[] _ticketsType, uint _maxTicketPerson, uint[] _ticketPrices, uint[] _ticketLeft) public\n    {\n      events.push(_id);\n      eventStore[_id].id=_id;\n      eventStore[_id].name=_name;\n      //eventStore[_id].startTimeStamp=_startTimeStamp;\n      //eventStore[_id].endTimeStamp=_endTimeStamp;\n      eventStore[_id].ticketsType=_ticketsType;\n      eventStore[_id].maxTicketPerson=_maxTicketPerson;\n      eventStore[_id].ticketPrices=_ticketPrices;\n      eventStore[_id].ticketLeft=_ticketLeft;\n\n    }\n    function Tickets(address _userContract) public{\n      usersContract=_userContract;\n      users=Users(usersContract);\n      owner = msg.sender;\n      fund=0;\n    }\n\n   function buy(bytes32 idEvent, bytes32 typeTicket, uint quantity, address sendFrom) payable public returns (uint) {\n    uint money = msg.value;\n    address sender;\n    //if revert()\n    //require(quantity <= evento.maxTicketPerson);\n    //require(evento.sold[msg.sender].nticket+quantity<=evento.maxTicketPerson);\n    if(eventStore[idEvent].resellersAddr.length>0){\n      if(eventStore[idEvent].resellers[msg.sender].nTickets<quantity || quantity==0){\n        revert();\n      }\n      sender=sendFrom;\n      eventStore[idEvent].resellers[msg.sender].nTickets-=quantity;//va spostato in caso una require vada male\n    }else{\n      //require (block.timestamp > evento.startTimeStamp);\n      //require (block.timestamp < evento.endTimeStamp);\n      if(eventStore[idEvent].ticketPricesMap[typeTicket]*quantity > money || quantity==0){\n        revert();\n      }\n      sender=msg.sender;\n    }\n    if(eventStore[idEvent].sold[sender].nTickets>0){\n      if(eventStore[idEvent].sold[sender].nTickets+quantity>eventStore[idEvent].maxTicketPerson){//scazza\n          revert();\n      }\n    }else{\n      if(quantity>eventStore[idEvent].maxTicketPerson){\n          revert();\n      }\n\n    }\n    if(users.getUserHash(sender)==0){\n      revert();\n    }\n    eventStore[idEvent].sold[sender].ticketQuantity[typeTicket]+=quantity;\n    eventStore[idEvent].sold[sender].nTickets+=quantity;\n    fund+=money;\n  }\n\n\n}\n",
  "sourcePath": "/home/pietro/ethchain/ticketing/contracts/contracts/Tickets.sol",
  "compiler": {
    "name": "solc",
    "version": "0.4.19+commit.c4cbbb05.Emscripten.clang"
  },
  "schemaVersion": "2.0.0",
  "updatedAt": "2018-06-28T12:48:38.917Z"
}