{
  "contractName": "Tickets",
  "abi": [
    {
      "inputs": [
        {
          "name": "_userContract",
          "type": "address"
        }
      ],
      "payable": false,
      "stateMutability": "nonpayable",
      "type": "constructor"
    },
    {
      "constant": false,
      "inputs": [
        {
          "name": "i",
          "type": "uint256"
        }
      ],
      "name": "getEventsSize",
      "outputs": [
        {
          "name": "",
          "type": "uint256"
        }
      ],
      "payable": false,
      "stateMutability": "nonpayable",
      "type": "function"
    },
    {
      "constant": false,
      "inputs": [
        {
          "name": "i",
          "type": "uint256"
        }
      ],
      "name": "getEventName",
      "outputs": [
        {
          "name": "",
          "type": "bytes32"
        }
      ],
      "payable": false,
      "stateMutability": "nonpayable",
      "type": "function"
    },
    {
      "constant": false,
      "inputs": [
        {
          "name": "i",
          "type": "uint256"
        }
      ],
      "name": "getEventTicketPerPerson",
      "outputs": [
        {
          "name": "",
          "type": "uint256"
        }
      ],
      "payable": false,
      "stateMutability": "nonpayable",
      "type": "function"
    },
    {
      "constant": false,
      "inputs": [
        {
          "name": "i",
          "type": "uint256"
        }
      ],
      "name": "getEventTicketBought",
      "outputs": [
        {
          "name": "",
          "type": "uint256"
        }
      ],
      "payable": false,
      "stateMutability": "nonpayable",
      "type": "function"
    },
    {
      "constant": false,
      "inputs": [
        {
          "name": "_id",
          "type": "bytes32"
        },
        {
          "name": "_nome",
          "type": "bytes32"
        },
        {
          "name": "_ticketsType",
          "type": "bytes32[]"
        },
        {
          "name": "_maxTicketPerson",
          "type": "uint256"
        },
        {
          "name": "_ticketPrices",
          "type": "uint256[]"
        },
        {
          "name": "_ticketLeft",
          "type": "uint256[]"
        }
      ],
      "name": "addEvent",
      "outputs": [],
      "payable": false,
      "stateMutability": "nonpayable",
      "type": "function"
    },
    {
      "constant": false,
      "inputs": [
        {
          "name": "idEvent",
          "type": "bytes32"
        },
        {
          "name": "typeTicket",
          "type": "bytes32"
        },
        {
          "name": "quantity",
          "type": "uint256"
        }
      ],
      "name": "buy",
      "outputs": [
        {
          "name": "",
          "type": "uint256"
        }
      ],
      "payable": true,
      "stateMutability": "payable",
      "type": "function"
    }
  ],
  "bytecode": "0x60606040526000809054906101000a900473ffffffffffffffffffffffffffffffffffffffff16600360006101000a81548173ffffffffffffffffffffffffffffffffffffffff021916908373ffffffffffffffffffffffffffffffffffffffff160217905550341561007157600080fd5b60405160208061096483398101604052808051906020019091905050806000806101000a81548173ffffffffffffffffffffffffffffffffffffffff021916908373ffffffffffffffffffffffffffffffffffffffff16021790555050610887806100dd6000396000f300606060405260043610610078576000357c0100000000000000000000000000000000000000000000000000000000900463ffffffff1680632880487c1461007d57806346fdc7f71461017a5780634945fcc7146101b15780637558ed58146101f05780639c45952914610236578063ef3130d51461026d575b600080fd5b341561008857600080fd5b610178600480803560001916906020019091908035600019169060200190919080359060200190820180359060200190808060200260200160405190810160405280939291908181526020018383602002808284378201915050505050509190803590602001909190803590602001908201803590602001908080602002602001604051908101604052809392919081815260200183836020028082843782019150505050505091908035906020019082018035906020019080806020026020016040519081016040528093929190818152602001838360200280828437820191505050505050919050506102a4565b005b341561018557600080fd5b61019b60048080359060200190919050506103e5565b6040518082815260200191505060405180910390f35b34156101bc57600080fd5b6101d26004808035906020019091905050610467565b60405180826000191660001916815260200191505060405180910390f35b610220600480803560001916906020019091908035600019169060200190919080359060200190919050506104a9565b6040518082815260200191505060405180910390f35b341561024157600080fd5b61025760048080359060200190919050506106f4565b6040518082815260200191505060405180910390f35b341561027857600080fd5b61028e6004808035906020019091905050610736565b6040518082815260200191505060405180910390f35b600180548060010182816102b89190610745565b916000526020600020900160008890919091509060001916905550856002600088600019166000191681526020019081526020016000206000018160001916905550846002600088600019166000191681526020019081526020016000206001018160001916905550836002600088600019166000191681526020019081526020016000206002019080519060200190610353929190610771565b5082600260008860001916600019168152602001908152602001600020600301819055508160026000886000191660001916815260200190815260200160002060040190805190602001906103a99291906107c4565b508060026000886000191660001916815260200190815260200160002060050190805190602001906103dc9291906107c4565b50505050505050565b6000600260006001848154811015156103fa57fe5b9060005260206000209001546000191660001916815260200190815260200160002060060160003373ffffffffffffffffffffffffffffffffffffffff1673ffffffffffffffffffffffffffffffffffffffff168152602001908152602001600020600101549050919050565b60006002600060018481548110151561047c57fe5b90600052602060002090015460001916600019168152602001908152602001600020600101549050919050565b600080349050600060026000876000191660001916815260200190815260200160002060060160003373ffffffffffffffffffffffffffffffffffffffff1673ffffffffffffffffffffffffffffffffffffffff16815260200190815260200160002060010154111561060c578260026000876000191660001916815260200190815260200160002060060160003373ffffffffffffffffffffffffffffffffffffffff1673ffffffffffffffffffffffffffffffffffffffff16815260200190815260200160002060000160008660001916600019168152602001908152602001600020600082825401925050819055508260026000876000191660001916815260200190815260200160002060060160003373ffffffffffffffffffffffffffffffffffffffff1673ffffffffffffffffffffffffffffffffffffffff168152602001908152602001600020600101600082825401925050819055506106ec565b8260026000876000191660001916815260200190815260200160002060060160003373ffffffffffffffffffffffffffffffffffffffff1673ffffffffffffffffffffffffffffffffffffffff16815260200190815260200160002060000160008660001916600019168152602001908152602001600020819055508260026000876000191660001916815260200190815260200160002060060160003373ffffffffffffffffffffffffffffffffffffffff1673ffffffffffffffffffffffffffffffffffffffff168152602001908152602001600020600101819055505b509392505050565b60006002600060018481548110151561070957fe5b90600052602060002090015460001916600019168152602001908152602001600020600301549050919050565b60006001805490509050919050565b81548183558181151161076c5781836000526020600020918201910161076b9190610811565b5b505050565b8280548282559060005260206000209081019282156107b3579160200282015b828111156107b2578251829060001916905591602001919060010190610791565b5b5090506107c09190610811565b5090565b828054828255906000526020600020908101928215610800579160200282015b828111156107ff5782518255916020019190600101906107e4565b5b50905061080d9190610836565b5090565b61083391905b8082111561082f576000816000905550600101610817565b5090565b90565b61085891905b8082111561085457600081600090555060010161083c565b5090565b905600a165627a7a72305820b744f868a3ee913b76895935c20b815ec2ff916a4efc8c08b728cb3d1f183c790029",
  "source": "pragma solidity ^0.4.19;\nimport \"./Users.sol\";\ncontract Tickets {\n    address usersContract;\n    struct buyer{\n      mapping (bytes32 => uint) ticketQuantity;//type->quantity\n      uint nticket;\n    }\n    struct eventObject{\n      bytes32 id;\n      bytes32 nome;\n      //uint startTimeStamp;\n      //uint endTimeStamp;\n      bytes32[] ticketsType;\n      uint maxTicketPerson;\n      uint[] ticketPrices;\n      uint[] ticketLeft;\n      mapping (address => buyer) sold;\n      mapping (bytes32 => uint) ticketPricesMap;\n    }\n    //mapping (uint=> eventObject) public eventsmap;\n    bytes32[] events;\n    mapping(bytes32 => eventObject) eventStore;\n    Users users = Users(usersContract);\n    function getEventsSize(uint i) public returns (uint){\n      return events.length;\n    }\n    function getEventName(uint i) public returns (bytes32){\n      return eventStore[events[i]].nome;\n    }\n    function getEventTicketPerPerson(uint i) public returns (uint){\n      return eventStore[events[i]].maxTicketPerson;\n    }\n    function getEventTicketBought(uint i) public returns (uint){\n      return eventStore[events[i]].sold[msg.sender].nticket;\n    }\n    function addEvent(bytes32 _id, bytes32 _nome, bytes32[] _ticketsType, uint _maxTicketPerson, uint[] _ticketPrices, uint[] _ticketLeft) public\n    //function addEvent(bytes32 _id, bytes32 _nome,  uint _maxTicketPerson) public\n\n    {\n      events.push(_id);\n      eventStore[_id].id=_id;\n      eventStore[_id].nome=_nome;\n      //eventStore[_id].startTimeStamp=_startTimeStamp;\n      //eventStore[_id].endTimeStamp=_endTimeStamp;\n      eventStore[_id].ticketsType=_ticketsType;\n      eventStore[_id].maxTicketPerson=_maxTicketPerson;\n      eventStore[_id].ticketPrices=_ticketPrices;\n      eventStore[_id].ticketLeft=_ticketLeft;\n\n        /*eventObject myStruct = new eventObject({\n          id:_id,\n          nome:_nome,\n          startTimeStamp:_startTimeStamp,\n          endTimeStamp:_endTimeStamp,\n          ticketsType:_ticketsType,\n          maxTicketPerson:_maxTicketPerson,\n          ticketPrices:_ticketPrices,\n          ticketLeft:_ticketLeft\n          });*/\n        //eventsmap[events.length-1]=myStruct;\n\n\n\n\n    }\n    function Tickets(address _userContract) public{\n      usersContract=_userContract;\n    }\n\n\n   function buy(bytes32 idEvent, bytes32 typeTicket, uint quantity) payable public returns (uint) {\n    uint money = msg.value;\n    //require (users.getUserHash(msg.sender)!=0);\n    //require (block.timestamp > evento.startTimeStamp);\n    //require (block.timestamp < evento.endTimeStamp);\n    //require(evento.ticketPricesMap[typeTicket]*quantity == money);\n\n    //require(quantity <= evento.maxTicketPerson);\n    //require(evento.sold[msg.sender].nticket+quantity<=evento.maxTicketPerson);\n    if(eventStore[idEvent].sold[msg.sender].nticket>0){\n      eventStore[idEvent].sold[msg.sender].ticketQuantity[typeTicket]+=quantity;\n      eventStore[idEvent].sold[msg.sender].nticket+=quantity;\n    }else{\n      eventStore[idEvent].sold[msg.sender].ticketQuantity[typeTicket]=quantity;\n      eventStore[idEvent].sold[msg.sender].nticket=quantity;\n    }\n\n  }\n\n\n}\n",
  "sourcePath": "/home/pietro/ethchain/ticketing/contracts/contracts/Tickets.sol",
  "compiler": {
    "name": "solc",
    "version": "0.4.19+commit.c4cbbb05.Emscripten.clang"
  },
  "schemaVersion": "2.0.0",
  "updatedAt": "2018-06-01T14:25:38.954Z"
}