{
  "contractName": "Tickets",
  "abi": [
    {
      "constant": true,
      "inputs": [],
      "name": "owner",
      "outputs": [
        {
          "name": "",
          "type": "address"
        }
      ],
      "payable": false,
      "stateMutability": "view",
      "type": "function"
    },
    {
      "inputs": [
        {
          "name": "_userContract",
          "type": "address"
        }
      ],
      "payable": false,
      "stateMutability": "nonpayable",
      "type": "constructor"
    },
    {
      "constant": false,
      "inputs": [],
      "name": "getEventsSize",
      "outputs": [
        {
          "name": "",
          "type": "uint256"
        }
      ],
      "payable": false,
      "stateMutability": "nonpayable",
      "type": "function"
    },
    {
      "constant": false,
      "inputs": [
        {
          "name": "id",
          "type": "bytes32"
        }
      ],
      "name": "getEventName",
      "outputs": [
        {
          "name": "",
          "type": "bytes32"
        }
      ],
      "payable": false,
      "stateMutability": "nonpayable",
      "type": "function"
    },
    {
      "constant": false,
      "inputs": [
        {
          "name": "id",
          "type": "bytes32"
        }
      ],
      "name": "getEventTicketPerPerson",
      "outputs": [
        {
          "name": "",
          "type": "uint256"
        }
      ],
      "payable": false,
      "stateMutability": "nonpayable",
      "type": "function"
    },
    {
      "constant": false,
      "inputs": [
        {
          "name": "id",
          "type": "bytes32"
        },
        {
          "name": "addr",
          "type": "address"
        }
      ],
      "name": "getEventTicketBought",
      "outputs": [
        {
          "name": "",
          "type": "uint256"
        }
      ],
      "payable": false,
      "stateMutability": "nonpayable",
      "type": "function"
    },
    {
      "constant": false,
      "inputs": [
        {
          "name": "addr",
          "type": "address"
        },
        {
          "name": "perc",
          "type": "uint256"
        },
        {
          "name": "ntickets",
          "type": "uint256"
        },
        {
          "name": "id",
          "type": "bytes32"
        }
      ],
      "name": "addReseller",
      "outputs": [],
      "payable": false,
      "stateMutability": "nonpayable",
      "type": "function"
    },
    {
      "constant": false,
      "inputs": [
        {
          "name": "id",
          "type": "bytes32"
        }
      ],
      "name": "getResellerLength",
      "outputs": [
        {
          "name": "",
          "type": "uint256"
        }
      ],
      "payable": false,
      "stateMutability": "nonpayable",
      "type": "function"
    },
    {
      "constant": false,
      "inputs": [
        {
          "name": "id",
          "type": "bytes32"
        }
      ],
      "name": "getResellerfirstAddr",
      "outputs": [
        {
          "name": "",
          "type": "address"
        }
      ],
      "payable": false,
      "stateMutability": "nonpayable",
      "type": "function"
    },
    {
      "constant": false,
      "inputs": [
        {
          "name": "id",
          "type": "bytes32"
        }
      ],
      "name": "getResellerTicketsAv",
      "outputs": [
        {
          "name": "",
          "type": "uint256"
        }
      ],
      "payable": false,
      "stateMutability": "nonpayable",
      "type": "function"
    },
    {
      "constant": false,
      "inputs": [
        {
          "name": "_id",
          "type": "bytes32"
        },
        {
          "name": "_name",
          "type": "bytes32"
        },
        {
          "name": "_ticketsType",
          "type": "bytes32[]"
        },
        {
          "name": "_maxTicketPerson",
          "type": "uint256"
        },
        {
          "name": "_ticketPrices",
          "type": "uint256[]"
        },
        {
          "name": "_ticketLeft",
          "type": "uint256[]"
        }
      ],
      "name": "addEvent",
      "outputs": [],
      "payable": false,
      "stateMutability": "nonpayable",
      "type": "function"
    },
    {
      "constant": false,
      "inputs": [
        {
          "name": "idEvent",
          "type": "bytes32"
        },
        {
          "name": "typeTicket",
          "type": "bytes32"
        },
        {
          "name": "quantity",
          "type": "uint256"
        },
        {
          "name": "sendFrom",
          "type": "address"
        }
      ],
      "name": "buy",
      "outputs": [
        {
          "name": "",
          "type": "uint256"
        }
      ],
      "payable": true,
      "stateMutability": "payable",
      "type": "function"
    }
  ],
  "bytecode": "0x60606040526000809054906101000a900473ffffffffffffffffffffffffffffffffffffffff16600460006101000a81548173ffffffffffffffffffffffffffffffffffffffff021916908373ffffffffffffffffffffffffffffffffffffffff160217905550341561007157600080fd5b604051602080610ea183398101604052808051906020019091905050806000806101000a81548173ffffffffffffffffffffffffffffffffffffffff021916908373ffffffffffffffffffffffffffffffffffffffff16021790555033600160006101000a81548173ffffffffffffffffffffffffffffffffffffffff021916908373ffffffffffffffffffffffffffffffffffffffff16021790555050610d838061011e6000396000f3006060604052600436106100af576000357c0100000000000000000000000000000000000000000000000000000000900463ffffffff168063053bcf9a146100b45780632880487c146100ef57806357ac264e146101ec5780636bef23d81461021557806374fe057d1461025857806378ccbd1e146102b25780638da5cb5b146103195780639506115d1461036e57806398bb387b146103a9578063cc06146e14610401578063e2442fa114610466575b600080fd5b34156100bf57600080fd5b6100d96004808035600019169060200190919050506104a1565b6040518082815260200191505060405180910390f35b34156100fa57600080fd5b6101ea60048080356000191690602001909190803560001916906020019091908035906020019082018035906020019080806020026020016040519081016040528093929190818152602001838360200280828437820191505050505050919080359060200190919080359060200190820180359060200190808060200260200160405190810160405280939291908181526020018383602002808284378201915050505050509190803590602001908201803590602001908080602002602001604051908101604052809392919081815260200183836020028082843782019150505050505091905050610509565b005b34156101f757600080fd5b6101ff61064a565b6040518082815260200191505060405180910390f35b341561022057600080fd5b61023a600480803560001916906020019091905050610657565b60405180826000191660001916815260200191505060405180910390f35b341561026357600080fd5b61029c60048080356000191690602001909190803573ffffffffffffffffffffffffffffffffffffffff1690602001909190505061067f565b6040518082815260200191505060405180910390f35b34156102bd57600080fd5b6102d76004808035600019169060200190919050506106e8565b604051808273ffffffffffffffffffffffffffffffffffffffff1673ffffffffffffffffffffffffffffffffffffffff16815260200191505060405180910390f35b341561032457600080fd5b61032c610749565b604051808273ffffffffffffffffffffffffffffffffffffffff1673ffffffffffffffffffffffffffffffffffffffff16815260200191505060405180910390f35b341561037957600080fd5b61039360048080356000191690602001909190505061076f565b6040518082815260200191505060405180910390f35b34156103b457600080fd5b6103ff600480803573ffffffffffffffffffffffffffffffffffffffff169060200190919080359060200190919080359060200190919080356000191690602001909190505061079a565b005b6104506004808035600019169060200190919080356000191690602001909190803590602001909190803573ffffffffffffffffffffffffffffffffffffffff169060200190919050506108e5565b6040518082815260200191505060405180910390f35b341561047157600080fd5b61048b600480803560001916906020019091905050610bed565b6040518082815260200191505060405180910390f35b600060036000836000191660001916815260200190815260200160002060060160003373ffffffffffffffffffffffffffffffffffffffff1673ffffffffffffffffffffffffffffffffffffffff168152602001908152602001600020600101549050919050565b6002805480600101828161051d9190610c15565b9160005260206000209001600088909190915090600019169055508560036000886000191660001916815260200190815260200160002060000181600019169055508460036000886000191660001916815260200190815260200160002060010181600019169055508360036000886000191660001916815260200190815260200160002060020190805190602001906105b8929190610c41565b50826003600088600019166000191681526020019081526020016000206003018190555081600360008860001916600019168152602001908152602001600020600401908051906020019061060e929190610c94565b50806003600088600019166000191681526020019081526020016000206005019080519060200190610641929190610c94565b50505050505050565b6000600280549050905090565b6000600360008360001916600019168152602001908152602001600020600101549050919050565b600060036000846000191660001916815260200190815260200160002060080160008373ffffffffffffffffffffffffffffffffffffffff1673ffffffffffffffffffffffffffffffffffffffff16815260200190815260200160002060010154905092915050565b6000600360008360001916600019168152602001908152602001600020600701600081548110151561071657fe5b906000526020600020900160009054906101000a900473ffffffffffffffffffffffffffffffffffffffff169050919050565b600160009054906101000a900473ffffffffffffffffffffffffffffffffffffffff1681565b6000600360008360001916600019168152602001908152602001600020600701805490509050919050565b8260036000836000191660001916815260200190815260200160002060060160008673ffffffffffffffffffffffffffffffffffffffff1673ffffffffffffffffffffffffffffffffffffffff168152602001908152602001600020600001819055508160036000836000191660001916815260200190815260200160002060060160008673ffffffffffffffffffffffffffffffffffffffff1673ffffffffffffffffffffffffffffffffffffffff1681526020019081526020016000206001018190555060036000826000191660001916815260200190815260200160002060070180548060010182816108909190610ce1565b9160005260206000209001600086909190916101000a81548173ffffffffffffffffffffffffffffffffffffffff021916908373ffffffffffffffffffffffffffffffffffffffff1602179055505050505050565b600080600034915060006003600089600019166000191681526020019081526020016000206007018054905011156109f8578460036000896000191660001916815260200190815260200160002060060160003373ffffffffffffffffffffffffffffffffffffffff1673ffffffffffffffffffffffffffffffffffffffff168152602001908152602001600020600101541015151561098457600080fd5b8390508460036000896000191660001916815260200190815260200160002060060160003373ffffffffffffffffffffffffffffffffffffffff1673ffffffffffffffffffffffffffffffffffffffff168152602001908152602001600020600101600082825403925050819055506109fc565b3390505b6000600102600460009054906101000a900473ffffffffffffffffffffffffffffffffffffffff1673ffffffffffffffffffffffffffffffffffffffff166364377452836000604051602001526040518263ffffffff167c0100000000000000000000000000000000000000000000000000000000028152600401808273ffffffffffffffffffffffffffffffffffffffff1673ffffffffffffffffffffffffffffffffffffffff168152602001915050602060405180830381600087803b1515610ac657600080fd5b6102c65a03f11515610ad757600080fd5b505050604051805190506000191614151515610af257600080fd5b8460036000896000191660001916815260200190815260200160002060080160008373ffffffffffffffffffffffffffffffffffffffff1673ffffffffffffffffffffffffffffffffffffffff16815260200190815260200160002060000160008860001916600019168152602001908152602001600020600082825401925050819055508460036000896000191660001916815260200190815260200160002060080160008373ffffffffffffffffffffffffffffffffffffffff1673ffffffffffffffffffffffffffffffffffffffff168152602001908152602001600020600101600082825401925050819055505050949350505050565b6000600360008360001916600019168152602001908152602001600020600301549050919050565b815481835581811511610c3c57818360005260206000209182019101610c3b9190610d0d565b5b505050565b828054828255906000526020600020908101928215610c83579160200282015b82811115610c82578251829060001916905591602001919060010190610c61565b5b509050610c909190610d0d565b5090565b828054828255906000526020600020908101928215610cd0579160200282015b82811115610ccf578251825591602001919060010190610cb4565b5b509050610cdd9190610d32565b5090565b815481835581811511610d0857818360005260206000209182019101610d079190610d32565b5b505050565b610d2f91905b80821115610d2b576000816000905550600101610d13565b5090565b90565b610d5491905b80821115610d50576000816000905550600101610d38565b5090565b905600a165627a7a72305820b8e66ffa0ed9aa950edc9f578f56535851c95d9e32ec97c3f87e8a9075c3eafd0029",
  "source": "pragma solidity ^0.4.19;\nimport \"./Users.sol\";\ncontract Tickets {\n    address usersContract;\n    address public owner;\n    bytes32[] events;\n    mapping(bytes32 => eventObject) eventStore;\n    Users users = Users(usersContract);\n    struct buyer{\n      mapping (bytes32 => uint) ticketQuantity;//type->quantity\n      uint nTickets;\n    }\n    struct seller{\n      uint percReturn;\n      uint nTickets;\n    }\n    struct eventObject{\n      bytes32 id;\n      bytes32 name;\n      //uint startTimeStamp;\n      //uint endTimeStamp;\n      bytes32[] ticketsType;\n      uint maxTicketPerson;\n      uint[] ticketPrices;\n      uint[] ticketLeft;\n      mapping (address => seller) resellers;\n      address[] resellersAddr;\n      mapping (address => buyer) sold;\n      mapping (bytes32 => uint) ticketPricesMap;\n    }\n    //mapping (uint=> eventObject) public eventsmap;\n\n    function getEventsSize() public returns (uint){\n      return events.length;\n    }\n    function getEventName(bytes32 id) public returns (bytes32){\n      return eventStore[id].name;\n    }\n    function getEventTicketPerPerson(bytes32 id) public returns (uint){\n      return eventStore[id].maxTicketPerson;\n    }\n    function getEventTicketBought(bytes32 id, address addr) public returns (uint){\n      return eventStore[id].sold[addr].nTickets;\n    }\n    function addReseller(address addr, uint perc, uint ntickets, bytes32 id ) public{\n      eventStore[id].resellers[addr].percReturn=perc;\n      eventStore[id].resellers[addr].nTickets=ntickets;\n      eventStore[id].resellersAddr.push(addr);\n    }\n    function getResellerLength(bytes32 id) public returns (uint){\n      return eventStore[id].resellersAddr.length;\n    }\n    function getResellerfirstAddr(bytes32 id) public returns (address){\n      return eventStore[id].resellersAddr[0];\n    }\n    function getResellerTicketsAv(bytes32 id) public returns (uint){\n      return eventStore[id].resellers[msg.sender].nTickets;\n    }\n    function addEvent(bytes32 _id, bytes32 _name, bytes32[] _ticketsType, uint _maxTicketPerson, uint[] _ticketPrices, uint[] _ticketLeft) public\n    {\n      events.push(_id);\n      eventStore[_id].id=_id;\n      eventStore[_id].name=_name;\n      //eventStore[_id].startTimeStamp=_startTimeStamp;\n      //eventStore[_id].endTimeStamp=_endTimeStamp;\n      eventStore[_id].ticketsType=_ticketsType;\n      eventStore[_id].maxTicketPerson=_maxTicketPerson;\n      eventStore[_id].ticketPrices=_ticketPrices;\n      eventStore[_id].ticketLeft=_ticketLeft;\n\n    }\n    function Tickets(address _userContract) public{\n      usersContract=_userContract;\n      owner = msg.sender;\n    }\n\n   function buy(bytes32 idEvent, bytes32 typeTicket, uint quantity, address sendFrom) payable public returns (uint) {\n    uint money = msg.value;\n    address sender;\n    //require(quantity <= evento.maxTicketPerson);\n    //require(evento.sold[msg.sender].nticket+quantity<=evento.maxTicketPerson);\n    if(eventStore[idEvent].resellersAddr.length>0){\n      require(eventStore[idEvent].resellers[msg.sender].nTickets>=quantity);\n      sender=sendFrom;\n      eventStore[idEvent].resellers[msg.sender].nTickets-=quantity;\n    }else{\n      //require (block.timestamp > evento.startTimeStamp);\n      //require (block.timestamp < evento.endTimeStamp);\n      //require(eventStore[idEvent].ticketPricesMap[typeTicket]*quantity == money);\n      sender=msg.sender;\n    }\n    require (users.getUserHash(sender)!=0);\n    eventStore[idEvent].sold[sender].ticketQuantity[typeTicket]+=quantity;\n    eventStore[idEvent].sold[sender].nTickets+=quantity;\n  }\n\n\n}\n",
  "sourcePath": "/home/pietro/ethchain/ticketing/contracts/contracts/Tickets.sol",
  "compiler": {
    "name": "solc",
    "version": "0.4.19+commit.c4cbbb05.Emscripten.clang"
  },
  "schemaVersion": "2.0.0",
  "updatedAt": "2018-06-15T16:07:29.312Z"
}