{
  "contractName": "Tickets",
  "abi": [
    {
      "constant": true,
      "inputs": [],
      "name": "owner",
      "outputs": [
        {
          "name": "",
          "type": "address"
        }
      ],
      "payable": false,
      "stateMutability": "view",
      "type": "function"
    },
    {
      "inputs": [
        {
          "name": "_userContract",
          "type": "address"
        }
      ],
      "payable": false,
      "stateMutability": "nonpayable",
      "type": "constructor"
    },
    {
      "constant": false,
      "inputs": [
        {
          "name": "id",
          "type": "bytes32"
        },
        {
          "name": "ticketType",
          "type": "bytes32"
        },
        {
          "name": "price",
          "type": "uint256"
        },
        {
          "name": "quantity",
          "type": "uint256"
        }
      ],
      "name": "sellTicket",
      "outputs": [],
      "payable": false,
      "stateMutability": "nonpayable",
      "type": "function"
    },
    {
      "constant": false,
      "inputs": [
        {
          "name": "id",
          "type": "bytes32"
        },
        {
          "name": "ticketType",
          "type": "bytes32"
        },
        {
          "name": "quantity",
          "type": "uint256"
        }
      ],
      "name": "cancelSellingTicket",
      "outputs": [],
      "payable": false,
      "stateMutability": "nonpayable",
      "type": "function"
    },
    {
      "constant": false,
      "inputs": [
        {
          "name": "id",
          "type": "bytes32"
        },
        {
          "name": "ticketType",
          "type": "bytes32"
        },
        {
          "name": "quantity",
          "type": "uint256"
        },
        {
          "name": "i",
          "type": "uint256"
        }
      ],
      "name": "buySecond",
      "outputs": [],
      "payable": true,
      "stateMutability": "payable",
      "type": "function"
    },
    {
      "constant": false,
      "inputs": [
        {
          "name": "id",
          "type": "bytes32"
        },
        {
          "name": "perc",
          "type": "uint256"
        }
      ],
      "name": "setEventRefund",
      "outputs": [],
      "payable": false,
      "stateMutability": "nonpayable",
      "type": "function"
    },
    {
      "constant": false,
      "inputs": [
        {
          "name": "EventId",
          "type": "bytes32"
        },
        {
          "name": "user",
          "type": "address"
        },
        {
          "name": "perc",
          "type": "uint256"
        }
      ],
      "name": "setUserRefund",
      "outputs": [],
      "payable": false,
      "stateMutability": "nonpayable",
      "type": "function"
    },
    {
      "constant": false,
      "inputs": [
        {
          "name": "idEvento",
          "type": "bytes32"
        }
      ],
      "name": "getRefund",
      "outputs": [],
      "payable": false,
      "stateMutability": "nonpayable",
      "type": "function"
    },
    {
      "constant": false,
      "inputs": [],
      "name": "withdraw",
      "outputs": [
        {
          "name": "",
          "type": "bool"
        }
      ],
      "payable": false,
      "stateMutability": "nonpayable",
      "type": "function"
    },
    {
      "constant": false,
      "inputs": [
        {
          "name": "user",
          "type": "address"
        }
      ],
      "name": "getUserHash",
      "outputs": [
        {
          "name": "",
          "type": "bytes32"
        }
      ],
      "payable": false,
      "stateMutability": "nonpayable",
      "type": "function"
    },
    {
      "constant": false,
      "inputs": [],
      "name": "getEventsSize",
      "outputs": [
        {
          "name": "",
          "type": "uint256"
        }
      ],
      "payable": false,
      "stateMutability": "nonpayable",
      "type": "function"
    },
    {
      "constant": false,
      "inputs": [
        {
          "name": "id",
          "type": "bytes32"
        }
      ],
      "name": "getTicketPrice",
      "outputs": [
        {
          "name": "",
          "type": "uint256"
        }
      ],
      "payable": false,
      "stateMutability": "nonpayable",
      "type": "function"
    },
    {
      "constant": false,
      "inputs": [
        {
          "name": "id",
          "type": "bytes32"
        }
      ],
      "name": "getEventName",
      "outputs": [
        {
          "name": "",
          "type": "bytes32"
        }
      ],
      "payable": false,
      "stateMutability": "nonpayable",
      "type": "function"
    },
    {
      "constant": false,
      "inputs": [
        {
          "name": "id",
          "type": "bytes32"
        }
      ],
      "name": "getEventTicketPerPerson",
      "outputs": [
        {
          "name": "",
          "type": "uint256"
        }
      ],
      "payable": false,
      "stateMutability": "nonpayable",
      "type": "function"
    },
    {
      "constant": false,
      "inputs": [
        {
          "name": "id",
          "type": "bytes32"
        },
        {
          "name": "addr",
          "type": "address"
        }
      ],
      "name": "getEventTicketBought",
      "outputs": [
        {
          "name": "",
          "type": "uint256"
        }
      ],
      "payable": false,
      "stateMutability": "nonpayable",
      "type": "function"
    },
    {
      "constant": false,
      "inputs": [
        {
          "name": "addr",
          "type": "address"
        },
        {
          "name": "perc",
          "type": "uint256"
        },
        {
          "name": "ntickets",
          "type": "uint256"
        },
        {
          "name": "id",
          "type": "bytes32"
        }
      ],
      "name": "addReseller",
      "outputs": [],
      "payable": false,
      "stateMutability": "nonpayable",
      "type": "function"
    },
    {
      "constant": false,
      "inputs": [
        {
          "name": "id",
          "type": "bytes32"
        }
      ],
      "name": "getResellerLength",
      "outputs": [
        {
          "name": "",
          "type": "uint256"
        }
      ],
      "payable": false,
      "stateMutability": "nonpayable",
      "type": "function"
    },
    {
      "constant": false,
      "inputs": [
        {
          "name": "id",
          "type": "bytes32"
        }
      ],
      "name": "getResellerfirstAddr",
      "outputs": [
        {
          "name": "",
          "type": "address"
        }
      ],
      "payable": false,
      "stateMutability": "nonpayable",
      "type": "function"
    },
    {
      "constant": false,
      "inputs": [
        {
          "name": "id",
          "type": "bytes32"
        }
      ],
      "name": "getResellerTicketsAv",
      "outputs": [
        {
          "name": "",
          "type": "uint256"
        }
      ],
      "payable": false,
      "stateMutability": "nonpayable",
      "type": "function"
    },
    {
      "constant": false,
      "inputs": [
        {
          "name": "_id",
          "type": "bytes32"
        },
        {
          "name": "_name",
          "type": "bytes32"
        },
        {
          "name": "_ticketsType",
          "type": "bytes32[]"
        },
        {
          "name": "_maxTicketPerson",
          "type": "uint256"
        },
        {
          "name": "_ticketPrices",
          "type": "uint256[]"
        },
        {
          "name": "_ticketLeft",
          "type": "uint256[]"
        }
      ],
      "name": "addEvent",
      "outputs": [],
      "payable": false,
      "stateMutability": "nonpayable",
      "type": "function"
    },
    {
      "constant": false,
      "inputs": [
        {
          "name": "idEvent",
          "type": "bytes32"
        },
        {
          "name": "typeTicket",
          "type": "bytes32"
        },
        {
          "name": "quantity",
          "type": "uint256"
        },
        {
          "name": "sendFrom",
          "type": "address"
        },
        {
          "name": "rnd2",
          "type": "bytes32"
        }
      ],
      "name": "buy",
      "outputs": [
        {
          "name": "",
          "type": "uint256"
        }
      ],
      "payable": true,
      "stateMutability": "payable",
      "type": "function"
    }
  ],
  "bytecode": "0x6060604052341561000f57600080fd5b60405160208061261d83398101604052808051906020019091905050806000806101000a81548173ffffffffffffffffffffffffffffffffffffffff021916908373ffffffffffffffffffffffffffffffffffffffff1602179055506000809054906101000a900473ffffffffffffffffffffffffffffffffffffffff16600460006101000a81548173ffffffffffffffffffffffffffffffffffffffff021916908373ffffffffffffffffffffffffffffffffffffffff16021790555033600160006101000a81548173ffffffffffffffffffffffffffffffffffffffff021916908373ffffffffffffffffffffffffffffffffffffffff1602179055506000600581905550506124f7806101266000396000f300606060405260043610610112576000357c0100000000000000000000000000000000000000000000000000000000900463ffffffff168063053bcf9a146101175780631646221a146101525780632880487c146101a157806332c4339c1461029e5780633ccfd60b146102db5780634bbf71c21461030857806357ac264e14610343578063643774521461036c5780636bef23d8146103c157806374fe057d1461040457806378ccbd1e1461045e5780637f01ca7d146104c5578063829449c2146104ec5780638be2edc81461055e5780638da5cb5b1461058e5780639506115d146105e357806398bb387b1461061e578063a8c4e37714610676578063c73a839c146106bc578063e2442fa1146106f7575b600080fd5b341561012257600080fd5b61013c600480803560001916906020019091905050610732565b6040518082815260200191505060405180910390f35b341561015d57600080fd5b61019f60048080356000191690602001909190803573ffffffffffffffffffffffffffffffffffffffff1690602001909190803590602001909190505061079a565b005b34156101ac57600080fd5b61029c6004808035600019169060200190919080356000191690602001909190803590602001908201803590602001908080602002602001604051908101604052809392919081815260200183836020028082843782019150505050505091908035906020019091908035906020019082018035906020019080806020026020016040519081016040528093929190818152602001838360200280828437820191505050505050919080359060200190820180359060200190808060200260200160405190810160405280939291908181526020018383602002808284378201915050505050509190505061079f565b005b34156102a957600080fd5b6102d960048080356000191690602001909190803560001916906020019091908035906020019091905050610917565b005b34156102e657600080fd5b6102ee610c61565b604051808215151515815260200191505060405180910390f35b61034160048080356000191690602001909190803560001916906020019091908035906020019091908035906020019091905050610d21565b005b341561034e57600080fd5b610356611035565b6040518082815260200191505060405180910390f35b341561037757600080fd5b6103a3600480803573ffffffffffffffffffffffffffffffffffffffff16906020019091905050611042565b60405180826000191660001916815260200191505060405180910390f35b34156103cc57600080fd5b6103e660048080356000191690602001909190505061112b565b60405180826000191660001916815260200191505060405180910390f35b341561040f57600080fd5b61044860048080356000191690602001909190803573ffffffffffffffffffffffffffffffffffffffff16906020019091905050611153565b6040518082815260200191505060405180910390f35b341561046957600080fd5b6104836004808035600019169060200190919050506111bc565b604051808273ffffffffffffffffffffffffffffffffffffffff1673ffffffffffffffffffffffffffffffffffffffff16815260200191505060405180910390f35b34156104d057600080fd5b6104ea60048080356000191690602001909190505061121d565b005b6105486004808035600019169060200190919080356000191690602001909190803590602001909190803573ffffffffffffffffffffffffffffffffffffffff1690602001909190803560001916906020019091905050611688565b6040518082815260200191505060405180910390f35b341561056957600080fd5b61058c600480803560001916906020019091908035906020019091905050611d18565b005b341561059957600080fd5b6105a1611d1c565b604051808273ffffffffffffffffffffffffffffffffffffffff1673ffffffffffffffffffffffffffffffffffffffff16815260200191505060405180910390f35b34156105ee57600080fd5b610608600480803560001916906020019091905050611d42565b6040518082815260200191505060405180910390f35b341561062957600080fd5b610674600480803573ffffffffffffffffffffffffffffffffffffffff1690602001909190803590602001909190803590602001909190803560001916906020019091905050611d6d565b005b341561068157600080fd5b6106ba60048080356000191690602001909190803560001916906020019091908035906020019091908035906020019091905050611eb8565b005b34156106c757600080fd5b6106e160048080356000191690602001909190505061224e565b6040518082815260200191505060405180910390f35b341561070257600080fd5b61071c60048080356000191690602001909190505061228f565b6040518082815260200191505060405180910390f35b600060036000836000191660001916815260200190815260200160002060060160003373ffffffffffffffffffffffffffffffffffffffff1673ffffffffffffffffffffffffffffffffffffffff168152602001908152602001600020600101549050919050565b505050565b600280548060010182816107b391906122b7565b91600052602060002090016000889091909150906000191690555085600360008860001916600019168152602001908152602001600020600001816000191690555084600360008860001916600019168152602001908152602001600020600101816000191690555083600360008860001916600019168152602001908152602001600020600201908051906020019061084e9291906122e3565b5082600360008860001916600019168152602001908152602001600020600301819055508160036000886000191660001916815260200190815260200160002060040190805190602001906108a4929190612336565b508060036000886000191660001916815260200190815260200160002060050190805190602001906108d7929190612336565b506000600360008860001916600019168152602001908152602001600020600a0160006101000a81548160ff021916908315150217905550505050505050565b600080600091505b600360008660001916600019168152602001908152602001600020600d0180549050821015610c59573373ffffffffffffffffffffffffffffffffffffffff16600360008760001916600019168152602001908152602001600020600d018381548110151561098a57fe5b906000526020600020906004020160020160009054906101000a900473ffffffffffffffffffffffffffffffffffffffff1673ffffffffffffffffffffffffffffffffffffffff16148015610a2257508360001916600360008760001916600019168152602001908152602001600020600d0183815481101515610a0a57fe5b90600052602060002090600402016000015460001916145b15610c4c5782600360008760001916600019168152602001908152602001600020600d0183815481101515610a5357fe5b906000526020600020906004020160010154101515610b405782600360008760001916600019168152602001908152602001600020600d0183815481101515610a9857fe5b9060005260206000209060040201600101600082825403925050819055508260036000876000191660001916815260200190815260200160002060080160003373ffffffffffffffffffffffffffffffffffffffff1673ffffffffffffffffffffffffffffffffffffffff1681526020019081526020016000206000016000866000191660001916815260200190815260200160002060008282540192505081905550610c5a565b829050600360008660001916600019168152602001908152602001600020600d0182815481101515610b6e57fe5b906000526020600020906004020160010154830392506000600360008760001916600019168152602001908152602001600020600d0183815481101515610bb157fe5b9060005260206000209060040201600101819055508060036000876000191660001916815260200190815260200160002060080160003373ffffffffffffffffffffffffffffffffffffffff1673ffffffffffffffffffffffffffffffffffffffff16815260200190815260200160002060000160008660001916600019168152602001908152602001600020600082825401925050819055505b818060010192505061091f565b5b5050505050565b6000806005549050600160009054906101000a900473ffffffffffffffffffffffffffffffffffffffff1673ffffffffffffffffffffffffffffffffffffffff163373ffffffffffffffffffffffffffffffffffffffff16141515610cc557600080fd5b60006005819055503373ffffffffffffffffffffffffffffffffffffffff166108fc829081150290604051600060405180830381858888f193505050501515610d18578060058190555060009150610d1d565b600191505b5090565b6000803391503490506000600102600460009054906101000a900473ffffffffffffffffffffffffffffffffffffffff1673ffffffffffffffffffffffffffffffffffffffff166364377452846000604051602001526040518263ffffffff167c0100000000000000000000000000000000000000000000000000000000028152600401808273ffffffffffffffffffffffffffffffffffffffff1673ffffffffffffffffffffffffffffffffffffffff168152602001915050602060405180830381600087803b1515610df457600080fd5b6102c65a03f11515610e0557600080fd5b50505060405180519050600019161415610e1e57600080fd5b83600360008860001916600019168152602001908152602001600020600301541015610e4957600080fd5b83600360008860001916600019168152602001908152602001600020600d0184815481101515610e7557fe5b9060005260206000209060040201600101541015610e9257600080fd5b3484600360008960001916600019168152602001908152602001600020600d0185815481101515610ebf57fe5b9060005260206000209060040201600301540214156110285783600360008860001916600019168152602001908152602001600020600d0184815481101515610f0457fe5b9060005260206000209060040201600101600082825403925050819055508360036000886000191660001916815260200190815260200160002060080160003373ffffffffffffffffffffffffffffffffffffffff1673ffffffffffffffffffffffffffffffffffffffff16815260200190815260200160002060000160008760001916600019168152602001908152602001600020600082825401925050819055508360036000886000191660001916815260200190815260200160002060080160003373ffffffffffffffffffffffffffffffffffffffff1673ffffffffffffffffffffffffffffffffffffffff168152602001908152602001600020600101600082825401925050819055508060056000828254019250508190555061102d565b600080fd5b505050505050565b6000600280549050905090565b6000600460009054906101000a900473ffffffffffffffffffffffffffffffffffffffff1673ffffffffffffffffffffffffffffffffffffffff166364377452836000604051602001526040518263ffffffff167c0100000000000000000000000000000000000000000000000000000000028152600401808273ffffffffffffffffffffffffffffffffffffffff1673ffffffffffffffffffffffffffffffffffffffff168152602001915050602060405180830381600087803b151561110957600080fd5b6102c65a03f1151561111a57600080fd5b505050604051805190509050919050565b6000600360008360001916600019168152602001908152602001600020600101549050919050565b600060036000846000191660001916815260200190815260200160002060080160008373ffffffffffffffffffffffffffffffffffffffff1673ffffffffffffffffffffffffffffffffffffffff16815260200190815260200160002060010154905092915050565b600060036000836000191660001916815260200190815260200160002060070160008154811015156111ea57fe5b906000526020600020900160009054906101000a900473ffffffffffffffffffffffffffffffffffffffff169050919050565b60008060036000846000191660001916815260200190815260200160002060080160003373ffffffffffffffffffffffffffffffffffffffff1673ffffffffffffffffffffffffffffffffffffffff16815260200190815260200160002060020160009054906101000a900460ff16151561129757600080fd5b60009150600090505b6003600084600019166000191681526020019081526020016000206002018054905081101561164357600060036000856000191660001916815260200190815260200160002060080160003373ffffffffffffffffffffffffffffffffffffffff1673ffffffffffffffffffffffffffffffffffffffff16815260200190815260200160002060000160006003600087600019166000191681526020019081526020016000206002018481548110151561135657fe5b906000526020600020900154600019166000191681526020019081526020016000205411156116365760036000846000191660001916815260200190815260200160002060080160003373ffffffffffffffffffffffffffffffffffffffff1673ffffffffffffffffffffffffffffffffffffffff16815260200190815260200160002060000160006003600086600019166000191681526020019081526020016000206002018381548110151561140a57fe5b90600052602060002090015460001916600019168152602001908152602001600020546003600085600019166000191681526020019081526020016000206004018281548110151561145857fe5b906000526020600020900154028201915060036000846000191660001916815260200190815260200160002060080160003373ffffffffffffffffffffffffffffffffffffffff1673ffffffffffffffffffffffffffffffffffffffff1681526020019081526020016000206000016000600360008660001916600019168152602001908152602001600020600201838154811015156114f457fe5b906000526020600020900154600019166000191681526020019081526020016000205460036000856000191660001916815260200190815260200160002060080160003373ffffffffffffffffffffffffffffffffffffffff1673ffffffffffffffffffffffffffffffffffffffff16815260200190815260200160002060010160008282540392505081905550600060036000856000191660001916815260200190815260200160002060080160003373ffffffffffffffffffffffffffffffffffffffff1673ffffffffffffffffffffffffffffffffffffffff16815260200190815260200160002060000160006003600087600019166000191681526020019081526020016000206002018481548110151561160f57fe5b90600052602060002090015460001916600019168152602001908152602001600020819055505b80806001019150506112a0565b6000821115611683573373ffffffffffffffffffffffffffffffffffffffff166108fc839081150290604051600060405180830381858888f19350505050505b505050565b600080600080349250600090505b600360008a6000191660001916815260200190815260200160002060020180549050811015611717578760001916600360008b60001916600019168152602001908152602001600020600201828154811015156116ef57fe5b90600052602060002090015460001916141561170a57611717565b8080600101915050611696565b86600360008b600019166000191681526020019081526020016000206005018281548110151561174357fe5b906000526020600020900154101561175a57600080fd5b6000600360008b6000191660001916815260200190815260200160002060070180549050111561186e5786600360008b6000191660001916815260200190815260200160002060060160003373ffffffffffffffffffffffffffffffffffffffff1673ffffffffffffffffffffffffffffffffffffffff1681526020019081526020016000206001015410806117f05750600087145b156117fa57600080fd5b85915086600360008b6000191660001916815260200190815260200160002060060160003373ffffffffffffffffffffffffffffffffffffffff1673ffffffffffffffffffffffffffffffffffffffff168152602001908152602001600020600101600082825403925050819055506118c3565b8287600360008c6000191660001916815260200190815260200160002060090160008b60001916600019168152602001908152602001600020540211806118b55750600087145b156118bf57600080fd5b3391505b6000600360008b6000191660001916815260200190815260200160002060080160008473ffffffffffffffffffffffffffffffffffffffff1673ffffffffffffffffffffffffffffffffffffffff1681526020019081526020016000206001015411156119ba57600360008a600019166000191681526020019081526020016000206003015487600360008c6000191660001916815260200190815260200160002060080160008573ffffffffffffffffffffffffffffffffffffffff1673ffffffffffffffffffffffffffffffffffffffff168152602001908152602001600020600101540111156119b557600080fd5b6119e6565b600360008a60001916600019168152602001908152602001600020600301548711156119e557600080fd5b5b6000600102600460009054906101000a900473ffffffffffffffffffffffffffffffffffffffff1673ffffffffffffffffffffffffffffffffffffffff166364377452846000604051602001526040518263ffffffff167c0100000000000000000000000000000000000000000000000000000000028152600401808273ffffffffffffffffffffffffffffffffffffffff1673ffffffffffffffffffffffffffffffffffffffff168152602001915050602060405180830381600087803b1515611ab057600080fd5b6102c65a03f11515611ac157600080fd5b50505060405180519050600019161415611ada57600080fd5b600090505b600360008a6000191660001916815260200190815260200160002060020180549050811015611b60578760001916600360008b6000191660001916815260200190815260200160002060020182815481101515611b3857fe5b906000526020600020900154600019161415611b5357611b60565b8080600101915050611adf565b86600360008b6000191660001916815260200190815260200160002060050182815481101515611b8c57fe5b90600052602060002090016000828254039250508190555086600360008b6000191660001916815260200190815260200160002060080160008473ffffffffffffffffffffffffffffffffffffffff1673ffffffffffffffffffffffffffffffffffffffff16815260200190815260200160002060000160008a600019166000191681526020019081526020016000206000828254019250508190555086600360008b6000191660001916815260200190815260200160002060080160008473ffffffffffffffffffffffffffffffffffffffff1673ffffffffffffffffffffffffffffffffffffffff1681526020019081526020016000206001016000828254019250508190555084600360008b6000191660001916815260200190815260200160002060080160008473ffffffffffffffffffffffffffffffffffffffff1673ffffffffffffffffffffffffffffffffffffffff16815260200190815260200160002060030181600019169055508260056000828254019250508190555050505095945050505050565b5050565b600160009054906101000a900473ffffffffffffffffffffffffffffffffffffffff1681565b6000600360008360001916600019168152602001908152602001600020600701805490509050919050565b8260036000836000191660001916815260200190815260200160002060060160008673ffffffffffffffffffffffffffffffffffffffff1673ffffffffffffffffffffffffffffffffffffffff168152602001908152602001600020600001819055508160036000836000191660001916815260200190815260200160002060060160008673ffffffffffffffffffffffffffffffffffffffff1673ffffffffffffffffffffffffffffffffffffffff168152602001908152602001600020600101819055506003600082600019166000191681526020019081526020016000206007018054806001018281611e639190612383565b9160005260206000209001600086909190916101000a81548173ffffffffffffffffffffffffffffffffffffffff021916908373ffffffffffffffffffffffffffffffffffffffff1602179055505050505050565b600080611ec36123af565b8360036000896000191660001916815260200190815260200160002060080160003373ffffffffffffffffffffffffffffffffffffffff1673ffffffffffffffffffffffffffffffffffffffff168152602001908152602001600020600001600088600019166000191681526020019081526020016000205410151515611f4957600080fd5b600092505b60036000886000191660001916815260200190815260200160002060020180549050831015611fcf57856000191660036000896000191660001916815260200190815260200160002060020184815481101515611fa757fe5b906000526020600020900154600019161415611fc257611fcf565b8280600101935050611f4e565b6064600360008960001916600019168152602001908152602001600020600c01546064600360008b600019166000191681526020019081526020016000206004018681548110151561201d57fe5b9060005260206000209001540281151561203357fe5b0481151561203d57fe5b0491508482600360008a600019166000191681526020019081526020016000206004018581548110151561206d57fe5b906000526020600020900154031015151561208757600080fd5b8482600360008a60001916600019168152602001908152602001600020600401858154811015156120b457fe5b90600052602060002090015401111515156120ce57600080fd5b8360036000896000191660001916815260200190815260200160002060080160003373ffffffffffffffffffffffffffffffffffffffff1673ffffffffffffffffffffffffffffffffffffffff1681526020019081526020016000206000016000886000191660001916815260200190815260200160002060008282540392505081905550608060405190810160405280876000191681526020018581526020013373ffffffffffffffffffffffffffffffffffffffff168152602001868152509050600360008860001916600019168152602001908152602001600020600d0180548060010182816121c191906123f1565b91600052602060002090600402016000839091909150600082015181600001906000191690556020820151816001015560408201518160020160006101000a81548173ffffffffffffffffffffffffffffffffffffffff021916908373ffffffffffffffffffffffffffffffffffffffff1602179055506060820151816003015550505050505050505050565b6000600360008360001916600019168152602001908152602001600020600401600081548110151561227c57fe5b9060005260206000209001549050919050565b6000600360008360001916600019168152602001908152602001600020600301549050919050565b8154818355818115116122de578183600052602060002091820191016122dd9190612423565b5b505050565b828054828255906000526020600020908101928215612325579160200282015b82811115612324578251829060001916905591602001919060010190612303565b5b5090506123329190612423565b5090565b828054828255906000526020600020908101928215612372579160200282015b82811115612371578251825591602001919060010190612356565b5b50905061237f9190612448565b5090565b8154818355818115116123aa578183600052602060002091820191016123a99190612448565b5b505050565b6080604051908101604052806000801916815260200160008152602001600073ffffffffffffffffffffffffffffffffffffffff168152602001600081525090565b81548183558181151161241e5760040281600402836000526020600020918201910161241d919061246d565b5b505050565b61244591905b80821115612441576000816000905550600101612429565b5090565b90565b61246a91905b8082111561246657600081600090555060010161244e565b5090565b90565b6124c891905b808211156124c45760008082016000905560018201600090556002820160006101000a81549073ffffffffffffffffffffffffffffffffffffffff0219169055600382016000905550600401612473565b5090565b905600a165627a7a7230582041e6f14ce20c9004f7407918fc5590c90130d974cbc15d26b6e21fac191e5f930029",
  "source": "pragma solidity ^0.4.19;\nimport \"./Users.sol\";\ncontract Tickets {\n    address usersContract;\n    address public owner;\n    bytes32[] events;\n    mapping(bytes32 => eventObject) eventStore;\n    Users users;\n    struct buyer{\n      mapping (bytes32 => uint) ticketQuantity;//type->quantity\n      uint nTickets;\n      bool refund;\n      bytes32 rnd2;\n    }\n    struct sellingTicket{\n      bytes32 ticketType;\n      uint quantity;\n      address user;\n      uint price;\n    }\n    struct seller{\n      uint percReturn;\n      uint nTickets;\n    }\n    struct eventObject{\n      bytes32 id;\n      bytes32 name;\n      //uint startTimeStamp;\n      //uint endTimeStamp;\n      bytes32[] ticketsType;\n      uint maxTicketPerson;\n      uint[] ticketPrices;\n      uint[] ticketLeft;\n      mapping (address => seller) resellers;\n      address[] resellersAddr;\n      mapping (address => buyer) sold;\n      mapping (bytes32 => uint) ticketPricesMap;\n      bool refund;\n      uint refundPerc;\n      //user sell their tickets\n      uint sellingPerc;\n      sellingTicket[] selling;\n    }\n    function sellTicket(bytes32 id, bytes32 ticketType, uint price, uint quantity ){\n      //l'utente ha la quantit\n      require(eventStore[id].sold[msg.sender].ticketQuantity[ticketType]>=quantity);\n      //il prezzo  nel range corretto\n      uint i;\n      for(i=0; i<eventStore[id].ticketsType.length;i++){\n        if(eventStore[id].ticketsType[i]==ticketType)\n        break;\n      }\n\n      uint priceperc = eventStore[id].ticketPrices[i]*100/eventStore[id].sellingPerc/100;\n      require(eventStore[id].ticketPrices[i]-priceperc>=price);\n      require(eventStore[id].ticketPrices[i]+priceperc<=price);\n      //diminuisce quantit all'Utente\n      eventStore[id].sold[msg.sender].ticketQuantity[ticketType]-=quantity;\n      //inserisce biglietti in vendita\n\n      sellingTicket memory item= sellingTicket({ticketType:ticketType, quantity:quantity, user:msg.sender, price:price});\n      eventStore[id].selling.push(item);\n    }\n    function cancelSellingTicket(bytes32 id, bytes32 ticketType, uint quantity){\n      //rimuove dalla vendita i biglietti\n      uint i;\n      for(i=0;i<eventStore[id].selling.length;i++){\n        if(eventStore[id].selling[i].user==msg.sender && eventStore[id].selling[i].ticketType==ticketType){\n          if(eventStore[id].selling[i].quantity>=quantity){\n            eventStore[id].selling[i].quantity-=quantity;\n            eventStore[id].sold[msg.sender].ticketQuantity[ticketType]+=quantity;\n            return;\n          }else{\n            uint tmp=quantity;\n            quantity-=eventStore[id].selling[i].quantity;\n            eventStore[id].selling[i].quantity=0;\n            eventStore[id].sold[msg.sender].ticketQuantity[ticketType]+=tmp;\n          }\n\n        }\n      }\n\n    }\n\n    function buySecond(bytes32 id, bytes32 ticketType, uint quantity, uint i ) payable public{\n      //se autorizzato, se prezzo giusto, ecc...\n      //rimuovi biglietti dalla vendita\n      //aggiungi biglietti al nuovo proprietario\n      address sender=msg.sender;\n      uint money = msg.value;\n      if(users.getUserHash(sender)==0){\n        revert();\n      }\n      if(eventStore[id].maxTicketPerson<quantity){\n        revert();\n      }\n      if(eventStore[id].selling[i].quantity<quantity){\n        revert();\n      }\n\n      if(eventStore[id].selling[i].price*quantity==msg.value ){\n        eventStore[id].selling[i].quantity-=quantity;\n        eventStore[id].sold[msg.sender].ticketQuantity[ticketType]+=quantity;\n        eventStore[id].sold[msg.sender].nTickets+=quantity;\n        fund+=money;\n      }else{\n        revert();\n      }\n\n\n    }\n    function setEventRefund(bytes32 id, uint perc){\n\n    }\n    function setUserRefund(bytes32 EventId, address user, uint perc){\n\n    }\n    function getRefund(bytes32 idEvento){\n      require(eventStore[idEvento].sold[msg.sender].refund);\n      uint quantityRef=0;\n      for(uint i=0;i<eventStore[idEvento].ticketsType.length;i++){\n        if(eventStore[idEvento].sold[msg.sender].ticketQuantity[eventStore[idEvento].ticketsType[i]]>0){\n          quantityRef+=eventStore[idEvento].ticketPrices[i]*eventStore[idEvento].sold[msg.sender].ticketQuantity[eventStore[idEvento].ticketsType[i]];\n          eventStore[idEvento].sold[msg.sender].nTickets-=eventStore[idEvento].sold[msg.sender].ticketQuantity[eventStore[idEvento].ticketsType[i]];\n          eventStore[idEvento].sold[msg.sender].ticketQuantity[eventStore[idEvento].ticketsType[i]]=0;\n        }\n      }\n      if(quantityRef>0){\n        msg.sender.send(quantityRef);\n      }\n\n    }\n    uint fund;\n    function withdraw() public returns (bool){\n      uint amount=fund;\n      require(msg.sender==owner);\n      fund=0;\n      if (!msg.sender.send(amount)) {\n        fund = amount;\n        return false;\n      }\n      return true;\n    }\n    //mapping (uint=> eventObject) public eventsmap;\n    function getUserHash(address user) public returns (bytes32){\n      return users.getUserHash(user);\n    }\n    function getEventsSize() public returns (uint){\n      return events.length;\n    }\n    function getTicketPrice(bytes32 id) public returns (uint){\n      return eventStore[id].ticketPrices[0];\n    }\n    function getEventName(bytes32 id) public returns (bytes32){\n      return eventStore[id].name;\n    }\n    function getEventTicketPerPerson(bytes32 id) public returns (uint){\n      return eventStore[id].maxTicketPerson;\n    }\n    function getEventTicketBought(bytes32 id, address addr) public returns (uint){\n      return eventStore[id].sold[addr].nTickets;\n    }\n    function addReseller(address addr, uint perc, uint ntickets, bytes32 id ) public{\n      eventStore[id].resellers[addr].percReturn=perc;\n      eventStore[id].resellers[addr].nTickets=ntickets;\n      eventStore[id].resellersAddr.push(addr);\n    }\n    function getResellerLength(bytes32 id) public returns (uint){\n      return eventStore[id].resellersAddr.length;\n    }\n    function getResellerfirstAddr(bytes32 id) public returns (address){\n      return eventStore[id].resellersAddr[0];\n    }\n    function getResellerTicketsAv(bytes32 id) public returns (uint){\n      return eventStore[id].resellers[msg.sender].nTickets;\n    }\n    function addEvent(bytes32 _id, bytes32 _name, bytes32[] _ticketsType, uint _maxTicketPerson, uint[] _ticketPrices, uint[] _ticketLeft) public\n    {\n      events.push(_id);\n      eventStore[_id].id=_id;\n      eventStore[_id].name=_name;\n      //eventStore[_id].startTimeStamp=_startTimeStamp;\n      //eventStore[_id].endTimeStamp=_endTimeStamp;\n      eventStore[_id].ticketsType=_ticketsType;\n      eventStore[_id].maxTicketPerson=_maxTicketPerson;\n      eventStore[_id].ticketPrices=_ticketPrices;\n      eventStore[_id].ticketLeft=_ticketLeft;\n      eventStore[_id].refund=false;\n\n    }\n    function Tickets(address _userContract) public{\n      usersContract=_userContract;\n      users=Users(usersContract);\n      owner = msg.sender;\n      fund=0;\n    }\n\n   function buy(bytes32 idEvent, bytes32 typeTicket, uint quantity, address sendFrom, bytes32 rnd2) payable public returns (uint) {\n    uint money = msg.value;\n    address sender;\n    for (i=0;i<eventStore[idEvent].ticketsType.length;i++){\n      if(eventStore[idEvent].ticketsType[i]==typeTicket){\n        break;\n      }\n    }\n    if(eventStore[idEvent].ticketLeft[i] < quantity){\n      revert();\n    }\n    //require(quantity <= evento.maxTicketPerson);\n    //require(evento.sold[msg.sender].nticket+quantity<=evento.maxTicketPerson);\n    if(eventStore[idEvent].resellersAddr.length>0){\n      if(eventStore[idEvent].resellers[msg.sender].nTickets<quantity || quantity==0){\n        revert();\n      }\n      sender=sendFrom;\n      eventStore[idEvent].resellers[msg.sender].nTickets-=quantity;//va spostato in caso una require vada male\n    }else{\n      //require (block.timestamp > evento.startTimeStamp);\n      //require (block.timestamp < evento.endTimeStamp);\n      if(eventStore[idEvent].ticketPricesMap[typeTicket]*quantity > money || quantity==0){\n        revert();\n      }\n      sender=msg.sender;\n    }\n    if(eventStore[idEvent].sold[sender].nTickets>0){\n      if(eventStore[idEvent].sold[sender].nTickets+quantity>eventStore[idEvent].maxTicketPerson){//scazza\n          revert();\n      }\n    }else{\n      if(quantity>eventStore[idEvent].maxTicketPerson){\n          revert();\n      }\n\n    }\n    if(users.getUserHash(sender)==0){\n      revert();\n    }\n    uint i;\n    for (i=0;i<eventStore[idEvent].ticketsType.length;i++){\n      if(eventStore[idEvent].ticketsType[i]==typeTicket){\n        break;\n      }\n    }\n    eventStore[idEvent].ticketLeft[i]-=quantity;\n    eventStore[idEvent].sold[sender].ticketQuantity[typeTicket]+=quantity;\n    eventStore[idEvent].sold[sender].nTickets+=quantity;\n    eventStore[idEvent].sold[sender].rnd2=rnd2;\n    fund+=money;\n  }\n}\n",
  "sourcePath": "/home/pietro/ethchain/ticketing/contracts/contracts/Tickets.sol",
  "compiler": {
    "name": "solc",
    "version": "0.4.19+commit.c4cbbb05.Emscripten.clang"
  },
  "schemaVersion": "2.0.0",
  "updatedAt": "2018-08-09T12:54:37.034Z"
}