{
  "contractName": "ValidatedAddresses",
  "abi": [
    {
      "constant": true,
      "inputs": [],
      "name": "owner",
      "outputs": [
        {
          "name": "",
          "type": "address"
        }
      ],
      "payable": false,
      "stateMutability": "view",
      "type": "function"
    },
    {
      "inputs": [],
      "payable": false,
      "stateMutability": "nonpayable",
      "type": "constructor"
    },
    {
      "constant": false,
      "inputs": [
        {
          "name": "_account",
          "type": "address"
        }
      ],
      "name": "isUserValidated",
      "outputs": [
        {
          "name": "",
          "type": "bool"
        }
      ],
      "payable": false,
      "stateMutability": "nonpayable",
      "type": "function"
    },
    {
      "constant": false,
      "inputs": [
        {
          "name": "_account",
          "type": "address"
        }
      ],
      "name": "getUserChallange",
      "outputs": [
        {
          "name": "",
          "type": "bytes32"
        }
      ],
      "payable": false,
      "stateMutability": "nonpayable",
      "type": "function"
    },
    {
      "constant": false,
      "inputs": [
        {
          "name": "_account",
          "type": "address"
        }
      ],
      "name": "setNewUser",
      "outputs": [],
      "payable": false,
      "stateMutability": "nonpayable",
      "type": "function"
    },
    {
      "constant": false,
      "inputs": [
        {
          "name": "response",
          "type": "bytes32"
        }
      ],
      "name": "challange",
      "outputs": [],
      "payable": false,
      "stateMutability": "nonpayable",
      "type": "function"
    },
    {
      "constant": false,
      "inputs": [
        {
          "name": "_account",
          "type": "address"
        }
      ],
      "name": "disableUser",
      "outputs": [],
      "payable": false,
      "stateMutability": "nonpayable",
      "type": "function"
    }
  ],
  "bytecode": "0x6060604052341561000f57600080fd5b33600260006101000a81548173ffffffffffffffffffffffffffffffffffffffff021916908373ffffffffffffffffffffffffffffffffffffffff1602179055506104878061005f6000396000f300606060405260043610610078576000357c0100000000000000000000000000000000000000000000000000000000900463ffffffff16806341e84c791461007d57806385d35f23146100b65780638da5cb5b1461010b578063d3f49a8714610160578063e491f48b14610187578063ee6649a1146101d8575b600080fd5b341561008857600080fd5b6100b4600480803573ffffffffffffffffffffffffffffffffffffffff16906020019091905050610211565b005b34156100c157600080fd5b6100ed600480803573ffffffffffffffffffffffffffffffffffffffff169060200190919050506102b4565b60405180826000191660001916815260200191505060405180910390f35b341561011657600080fd5b61011e6102fc565b604051808273ffffffffffffffffffffffffffffffffffffffff1673ffffffffffffffffffffffffffffffffffffffff16815260200191505060405180910390f35b341561016b57600080fd5b610185600480803560001916906020019091905050610322565b005b341561019257600080fd5b6101be600480803573ffffffffffffffffffffffffffffffffffffffff1690602001909190505061036c565b604051808215151515815260200191505060405180910390f35b34156101e357600080fd5b61020f600480803573ffffffffffffffffffffffffffffffffffffffff169060200190919050506103b7565b005b600260009054906101000a900473ffffffffffffffffffffffffffffffffffffffff1673ffffffffffffffffffffffffffffffffffffffff163373ffffffffffffffffffffffffffffffffffffffff1614151561026d57600080fd5b60018060008373ffffffffffffffffffffffffffffffffffffffff1673ffffffffffffffffffffffffffffffffffffffff1681526020019081526020016000208190555050565b60008060008373ffffffffffffffffffffffffffffffffffffffff1673ffffffffffffffffffffffffffffffffffffffff168152602001908152602001600020549050919050565b600260009054906101000a900473ffffffffffffffffffffffffffffffffffffffff1681565b806000803373ffffffffffffffffffffffffffffffffffffffff1673ffffffffffffffffffffffffffffffffffffffff168152602001908152602001600020816000191690555050565b600060018060008473ffffffffffffffffffffffffffffffffffffffff1673ffffffffffffffffffffffffffffffffffffffff16815260200190815260200160002054149050919050565b600260009054906101000a900473ffffffffffffffffffffffffffffffffffffffff1673ffffffffffffffffffffffffffffffffffffffff163373ffffffffffffffffffffffffffffffffffffffff1614151561041357600080fd5b6000600160008373ffffffffffffffffffffffffffffffffffffffff1673ffffffffffffffffffffffffffffffffffffffff16815260200190815260200160002081905550505600a165627a7a72305820385b47c6bd387a1f06b1b4fb0a7e388cfd6d69c0086bb2c6629508b68ae06c590029",
  "source": "pragma solidity ^0.4.19;\r\ncontract ValidatedAddresses{\r\n    mapping (address => bytes32) private usersChallange;\r\n    mapping (address => uint) private validatedUsers; //1 active, 0 disabled\r\n    address public owner;\r\n\r\n    function ValidatedAddresses() public {\r\n        owner = msg.sender;\r\n    }\r\n    function isUserValidated(address _account) public returns (bool) {\r\n        return validatedUsers[_account]==1;\r\n    }\r\n    function getUserChallange(address _account) public returns (bytes32){\r\n        return usersChallange[_account];\r\n    }\r\n    function setNewUser(address _account) public{\r\n      require(msg.sender==owner);\r\n      validatedUsers[_account]=1;\r\n    }\r\n    function challange(bytes32 response) public {\r\n        usersChallange[msg.sender]=response;\r\n    }\r\n    function disableUser(address _account) public{\r\n        require(msg.sender==owner);\r\n        validatedUsers[_account]=0;\r\n    }\r\n}\r\n",
  "sourcePath": "C:\\Users\\Pietro\\ticketingeth\\contracts\\contracts\\ValidatedAddresses.sol",
  "compiler": {
    "name": "solc",
    "version": "0.4.19+commit.c4cbbb05.Emscripten.clang"
  },
  "schemaVersion": "2.0.0",
  "updatedAt": "2018-09-26T17:20:32.670Z"
}