{
  "contractName": "Events",
  "abi": [
    {
      "constant": true,
      "inputs": [],
      "name": "owner",
      "outputs": [
        {
          "name": "",
          "type": "address"
        }
      ],
      "payable": false,
      "stateMutability": "view",
      "type": "function"
    },
    {
      "inputs": [
        {
          "name": "_userContract",
          "type": "address"
        }
      ],
      "payable": false,
      "stateMutability": "nonpayable",
      "type": "constructor"
    },
    {
      "constant": false,
      "inputs": [
        {
          "name": "_idEvent",
          "type": "bytes32"
        },
        {
          "name": "_ticketsType",
          "type": "bytes32"
        },
        {
          "name": "_quantity",
          "type": "uint256"
        },
        {
          "name": "_t",
          "type": "bytes32[]"
        }
      ],
      "name": "cancelSellingTicket",
      "outputs": [],
      "payable": false,
      "stateMutability": "nonpayable",
      "type": "function"
    },
    {
      "constant": false,
      "inputs": [
        {
          "name": "_idEvent",
          "type": "bytes32"
        },
        {
          "name": "_ticketsType",
          "type": "bytes32"
        },
        {
          "name": "_quantity",
          "type": "uint256"
        },
        {
          "name": "_i",
          "type": "uint256"
        },
        {
          "name": "_t",
          "type": "bytes32[]"
        }
      ],
      "name": "buySecond",
      "outputs": [],
      "payable": true,
      "stateMutability": "payable",
      "type": "function"
    },
    {
      "constant": false,
      "inputs": [
        {
          "name": "_idEvent",
          "type": "bytes32"
        },
        {
          "name": "_ticketsType",
          "type": "bytes32"
        },
        {
          "name": "_refundAmount",
          "type": "uint256"
        }
      ],
      "name": "setRefundByType",
      "outputs": [],
      "payable": false,
      "stateMutability": "nonpayable",
      "type": "function"
    },
    {
      "constant": false,
      "inputs": [
        {
          "name": "_idEvent",
          "type": "bytes32"
        },
        {
          "name": "_ticketsType",
          "type": "bytes32"
        },
        {
          "name": "_user",
          "type": "address"
        },
        {
          "name": "_quantity",
          "type": "uint256"
        },
        {
          "name": "refundAmount",
          "type": "uint256"
        }
      ],
      "name": "setSingleRefund",
      "outputs": [],
      "payable": false,
      "stateMutability": "nonpayable",
      "type": "function"
    },
    {
      "constant": false,
      "inputs": [],
      "name": "getEventsSize",
      "outputs": [
        {
          "name": "",
          "type": "uint256"
        }
      ],
      "payable": false,
      "stateMutability": "nonpayable",
      "type": "function"
    },
    {
      "constant": false,
      "inputs": [
        {
          "name": "_idEvent",
          "type": "bytes32"
        },
        {
          "name": "_type",
          "type": "bytes32"
        }
      ],
      "name": "getTicketPrice",
      "outputs": [
        {
          "name": "",
          "type": "uint256"
        }
      ],
      "payable": false,
      "stateMutability": "nonpayable",
      "type": "function"
    },
    {
      "constant": false,
      "inputs": [
        {
          "name": "_idEvent",
          "type": "bytes32"
        }
      ],
      "name": "getEventName",
      "outputs": [
        {
          "name": "",
          "type": "bytes32"
        }
      ],
      "payable": false,
      "stateMutability": "nonpayable",
      "type": "function"
    },
    {
      "constant": false,
      "inputs": [
        {
          "name": "_idEvent",
          "type": "bytes32"
        }
      ],
      "name": "getEventTicketPerPerson",
      "outputs": [
        {
          "name": "",
          "type": "uint256"
        }
      ],
      "payable": false,
      "stateMutability": "nonpayable",
      "type": "function"
    },
    {
      "constant": false,
      "inputs": [
        {
          "name": "_idEvent",
          "type": "bytes32"
        },
        {
          "name": "_addr",
          "type": "address"
        }
      ],
      "name": "getEventTicketBought",
      "outputs": [
        {
          "name": "",
          "type": "uint256"
        }
      ],
      "payable": false,
      "stateMutability": "nonpayable",
      "type": "function"
    },
    {
      "constant": false,
      "inputs": [
        {
          "name": "_addr",
          "type": "address"
        },
        {
          "name": "_idEvent",
          "type": "bytes32"
        }
      ],
      "name": "addReseller",
      "outputs": [],
      "payable": false,
      "stateMutability": "nonpayable",
      "type": "function"
    },
    {
      "constant": false,
      "inputs": [
        {
          "name": "_idEvent",
          "type": "bytes32"
        }
      ],
      "name": "getResellerLength",
      "outputs": [
        {
          "name": "",
          "type": "uint256"
        }
      ],
      "payable": false,
      "stateMutability": "nonpayable",
      "type": "function"
    },
    {
      "constant": false,
      "inputs": [
        {
          "name": "_idEvent",
          "type": "bytes32"
        },
        {
          "name": "_resellerIndex",
          "type": "uint256"
        }
      ],
      "name": "getResellerfirstAddr",
      "outputs": [
        {
          "name": "",
          "type": "address"
        }
      ],
      "payable": false,
      "stateMutability": "nonpayable",
      "type": "function"
    },
    {
      "constant": false,
      "inputs": [
        {
          "name": "_idEvent",
          "type": "bytes32"
        },
        {
          "name": "_t",
          "type": "bytes32[]"
        },
        {
          "name": "_quantity",
          "type": "uint256[]"
        },
        {
          "name": "_ticketsType",
          "type": "bytes32"
        },
        {
          "name": "_ticketsPrice",
          "type": "uint256"
        }
      ],
      "name": "sellTickets",
      "outputs": [],
      "payable": false,
      "stateMutability": "nonpayable",
      "type": "function"
    },
    {
      "constant": false,
      "inputs": [
        {
          "name": "_idEvent",
          "type": "bytes32"
        },
        {
          "name": "_name",
          "type": "bytes32"
        },
        {
          "name": "_ticketsType",
          "type": "bytes32[]"
        },
        {
          "name": "_maxTicketPerson",
          "type": "uint256"
        },
        {
          "name": "_ticketsPrices",
          "type": "uint256[]"
        },
        {
          "name": "_ticketsLeft",
          "type": "uint256[]"
        },
        {
          "name": "_startTimeStamp",
          "type": "uint256"
        },
        {
          "name": "_endTimeStamp",
          "type": "uint256"
        },
        {
          "name": "_lowSecMarket",
          "type": "uint256[]"
        },
        {
          "name": "_upSecMarket",
          "type": "uint256[]"
        }
      ],
      "name": "addEvent",
      "outputs": [],
      "payable": false,
      "stateMutability": "nonpayable",
      "type": "function"
    },
    {
      "constant": false,
      "inputs": [
        {
          "name": "_idEvent",
          "type": "bytes32"
        },
        {
          "name": "_ticketsType",
          "type": "bytes32"
        },
        {
          "name": "_quantity",
          "type": "uint256"
        },
        {
          "name": "_sentFrom",
          "type": "address"
        },
        {
          "name": "_t",
          "type": "bytes32[]"
        }
      ],
      "name": "buy",
      "outputs": [
        {
          "name": "",
          "type": "uint256"
        }
      ],
      "payable": true,
      "stateMutability": "payable",
      "type": "function"
    }
  ],
  "bytecode": "0x6060604052341561000f57600080fd5b60405160208061339b83398101604052808051906020019091905050806000806101000a81548173ffffffffffffffffffffffffffffffffffffffff021916908373ffffffffffffffffffffffffffffffffffffffff1602179055506000809054906101000a900473ffffffffffffffffffffffffffffffffffffffff16600560006101000a81548173ffffffffffffffffffffffffffffffffffffffff021916908373ffffffffffffffffffffffffffffffffffffffff16021790555033600160006101000a81548173ffffffffffffffffffffffffffffffffffffffff021916908373ffffffffffffffffffffffffffffffffffffffff160217905550600060038190555050613275806101266000396000f3006060604052600436106100e6576000357c0100000000000000000000000000000000000000000000000000000000900463ffffffff168063517052a8146100eb57806351bb1ceb1461016657806357ac264e1461020b57806366372b6b146102345780636bef23d81461027a5780636d631213146102bd57806374fe057d1461044c578063797ed615146104a65780638da5cb5b1461051657806391b63ed51461056b5780639274f693146105d05780639506115d1461060d578063958c473114610648578063be28121d146106c5578063cc79cfd514610782578063e2442fa1146107ca575b600080fd5b6101646004808035600019169060200190919080356000191690602001909190803590602001909190803590602001909190803590602001908201803590602001908080602002602001604051908101604052809392919081815260200183836020028082843782019150505050505091905050610805565b005b6101f56004808035600019169060200190919080356000191690602001909190803590602001909190803573ffffffffffffffffffffffffffffffffffffffff169060200190919080359060200190820180359060200190808060200260200160405190810160405280939291908181526020018383602002808284378201915050505050509190505061115f565b6040518082815260200191505060405180910390f35b341561021657600080fd5b61021e611938565b6040518082815260200191505060405180910390f35b341561023f57600080fd5b610278600480803573ffffffffffffffffffffffffffffffffffffffff1690602001909190803560001916906020019091905050611945565b005b341561028557600080fd5b61029f600480803560001916906020019091905050611a2c565b60405180826000191660001916815260200191505060405180910390f35b34156102c857600080fd5b61044a600480803560001916906020019091908035600019169060200190919080359060200190820180359060200190808060200260200160405190810160405280939291908181526020018383602002808284378201915050505050509190803590602001909190803590602001908201803590602001908080602002602001604051908101604052809392919081815260200183836020028082843782019150505050505091908035906020019082018035906020019080806020026020016040519081016040528093929190818152602001838360200280828437820191505050505050919080359060200190919080359060200190919080359060200190820180359060200190808060200260200160405190810160405280939291908181526020018383602002808284378201915050505050509190803590602001908201803590602001908080602002602001604051908101604052809392919081815260200183836020028082843782019150505050505091905050611a54565b005b341561045757600080fd5b61049060048080356000191690602001909190803573ffffffffffffffffffffffffffffffffffffffff16906020019091905050611e68565b6040518082815260200191505060405180910390f35b34156104b157600080fd5b6104d4600480803560001916906020019091908035906020019091905050611ed1565b604051808273ffffffffffffffffffffffffffffffffffffffff1673ffffffffffffffffffffffffffffffffffffffff16815260200191505060405180910390f35b341561052157600080fd5b610529611f32565b604051808273ffffffffffffffffffffffffffffffffffffffff1673ffffffffffffffffffffffffffffffffffffffff16815260200191505060405180910390f35b341561057657600080fd5b6105ce6004808035600019169060200190919080356000191690602001909190803573ffffffffffffffffffffffffffffffffffffffff16906020019091908035906020019091908035906020019091905050611f58565b005b34156105db57600080fd5b61060b60048080356000191690602001909190803560001916906020019091908035906020019091905050612133565b005b341561061857600080fd5b6106326004808035600019169060200190919050506123bc565b6040518082815260200191505060405180910390f35b341561065357600080fd5b6106c360048080356000191690602001909190803560001916906020019091908035906020019091908035906020019082018035906020019080806020026020016040519081016040528093929190818152602001838360200280828437820191505050505050919050506123e7565b005b34156106d057600080fd5b610780600480803560001916906020019091908035906020019082018035906020019080806020026020016040519081016040528093929190818152602001838360200280828437820191505050505050919080359060200190820180359060200190808060200260200160405190810160405280939291908181526020018383602002808284378201915050505050509190803560001916906020019091908035906020019091905050612a7d565b005b341561078d57600080fd5b6107b460048080356000191690602001909190803560001916906020019091905050612ff1565b6040518082815260200191505060405180910390f35b34156107d557600080fd5b6107ef600480803560001916906020019091905050613033565b6040518082815260200191505060405180910390f35b6000806000806000339450349350600092506000915060001515600560009054906101000a900473ffffffffffffffffffffffffffffffffffffffff1673ffffffffffffffffffffffffffffffffffffffff1663e491f48b876000604051602001526040518263ffffffff167c0100000000000000000000000000000000000000000000000000000000028152600401808273ffffffffffffffffffffffffffffffffffffffff1673ffffffffffffffffffffffffffffffffffffffff168152602001915050602060405180830381600087803b15156108e457600080fd5b6102c65a03f115156108f557600080fd5b505050604051805190501515141561090c57600080fd5b8388600460008d6000191660001916815260200190815260200160002060090160008c60001916600019168152602001908152602001600020540211806109535750600088145b1561095d57600080fd5b600091505b600460008b60001916600019168152602001908152602001600020600e0180549050821015610a6a578473ffffffffffffffffffffffffffffffffffffffff16600460008c60001916600019168152602001908152602001600020600e01838154811015156109cd57fe5b906000526020600020906004020160000160009054906101000a900473ffffffffffffffffffffffffffffffffffffffff1673ffffffffffffffffffffffffffffffffffffffff161415610a5d57600460008b60001916600019168152602001908152602001600020600e0182815481101515610a4657fe5b906000526020600020906004020160030154830192505b8180600101925050610962565b600460008b60001916600019168152602001908152602001600020600501548389600460008e6000191660001916815260200190815260200160002060070160008973ffffffffffffffffffffffffffffffffffffffff1673ffffffffffffffffffffffffffffffffffffffff1681526020019081526020016000206001015401011115610af757600080fd5b87600460008c60001916600019168152602001908152602001600020600e0188815481101515610b2357fe5b906000526020600020906004020160020160008b60001916600019168152602001908152602001600020541015610b5957600080fd5b878651141515610b6857600080fd5b8388600460008d60001916600019168152602001908152602001600020600e0189815481101515610b9557fe5b906000526020600020906004020160010160008c600019166000191681526020019081526020016000205402141561114e5787600460008c60001916600019168152602001908152602001600020600e0188815481101515610bf357fe5b906000526020600020906004020160020160008b600019166000191681526020019081526020016000206000828254039250508190555087600460008c6000191660001916815260200190815260200160002060070160008773ffffffffffffffffffffffffffffffffffffffff1673ffffffffffffffffffffffffffffffffffffffff16815260200190815260200160002060000160008b600019166000191681526020019081526020016000206000828254019250508190555087600460008c6000191660001916815260200190815260200160002060070160008773ffffffffffffffffffffffffffffffffffffffff1673ffffffffffffffffffffffffffffffffffffffff16815260200190815260200160002060010160008282540192505081905550600091505b87821015610f58576000600460008c6000191660001916815260200190815260200160002060070160008773ffffffffffffffffffffffffffffffffffffffff1673ffffffffffffffffffffffffffffffffffffffff16815260200190815260200160002060030160008b6000191660001916815260200190815260200160002060008885815181101515610db157fe5b9060200190602002015160001916600019168152602001908152602001600020541415610e9457600460008b6000191660001916815260200190815260200160002060070160008673ffffffffffffffffffffffffffffffffffffffff1673ffffffffffffffffffffffffffffffffffffffff16815260200190815260200160002060020160008a600019166000191681526020019081526020016000208054806001018281610e61919061305b565b916000526020600020900160008885815181101515610e7c57fe5b90602001906020020151909190915090600019169055505b600460008b6000191660001916815260200190815260200160002060070160008673ffffffffffffffffffffffffffffffffffffffff1673ffffffffffffffffffffffffffffffffffffffff16815260200190815260200160002060030160008a6000191660001916815260200190815260200160002060008784815181101515610f1b57fe5b9060200190602002015160001916600019168152602001908152602001600020600081548092919060010191905055508180600101925050610d20565b60009050600091505b600460008b6000191660001916815260200190815260200160002060080180549050821015611026578473ffffffffffffffffffffffffffffffffffffffff16600460008c6000191660001916815260200190815260200160002060080183815481101515610fcc57fe5b906000526020600020900160009054906101000a900473ffffffffffffffffffffffffffffffffffffffff1673ffffffffffffffffffffffffffffffffffffffff16141561101957600190505b8180600101925050610f61565b8015156110ad57600460008b60001916600019168152602001908152602001600020600801805480600101828161105d9190613087565b9160005260206000209001600087909190916101000a81548173ffffffffffffffffffffffffffffffffffffffff021916908373ffffffffffffffffffffffffffffffffffffffff160217905550505b600460008b60001916600019168152602001908152602001600020600e01878154811015156110d857fe5b906000526020600020906004020160000160009054906101000a900473ffffffffffffffffffffffffffffffffffffffff1673ffffffffffffffffffffffffffffffffffffffff166108fc859081150290604051600060405180830381858888f19350505050151561114957600080fd5b611153565b600080fd5b50505050505050505050565b6000806000806000806000349550600093506000925089600460008e60001916600019168152602001908152602001600020600a0160008d600019166000191681526020019081526020016000205410156111b957600080fd5b89885111156111c757600080fd5b6000600460008e60001916600019168152602001908152602001600020600c018054905011156112dc576001600460008e60001916600019168152602001908152602001600020600b0160003373ffffffffffffffffffffffffffffffffffffffff1673ffffffffffffffffffffffffffffffffffffffff16815260200190815260200160002060000154108061125e575060008a145b1561126857600080fd5b88945089600460008e60001916600019168152602001908152602001600020600b0160003373ffffffffffffffffffffffffffffffffffffffff1673ffffffffffffffffffffffffffffffffffffffff168152602001908152602001600020600001600082825401925050819055506114ef565b339450600460008d6000191660001916815260200190815260200160002060020154421080156113295750600460008d600019166000191681526020019081526020016000206003015442115b1561133357600080fd5b858a600460008f6000191660001916815260200190815260200160002060090160008e600019166000191681526020019081526020016000205402118061137a575060008a145b1561138457600080fd5b600460008d6000191660001916815260200190815260200160002060070160008673ffffffffffffffffffffffffffffffffffffffff1673ffffffffffffffffffffffffffffffffffffffff1681526020019081526020016000209150600093505b600460008d60001916600019168152602001908152602001600020600e01805490508410156114ee578473ffffffffffffffffffffffffffffffffffffffff16600460008e60001916600019168152602001908152602001600020600e018581548110151561145157fe5b906000526020600020906004020160000160009054906101000a900473ffffffffffffffffffffffffffffffffffffffff1673ffffffffffffffffffffffffffffffffffffffff1614156114e157600460008d60001916600019168152602001908152602001600020600e01848154811015156114ca57fe5b906000526020600020906004020160030154830192505b83806001019450506113e6565b5b600460008d6000191660001916815260200190815260200160002060050154838b84600101540101111561152257600080fd5b60001515600560009054906101000a900473ffffffffffffffffffffffffffffffffffffffff1673ffffffffffffffffffffffffffffffffffffffff1663e491f48b876000604051602001526040518263ffffffff167c0100000000000000000000000000000000000000000000000000000000028152600401808273ffffffffffffffffffffffffffffffffffffffff1673ffffffffffffffffffffffffffffffffffffffff168152602001915050602060405180830381600087803b15156115eb57600080fd5b6102c65a03f115156115fc57600080fd5b505050604051805190501515141561161357600080fd5b60009050600093505b600460008d60001916600019168152602001908152602001600020600801805490508410156116e1578473ffffffffffffffffffffffffffffffffffffffff16600460008e600019166000191681526020019081526020016000206008018581548110151561168757fe5b906000526020600020900160009054906101000a900473ffffffffffffffffffffffffffffffffffffffff1673ffffffffffffffffffffffffffffffffffffffff1614156116d457600190505b838060010194505061161c565b80151561176857600460008d6000191660001916815260200190815260200160002060080180548060010182816117189190613087565b9160005260206000209001600087909190916101000a81548173ffffffffffffffffffffffffffffffffffffffff021916908373ffffffffffffffffffffffffffffffffffffffff160217905550505b89600460008e60001916600019168152602001908152602001600020600a0160008d6000191660001916815260200190815260200160002060008282540392505081905550898260000160008d6000191660001916815260200190815260200160002060008282540192505081905550898260010160008282540192505081905550600093505b898410156119195760008260030160008d6000191660001916815260200190815260200160002060008a8781518110151561182657fe5b90602001906020020151600019166000191681526020019081526020016000205414156118af578160020160008c60001916600019168152602001908152602001600020805480600101828161187c919061305b565b916000526020600020900160008a8781518110151561189757fe5b90602001906020020151909190915090600019169055505b8160030160008c60001916600019168152602001908152602001600020600089868151811015156118dc57fe5b90602001906020020151600019166000191681526020019081526020016000206000815480929190600101919050555083806001019450506117ef565b8560036000828254019250508190555050505050505095945050505050565b6000600280549050905090565b6001600460008360001916600019168152602001908152602001600020600b0160008473ffffffffffffffffffffffffffffffffffffffff1673ffffffffffffffffffffffffffffffffffffffff16815260200190815260200160002060000181905550600460008260001916600019168152602001908152602001600020600c0180548060010182816119d99190613087565b9160005260206000209001600084909190916101000a81548173ffffffffffffffffffffffffffffffffffffffff021916908373ffffffffffffffffffffffffffffffffffffffff160217905550505050565b6000600460008360001916600019168152602001908152602001600020600101549050919050565b6000600160009054906101000a900473ffffffffffffffffffffffffffffffffffffffff1673ffffffffffffffffffffffffffffffffffffffff163373ffffffffffffffffffffffffffffffffffffffff16141515611ab257600080fd5b86518951141515611ac257600080fd5b85518751141515611ad257600080fd5b88518351141515611ae257600080fd5b88518251141515611af257600080fd5b60009050600090505b600280549050811015611b46578a60001916600282815481101515611b1c57fe5b9060005260206000209001546000191614151515611b3957600080fd5b8080600101915050611afb565b60028054806001018281611b5a919061305b565b916000526020600020900160008d909190915090600019169055508a600460008d60001916600019168152602001908152602001600020600001816000191690555089600460008d60001916600019168152602001908152602001600020600101816000191690555084600460008d600019166000191681526020019081526020016000206002018190555083600460008d600019166000191681526020019081526020016000206003018190555088600460008d600019166000191681526020019081526020016000206004019080519060200190611c3b9291906130b3565b5087600460008d600019166000191681526020019081526020016000206005018190555086600460008d600019166000191681526020019081526020016000206006019080519060200190611c91929190613106565b50600090505b8851811015611e5b578681815181101515611cae57fe5b90602001906020020151600460008d6000191660001916815260200190815260200160002060090160008b84815181101515611ce657fe5b9060200190602002015160001916600019168152602001908152602001600020819055508581815181101515611d1857fe5b90602001906020020151600460008d60001916600019168152602001908152602001600020600a0160008b84815181101515611d5057fe5b9060200190602002015160001916600019168152602001908152602001600020819055508281815181101515611d8257fe5b90602001906020020151600460008d60001916600019168152602001908152602001600020600d0160008b84815181101515611dba57fe5b9060200190602002015160001916600019168152602001908152602001600020600001819055508181815181101515611def57fe5b90602001906020020151600460008d60001916600019168152602001908152602001600020600d0160008b84815181101515611e2757fe5b9060200190602002015160001916600019168152602001908152602001600020600101819055508080600101915050611c97565b5050505050505050505050565b600060046000846000191660001916815260200190815260200160002060070160008373ffffffffffffffffffffffffffffffffffffffff1673ffffffffffffffffffffffffffffffffffffffff16815260200190815260200160002060010154905092915050565b6000600460008460001916600019168152602001908152602001600020600c0182815481101515611efe57fe5b906000526020600020900160009054906101000a900473ffffffffffffffffffffffffffffffffffffffff16905092915050565b600160009054906101000a900473ffffffffffffffffffffffffffffffffffffffff1681565b60003373ffffffffffffffffffffffffffffffffffffffff16600160009054906101000a900473ffffffffffffffffffffffffffffffffffffffff1673ffffffffffffffffffffffffffffffffffffffff16141515611fb657600080fd5b600090505b6004600087600019166000191681526020019081526020016000206008018054905081101561212b578260046000886000191660001916815260200190815260200160002060070160008673ffffffffffffffffffffffffffffffffffffffff1673ffffffffffffffffffffffffffffffffffffffff168152602001908152602001600020600001600087600019166000191681526020019081526020016000205410151561211e578373ffffffffffffffffffffffffffffffffffffffff166108fc60046000896000191660001916815260200190815260200160002060070160008773ffffffffffffffffffffffffffffffffffffffff1673ffffffffffffffffffffffffffffffffffffffff168152602001908152602001600020600001600088600019166000191681526020019081526020016000205484029081150290604051600060405180830381858888f19350505050151561211d57600080fd5b5b8080600101915050611fbb565b505050505050565b6000803373ffffffffffffffffffffffffffffffffffffffff16600160009054906101000a900473ffffffffffffffffffffffffffffffffffffffff1673ffffffffffffffffffffffffffffffffffffffff1614151561219257600080fd5b6004600086600019166000191681526020019081526020016000206008019150600090505b81805490508110156123b5576000600460008760001916600019168152602001908152602001600020600701600084848154811015156121f357fe5b906000526020600020900160009054906101000a900473ffffffffffffffffffffffffffffffffffffffff1673ffffffffffffffffffffffffffffffffffffffff1673ffffffffffffffffffffffffffffffffffffffff168152602001908152602001600020600001600086600019166000191681526020019081526020016000205411156123a857818181548110151561228a57fe5b906000526020600020900160009054906101000a900473ffffffffffffffffffffffffffffffffffffffff1673ffffffffffffffffffffffffffffffffffffffff166108fc600460008860001916600019168152602001908152602001600020600701600085858154811015156122fd57fe5b906000526020600020900160009054906101000a900473ffffffffffffffffffffffffffffffffffffffff1673ffffffffffffffffffffffffffffffffffffffff1673ffffffffffffffffffffffffffffffffffffffff168152602001908152602001600020600001600087600019166000191681526020019081526020016000205485029081150290604051600060405180830381858888f1935050505015156123a757600080fd5b5b80806001019150506121b7565b5050505050565b6000600460008360001916600019168152602001908152602001600020600c01805490509050919050565b60008060008060009350600091505b600460008960001916600019168152602001908152602001600020600e0180549050821015612745573373ffffffffffffffffffffffffffffffffffffffff16600460008a60001916600019168152602001908152602001600020600e018381548110151561246157fe5b906000526020600020906004020160000160009054906101000a900473ffffffffffffffffffffffffffffffffffffffff1673ffffffffffffffffffffffffffffffffffffffff161415612738576000600460008a60001916600019168152602001908152602001600020600e01838154811015156124dc57fe5b90600052602060002090600402016002016000896000191660001916815260200190815260200160002054111561273757600460008960001916600019168152602001908152602001600020600e018281548110151561253857fe5b906000526020600020906004020160020160008860001916600019168152602001908152602001600020548401935082805480600101828161257a9190613153565b9160005260206000209001600084909190915055508584111561273657600090505b82805490508110156127315783600460008a60001916600019168152602001908152602001600020600e01838154811015156125d457fe5b906000526020600020906004020160020160008960001916600019168152602001908152602001600020541115156126c057600460008960001916600019168152602001908152602001600020600e018281548110151561263157fe5b90600052602060002090600402016002016000886000191660001916815260200190815260200160002054840393506000600460008a60001916600019168152602001908152602001600020600e018381548110151561268d57fe5b90600052602060002090600402016002016000896000191660001916815260200190815260200160002081905550612724565b83600460008a60001916600019168152602001908152602001600020600e01838154811015156126ec57fe5b906000526020600020906004020160020160008960001916600019168152602001908152602001600020600082825403925050819055505b808060010191505061259c565b612745565b5b5b81806001019250506123f6565b85600460008a6000191660001916815260200190815260200160002060070160003373ffffffffffffffffffffffffffffffffffffffff1673ffffffffffffffffffffffffffffffffffffffff168152602001908152602001600020600001600089600019166000191681526020019081526020016000206000828254019250508190555085600460008a6000191660001916815260200190815260200160002060070160003373ffffffffffffffffffffffffffffffffffffffff1673ffffffffffffffffffffffffffffffffffffffff16815260200190815260200160002060010160008282540192505081905550600091505b85821015612a73576000600460008a6000191660001916815260200190815260200160002060070160003373ffffffffffffffffffffffffffffffffffffffff1673ffffffffffffffffffffffffffffffffffffffff16815260200190815260200160002060030160008960001916600019168152602001908152602001600020600087858151811015156128cc57fe5b90602001906020020151600019166000191681526020019081526020016000205414156129af5760046000896000191660001916815260200190815260200160002060070160003373ffffffffffffffffffffffffffffffffffffffff1673ffffffffffffffffffffffffffffffffffffffff16815260200190815260200160002060020160008860001916600019168152602001908152602001600020805480600101828161297c919061305b565b91600052602060002090016000878581518110151561299757fe5b90602001906020020151909190915090600019169055505b60046000896000191660001916815260200190815260200160002060070160003373ffffffffffffffffffffffffffffffffffffffff1673ffffffffffffffffffffffffffffffffffffffff1681526020019081526020016000206003016000886000191660001916815260200190815260200160002060008684815181101515612a3657fe5b906020019060200201516000191660001916815260200190815260200160002060008154809291906001019190505550818060010192505061283b565b5050505050505050565b600080600083600460008a60001916600019168152602001908152602001600020600d01600087600019166000191681526020019081526020016000206000015411151515612acb57600080fd5b83600460008a60001916600019168152602001908152602001600020600d01600087600019166000191681526020019081526020016000206001015410151515612b1457600080fd5b8651600460008a6000191660001916815260200190815260200160002060070160003373ffffffffffffffffffffffffffffffffffffffff1673ffffffffffffffffffffffffffffffffffffffff168152602001908152602001600020600001600087600019166000191681526020019081526020016000205410151515612b9b57600080fd5b85518751141515612bab57600080fd5b600092505b8651831015612d5d578583815181101515612bc757fe5b90602001906020020151600460008a6000191660001916815260200190815260200160002060070160003373ffffffffffffffffffffffffffffffffffffffff1673ffffffffffffffffffffffffffffffffffffffff1681526020019081526020016000206003016000876000191660001916815260200190815260200160002060008986815181101515612c5857fe5b9060200190602002015160001916600019168152602001908152602001600020541015612c8457600080fd5b8583815181101515612c9257fe5b90602001906020020151600460008a6000191660001916815260200190815260200160002060070160003373ffffffffffffffffffffffffffffffffffffffff1673ffffffffffffffffffffffffffffffffffffffff1681526020019081526020016000206003016000876000191660001916815260200190815260200160002060008986815181101515612d2357fe5b9060200190602002015160001916600019168152602001908152602001600020600082825403925050819055508280600101935050612bb0565b8651600460008a6000191660001916815260200190815260200160002060070160003373ffffffffffffffffffffffffffffffffffffffff1673ffffffffffffffffffffffffffffffffffffffff16815260200190815260200160002060000160008760001916600019168152602001908152602001600020600082825403925050819055508651600460008a6000191660001916815260200190815260200160002060070160003373ffffffffffffffffffffffffffffffffffffffff1673ffffffffffffffffffffffffffffffffffffffff16815260200190815260200160002060010160008282540392505081905550338260000160006101000a81548173ffffffffffffffffffffffffffffffffffffffff021916908373ffffffffffffffffffffffffffffffffffffffff1602179055508382600101600087600019166000191681526020019081526020016000208190555060009050600092505b8551831015612ef0578583815181101515612ed557fe5b90602001906020020151810190508280600101935050612ebe565b80826002016000876000191660001916815260200190815260200160002060008282540192505081905550808260030160008282540192505081905550600460008960001916600019168152602001908152602001600020600e018054806001018281612f5d919061317f565b916000526020600020906004020160008490919091506000820160009054906101000a900473ffffffffffffffffffffffffffffffffffffffff168160000160006101000a81548173ffffffffffffffffffffffffffffffffffffffff021916908373ffffffffffffffffffffffffffffffffffffffff160217905550600382015481600301555050505050505050505050565b60006004600084600019166000191681526020019081526020016000206009016000836000191660001916815260200190815260200160002054905092915050565b6000600460008360001916600019168152602001908152602001600020600501549050919050565b8154818355818115116130825781836000526020600020918201910161308191906131b1565b5b505050565b8154818355818115116130ae578183600052602060002091820191016130ad91906131d6565b5b505050565b8280548282559060005260206000209081019282156130f5579160200282015b828111156130f45782518290600019169055916020019190600101906130d3565b5b50905061310291906131b1565b5090565b828054828255906000526020600020908101928215613142579160200282015b82811115613141578251825591602001919060010190613126565b5b50905061314f91906131d6565b5090565b81548183558181151161317a5781836000526020600020918201910161317991906131d6565b5b505050565b8154818355818115116131ac576004028160040283600052602060002091820191016131ab91906131fb565b5b505050565b6131d391905b808211156131cf5760008160009055506001016131b7565b5090565b90565b6131f891905b808211156131f45760008160009055506001016131dc565b5090565b90565b61324691905b8082111561324257600080820160006101000a81549073ffffffffffffffffffffffffffffffffffffffff0219169055600382016000905550600401613201565b5090565b905600a165627a7a72305820ae0141e3ae9a9e2cb0cacb7c11e5e07818e8b488f740121c7baa0393a21ea1b90029",
  "source": "pragma solidity ^0.4.19;\r\nimport \"./ValidatedAddresses.sol\";\r\n//TODO: getter ticket second market\r\n//TODO: getter events\r\n//TODO: cancel every ticket of a type from second markets\r\ncontract Events {\r\n    address ValidatedAddressesContract;\r\n    address public owner;\r\n    bytes32[] events;\r\n    uint fund;\r\n    mapping(bytes32 => eventObject) eventStore;\r\n    ValidatedAddresses users;\r\n\r\n    struct buyer{\r\n      mapping (bytes32 => uint) ticketsQuantity;//type->quantity\r\n      uint nTickets;\r\n      mapping (bytes32 => bytes32[]) t;\r\n      mapping (bytes32 => mapping (bytes32 => uint) ) ticketsID;\r\n    }\r\n    struct sellerSecMarket{\r\n        address seller;\r\n        mapping(bytes32 => uint) prices;//type->price\r\n        mapping (bytes32 => uint) ticketsQuantity;//type->quantity\r\n        uint nTickets;\r\n    }\r\n    struct eventObject{\r\n      bytes32 id;\r\n      bytes32 name;\r\n      uint256 startTimeStamp;\r\n      uint256 endTimeStamp;\r\n      bytes32[] ticketsType;\r\n      uint maxTicketPerson;\r\n      uint[] ticketPrices;\r\n      mapping (address => buyer) sold;\r\n      address[] buyers;\r\n      mapping (bytes32 => uint) ticketPricesMap;\r\n      mapping (bytes32 => uint) ticketLeftMap;\r\n      mapping (address => reseller) resellers;\r\n      address[] resellersAddr;\r\n\r\n      mapping (bytes32 => marketLimit) secMarketLimit;\r\n      sellerSecMarket[] secondMarket;\r\n    }\r\n    struct reseller{\r\n        uint nTickets;\r\n    }\r\n    struct marketLimit{\r\n        uint lowerLimit;\r\n        uint upperLimit;\r\n    }\r\n\r\n    function Events(address _userContract) public{\r\n      ValidatedAddressesContract=_userContract;\r\n      users=ValidatedAddresses(ValidatedAddressesContract);\r\n      owner = msg.sender;\r\n      fund=0;\r\n    }\r\n\r\n    function cancelSellingTicket(bytes32 _idEvent, bytes32 _ticketsType, uint _quantity, bytes32[] _t){\r\n        uint cont=0;\r\n        uint[] pos;\r\n        for(uint i=0; i<eventStore[_idEvent].secondMarket.length;i++){\r\n          if(eventStore[_idEvent].secondMarket[i].seller==msg.sender){\r\n              if(eventStore[_idEvent].secondMarket[i].ticketsQuantity[_ticketsType]>0){\r\n                  cont+=eventStore[_idEvent].secondMarket[i].ticketsQuantity[_ticketsType];\r\n                  pos.push(i);\r\n                  if(cont>_quantity){\r\n                      for(uint k=0;k<pos.length;k++){\r\n                          if(eventStore[_idEvent].secondMarket[i].ticketsQuantity[_ticketsType]<=cont){\r\n                              cont-=eventStore[_idEvent].secondMarket[i].ticketsQuantity[_ticketsType];\r\n                              eventStore[_idEvent].secondMarket[i].ticketsQuantity[_ticketsType]=0;\r\n                          }else{\r\n                              eventStore[_idEvent].secondMarket[i].ticketsQuantity[_ticketsType]-=cont;\r\n                          }\r\n                      }\r\n                      break;\r\n                  }\r\n              }\r\n          }\r\n        }\r\n        eventStore[_idEvent].sold[msg.sender].ticketsQuantity[_ticketsType]+=_quantity;\r\n        eventStore[_idEvent].sold[msg.sender].nTickets+=_quantity;\r\n        for (i=0;i<_quantity;i++){\r\n            if(eventStore[_idEvent].sold[msg.sender].ticketsID[_ticketsType][_t[i]]==0){\r\n                eventStore[_idEvent].sold[msg.sender].t[_ticketsType].push(_t[i]);\r\n            }\r\n            eventStore[_idEvent].sold[msg.sender].ticketsID[_ticketsType][_t[i]]++;\r\n        }\r\n    }\r\n\r\n    function buySecond(bytes32 _idEvent, bytes32 _ticketsType, uint _quantity, uint _i, bytes32[] _t ) payable public{\r\n      address sender=msg.sender;\r\n      uint money = msg.value;\r\n      uint onSale=0;\r\n      uint i=0;\r\n      if(users.isUserValidated(sender)==false){\r\n        revert();\r\n      }\r\n      if(eventStore[_idEvent].ticketPricesMap[_ticketsType]*_quantity > money || _quantity==0){\r\n        revert();\r\n      }\r\n      for(i=0;i<eventStore[_idEvent].secondMarket.length;i++){\r\n          if(eventStore[_idEvent].secondMarket[i].seller==sender){\r\n              onSale+=eventStore[_idEvent].secondMarket[i].nTickets;\r\n          }\r\n      }\r\n      if(eventStore[_idEvent].sold[sender].nTickets+_quantity+onSale>eventStore[_idEvent].maxTicketPerson){\r\n          revert();\r\n      }\r\n      if(eventStore[_idEvent].secondMarket[_i].ticketsQuantity[_ticketsType]<_quantity){\r\n        revert();\r\n      }\r\n      if(_t.length!=_quantity){\r\n          revert();\r\n      }\r\n      if(eventStore[_idEvent].secondMarket[_i].prices[_ticketsType]*_quantity==money ){\r\n        eventStore[_idEvent].secondMarket[_i].ticketsQuantity[_ticketsType]-=_quantity;\r\n\r\n        eventStore[_idEvent].sold[sender].ticketsQuantity[_ticketsType]+=_quantity;\r\n        eventStore[_idEvent].sold[sender].nTickets+=_quantity;\r\n        for (i=0;i<_quantity;i++){\r\n            if(eventStore[_idEvent].sold[sender].ticketsID[_ticketsType][_t[i]]==0){\r\n                eventStore[_idEvent].sold[sender].t[_ticketsType].push(_t[i]);\r\n            }\r\n            eventStore[_idEvent].sold[sender].ticketsID[_ticketsType][_t[i]]++;\r\n        }\r\n        bool already=false;\r\n        for (i=0;i<eventStore[_idEvent].buyers.length;i++){\r\n            if(eventStore[_idEvent].buyers[i]==sender){\r\n                already=true;\r\n            }\r\n        }\r\n        if(!already){\r\n            eventStore[_idEvent].buyers.push(sender);\r\n        }\r\n        if(!eventStore[_idEvent].secondMarket[_i].seller.send(money)){\r\n            revert();\r\n        }\r\n      }else{\r\n        revert();\r\n      }\r\n    }\r\n\r\n    //before can be useful to cancel every ticket of taht type on second market\r\n    function setRefundByType(bytes32 _idEvent, bytes32 _ticketsType, uint _refundAmount) public{\r\n        require(owner==msg.sender);\r\n        address[] buyers=eventStore[_idEvent].buyers;\r\n        for(uint i=0;i<buyers.length;i++){\r\n            if(eventStore[_idEvent].sold[buyers[i]].ticketsQuantity[_ticketsType]>0){\r\n                if(!buyers[i].send(_refundAmount*eventStore[_idEvent].sold[buyers[i]].ticketsQuantity[_ticketsType])){\r\n                    revert();\r\n                }\r\n            }\r\n        }\r\n    }\r\n    function setSingleRefund(bytes32 _idEvent, bytes32 _ticketsType, address _user, uint _quantity, uint refundAmount) public{\r\n        require(owner==msg.sender);\r\n        for(uint i=0;i<eventStore[_idEvent].buyers.length;i++){\r\n            if(eventStore[_idEvent].sold[_user].ticketsQuantity[_ticketsType]>=_quantity){\r\n                if(!_user.send(refundAmount*eventStore[_idEvent].sold[_user].ticketsQuantity[_ticketsType])){\r\n                    revert();\r\n                }\r\n            }\r\n        }\r\n    }\r\n    /*\r\n    function withdraw() public returns (bool){\r\n      uint amount=fund;\r\n      require(msg.sender==owner);\r\n      fund=0;\r\n      if (!msg.sender.send(amount)) {\r\n        fund = amount;\r\n        return false;\r\n      }\r\n      return true;\r\n    }\r\n    */\r\n\r\n    function getEventsSize() public returns (uint){\r\n      return events.length;\r\n    }\r\n    function getTicketPrice(bytes32 _idEvent, bytes32 _type) public returns (uint){\r\n      return eventStore[_idEvent].ticketPricesMap[_type];\r\n    }\r\n    function getEventName(bytes32 _idEvent) public returns (bytes32){\r\n      return eventStore[_idEvent].name;\r\n    }\r\n    function getEventTicketPerPerson(bytes32 _idEvent) public returns (uint){\r\n      return eventStore[_idEvent].maxTicketPerson;\r\n    }\r\n    function getEventTicketBought(bytes32 _idEvent, address _addr) public returns (uint){\r\n      return eventStore[_idEvent].sold[_addr].nTickets;\r\n    }\r\n    function addReseller(address _addr,  bytes32 _idEvent ) public{\r\n        eventStore[_idEvent].resellers[_addr].nTickets=1;\r\n        eventStore[_idEvent].resellersAddr.push(_addr);\r\n    }\r\n    function getResellerLength(bytes32 _idEvent) public returns (uint){\r\n      return eventStore[_idEvent].resellersAddr.length;\r\n    }\r\n    function getResellerfirstAddr(bytes32 _idEvent, uint _resellerIndex) public returns (address){\r\n      return eventStore[_idEvent].resellersAddr[_resellerIndex];\r\n    }\r\n\r\n    //add new object for every new sale\r\n    //TODO: change old sale instead\r\n    function sellTickets(bytes32 _idEvent, bytes32[] _t, uint[] _quantity, bytes32 _ticketsType, uint _ticketsPrice ) public{\r\n        require(eventStore[_idEvent].secMarketLimit[_ticketsType].lowerLimit<=_ticketsPrice);\r\n        require(eventStore[_idEvent].secMarketLimit[_ticketsType].upperLimit>=_ticketsPrice);\r\n        require(eventStore[_idEvent].sold[msg.sender].ticketsQuantity[_ticketsType]>=_t.length);\r\n        require(_t.length==_quantity.length);\r\n        for(uint i =0; i<_t.length;i++){\r\n            if(eventStore[_idEvent].sold[msg.sender].ticketsID[_ticketsType][_t[i]]<_quantity[i]){\r\n                revert();\r\n            }\r\n            eventStore[_idEvent].sold[msg.sender].ticketsID[_ticketsType][_t[i]]-=_quantity[i];\r\n        }\r\n\r\n        eventStore[_idEvent].sold[msg.sender].ticketsQuantity[_ticketsType]-=_t.length;\r\n        eventStore[_idEvent].sold[msg.sender].nTickets-=_t.length;\r\n\r\n        //one price for every type of ticket on this sale\r\n        sellerSecMarket tmp;\r\n        tmp.seller=msg.sender;\r\n\r\n        tmp.prices[_ticketsType]=_ticketsPrice; //modify or set price\r\n        uint sum=0;\r\n        for(i=0;i<_quantity.length;i++){\r\n            sum+=_quantity[i];\r\n        }\r\n        tmp.ticketsQuantity[_ticketsType]+=sum;\r\n        tmp.nTickets+=sum;\r\n        eventStore[_idEvent].secondMarket.push(tmp);\r\n    }\r\n    function addEvent(bytes32 _idEvent, bytes32 _name, bytes32[] _ticketsType, uint _maxTicketPerson, uint[] _ticketsPrices, uint[] _ticketsLeft, uint256 _startTimeStamp, uint256 _endTimeStamp, uint[] _lowSecMarket, uint[] _upSecMarket) public\r\n    {\r\n        require(msg.sender==owner);\r\n        require(_ticketsType.length==_ticketsPrices.length);\r\n        require(_ticketsPrices.length==_ticketsLeft.length);\r\n        require(_lowSecMarket.length==_ticketsType.length);\r\n        require(_upSecMarket.length==_ticketsType.length);\r\n        uint i=0;\r\n        for (i=0;i<events.length;i++){\r\n            require(events[i]!=_idEvent);\r\n        }\r\n        events.push(_idEvent);\r\n        eventStore[_idEvent].id=_idEvent;\r\n        eventStore[_idEvent].name=_name;\r\n        eventStore[_idEvent].startTimeStamp=_startTimeStamp;\r\n        eventStore[_idEvent].endTimeStamp=_endTimeStamp;\r\n        eventStore[_idEvent].ticketsType=_ticketsType;\r\n        eventStore[_idEvent].maxTicketPerson=_maxTicketPerson;\r\n        eventStore[_idEvent].ticketPrices=_ticketsPrices;\r\n\r\n        for (i=0;i<_ticketsType.length;i++){\r\n            eventStore[_idEvent].ticketPricesMap[_ticketsType[i]]=_ticketsPrices[i];\r\n            eventStore[_idEvent].ticketLeftMap[_ticketsType[i]]=_ticketsLeft[i];\r\n            eventStore[_idEvent].secMarketLimit[_ticketsType[i]].lowerLimit=_lowSecMarket[i];\r\n            eventStore[_idEvent].secMarketLimit[_ticketsType[i]].upperLimit=_upSecMarket[i];\r\n        }\r\n\r\n    }\r\n\r\n   function buy(bytes32 _idEvent, bytes32 _ticketsType, uint _quantity, address _sentFrom, bytes32[] _t) payable public returns (uint) {\r\n        uint money = msg.value;\r\n        address sender;\r\n        uint i=0;\r\n        uint onSale=0;\r\n        buyer eventBuyer;\r\n        if(eventStore[_idEvent].ticketLeftMap[_ticketsType] < _quantity){\r\n            revert();\r\n        }\r\n        if(_t.length>_quantity){\r\n            revert();\r\n        }\r\n\r\n        if(eventStore[_idEvent].resellersAddr.length>0){\r\n            if(eventStore[_idEvent].resellers[msg.sender].nTickets<1 || _quantity==0){\r\n                revert();\r\n            }\r\n            sender=_sentFrom;\r\n            eventStore[_idEvent].resellers[msg.sender].nTickets+=_quantity;\r\n        }else{\r\n            sender=msg.sender;\r\n            if(block.timestamp < eventStore[_idEvent].startTimeStamp && block.timestamp > eventStore[_idEvent].endTimeStamp){\r\n                revert();\r\n            }\r\n            if(eventStore[_idEvent].ticketPricesMap[_ticketsType]*_quantity > money || _quantity==0){\r\n                revert();\r\n            }\r\n\r\n            eventBuyer=eventStore[_idEvent].sold[sender];\r\n            for(i=0;i<eventStore[_idEvent].secondMarket.length;i++){\r\n              if(eventStore[_idEvent].secondMarket[i].seller==sender){\r\n                  onSale+=eventStore[_idEvent].secondMarket[i].nTickets;\r\n              }\r\n            }\r\n        }\r\n\r\n        if(eventBuyer.nTickets+_quantity+onSale>eventStore[_idEvent].maxTicketPerson){\r\n            revert();\r\n        }\r\n\r\n        if(users.isUserValidated(sender)==false){\r\n          revert();\r\n        }\r\n        bool already=false;\r\n        for (i=0;i<eventStore[_idEvent].buyers.length;i++){\r\n            if(eventStore[_idEvent].buyers[i]==sender){\r\n                already=true;\r\n            }\r\n        }\r\n        if(!already){\r\n            eventStore[_idEvent].buyers.push(sender);\r\n        }\r\n        eventStore[_idEvent].ticketLeftMap[_ticketsType]-=_quantity;\r\n        eventBuyer.ticketsQuantity[_ticketsType]+=_quantity;\r\n        eventBuyer.nTickets+=_quantity;\r\n\r\n        for (i=0;i<_quantity;i++){\r\n            if(eventBuyer.ticketsID[_ticketsType][_t[i]]==0){\r\n                eventBuyer.t[_ticketsType].push(_t[i]);\r\n            }\r\n            eventBuyer.ticketsID[_ticketsType][_t[i]]++;\r\n        }\r\n\r\n        fund+=money;\r\n  }\r\n}\r\n",
  "sourcePath": "C:\\Users\\Pietro\\ticketingeth\\contracts\\contracts\\Events.sol",
  "compiler": {
    "name": "solc",
    "version": "0.4.19+commit.c4cbbb05.Emscripten.clang"
  },
  "schemaVersion": "2.0.0",
  "updatedAt": "2018-09-30T10:10:31.204Z"
}